{
  "contractName": "Crowdfunding",
  "abi": [
    {
      "anonymous": false,
      "inputs": [
        {
          "indexed": false,
          "internalType": "uint256",
          "name": "id",
          "type": "uint256"
        },
        {
          "indexed": true,
          "internalType": "address",
          "name": "contributor",
          "type": "address"
        },
        {
          "indexed": false,
          "internalType": "uint256",
          "name": "amount",
          "type": "uint256"
        },
        {
          "indexed": false,
          "internalType": "string",
          "name": "comment",
          "type": "string"
        }
      ],
      "name": "Funded",
      "type": "event"
    },
    {
      "anonymous": false,
      "inputs": [
        {
          "indexed": false,
          "internalType": "uint256",
          "name": "id",
          "type": "uint256"
        },
        {
          "indexed": false,
          "internalType": "uint256",
          "name": "amount",
          "type": "uint256"
        }
      ],
      "name": "FundsWithdrawn",
      "type": "event"
    },
    {
      "anonymous": false,
      "inputs": [
        {
          "indexed": false,
          "internalType": "uint256",
          "name": "id",
          "type": "uint256"
        },
        {
          "indexed": true,
          "internalType": "address",
          "name": "creator",
          "type": "address"
        },
        {
          "indexed": false,
          "internalType": "string",
          "name": "title",
          "type": "string"
        },
        {
          "indexed": false,
          "internalType": "uint256",
          "name": "fundingGoal",
          "type": "uint256"
        },
        {
          "indexed": false,
          "internalType": "uint256",
          "name": "deadline",
          "type": "uint256"
        }
      ],
      "name": "ProjectCreated",
      "type": "event"
    },
    {
      "inputs": [
        {
          "internalType": "uint256",
          "name": "",
          "type": "uint256"
        },
        {
          "internalType": "address",
          "name": "",
          "type": "address"
        }
      ],
      "name": "contributions",
      "outputs": [
        {
          "internalType": "uint256",
          "name": "",
          "type": "uint256"
        }
      ],
      "stateMutability": "view",
      "type": "function",
      "constant": true
    },
    {
      "inputs": [
        {
          "internalType": "uint256",
          "name": "",
          "type": "uint256"
        },
        {
          "internalType": "uint256",
          "name": "",
          "type": "uint256"
        }
      ],
      "name": "donations",
      "outputs": [
        {
          "internalType": "address",
          "name": "contributor",
          "type": "address"
        },
        {
          "internalType": "uint256",
          "name": "amount",
          "type": "uint256"
        },
        {
          "internalType": "string",
          "name": "comment",
          "type": "string"
        }
      ],
      "stateMutability": "view",
      "type": "function",
      "constant": true
    },
    {
      "inputs": [],
      "name": "multiSigApprover",
      "outputs": [
        {
          "internalType": "contract IMultiSigApprover",
          "name": "",
          "type": "address"
        }
      ],
      "stateMutability": "view",
      "type": "function",
      "constant": true
    },
    {
      "inputs": [],
      "name": "projectCount",
      "outputs": [
        {
          "internalType": "uint256",
          "name": "",
          "type": "uint256"
        }
      ],
      "stateMutability": "view",
      "type": "function",
      "constant": true
    },
    {
      "inputs": [
        {
          "internalType": "uint256",
          "name": "",
          "type": "uint256"
        }
      ],
      "name": "projects",
      "outputs": [
        {
          "internalType": "uint256",
          "name": "id",
          "type": "uint256"
        },
        {
          "internalType": "string",
          "name": "title",
          "type": "string"
        },
        {
          "internalType": "string",
          "name": "description",
          "type": "string"
        },
        {
          "internalType": "uint256",
          "name": "fundingGoal",
          "type": "uint256"
        },
        {
          "internalType": "uint256",
          "name": "totalFunds",
          "type": "uint256"
        },
        {
          "internalType": "address payable",
          "name": "creator",
          "type": "address"
        },
        {
          "internalType": "bool",
          "name": "isOpen",
          "type": "bool"
        },
        {
          "internalType": "uint256",
          "name": "deadline",
          "type": "uint256"
        }
      ],
      "stateMutability": "view",
      "type": "function",
      "constant": true
    },
    {
      "inputs": [
        {
          "internalType": "address",
          "name": "_approver",
          "type": "address"
        }
      ],
      "name": "setMultiSigApprover",
      "outputs": [],
      "stateMutability": "nonpayable",
      "type": "function"
    },
    {
      "inputs": [
        {
          "internalType": "string",
          "name": "_title",
          "type": "string"
        },
        {
          "internalType": "string",
          "name": "_description",
          "type": "string"
        },
        {
          "internalType": "uint256",
          "name": "_fundingGoal",
          "type": "uint256"
        },
        {
          "internalType": "uint256",
          "name": "_deadline",
          "type": "uint256"
        }
      ],
      "name": "createProject",
      "outputs": [],
      "stateMutability": "nonpayable",
      "type": "function"
    },
    {
      "inputs": [
        {
          "internalType": "uint256",
          "name": "_id",
          "type": "uint256"
        },
        {
          "internalType": "string",
          "name": "_comment",
          "type": "string"
        }
      ],
      "name": "fundProject",
      "outputs": [],
      "stateMutability": "payable",
      "type": "function",
      "payable": true
    },
    {
      "inputs": [
        {
          "internalType": "uint256",
          "name": "_id",
          "type": "uint256"
        }
      ],
      "name": "withdrawFunds",
      "outputs": [],
      "stateMutability": "nonpayable",
      "type": "function"
    },
    {
      "inputs": [
        {
          "internalType": "uint256",
          "name": "_id",
          "type": "uint256"
        }
      ],
      "name": "getDonations",
      "outputs": [
        {
          "components": [
            {
              "internalType": "address",
              "name": "contributor",
              "type": "address"
            },
            {
              "internalType": "uint256",
              "name": "amount",
              "type": "uint256"
            },
            {
              "internalType": "string",
              "name": "comment",
              "type": "string"
            }
          ],
          "internalType": "struct Crowdfunding.Donation[]",
          "name": "",
          "type": "tuple[]"
        }
      ],
      "stateMutability": "view",
      "type": "function",
      "constant": true
    },
    {
      "inputs": [
        {
          "internalType": "uint256",
          "name": "_projectId",
          "type": "uint256"
        }
      ],
      "name": "getApprovalStatus",
      "outputs": [
        {
          "internalType": "uint256",
          "name": "approvedCount",
          "type": "uint256"
        },
        {
          "internalType": "uint256",
          "name": "requiredApprovals",
          "type": "uint256"
        }
      ],
      "stateMutability": "view",
      "type": "function",
      "constant": true
    }
  ],
  "bytecode": "0x60806040526000805534801561001457600080fd5b506122d8806100246000396000f3fe60806040526004361061009c5760003560e01c806348f7b12e1161006457806348f7b12e14610192578063596d9ce2146101d15780637a3655151461020e57806394ba970914610239578063cf16fd0b14610262578063ffb86413146102a05761009c565b8063107046bd146100a1578063155dd5ee146100e557806336fbad261461010e5780633d891f59146101395780633e721abe14610176575b600080fd5b3480156100ad57600080fd5b506100c860048036038101906100c3919061150e565b6102c9565b6040516100dc989796959493929190611e28565b60405180910390f35b3480156100f157600080fd5b5061010c6004803603810190610107919061150e565b61044e565b005b34801561011a57600080fd5b506101236107d2565b6040516101309190611e0d565b60405180910390f35b34801561014557600080fd5b50610160600480360381019061015b9190611560565b6107d8565b60405161016d9190611e0d565b60405180910390f35b610190600480360381019061018b919061159c565b6107fd565b005b34801561019e57600080fd5b506101b960048036038101906101b491906115f0565b610ad1565b6040516101c893929190611bd2565b60405180910390f35b3480156101dd57600080fd5b506101f860048036038101906101f3919061150e565b610bc0565b6040516102059190611c10565b60405180910390f35b34801561021a57600080fd5b50610223610d24565b6040516102309190611c32565b60405180910390f35b34801561024557600080fd5b50610260600480360381019061025b919061147b565b610d4a565b005b34801561026e57600080fd5b506102896004803603810190610284919061150e565b611000565b604051610297929190611f00565b60405180910390f35b3480156102ac57600080fd5b506102c760048036038101906102c29190611429565b6111f5565b005b60016020528060005260406000206000915090508060000154908060010180546102f290612144565b80601f016020809104026020016040519081016040528092919081815260200182805461031e90612144565b801561036b5780601f106103405761010080835404028352916020019161036b565b820191906000526020600020905b81548152906001019060200180831161034e57829003601f168201915b50505050509080600201805461038090612144565b80601f01602080910402602001604051908101604052809291908181526020018280546103ac90612144565b80156103f95780601f106103ce576101008083540402835291602001916103f9565b820191906000526020600020905b8154815290600101906020018083116103dc57829003601f168201915b5050505050908060030154908060040154908060050160009054906101000a900473ffffffffffffffffffffffffffffffffffffffff16908060050160149054906101000a900460ff16908060060154905088565b60006001600083815260200190815260200160002090508060050160009054906101000a900473ffffffffffffffffffffffffffffffffffffffff1673ffffffffffffffffffffffffffffffffffffffff163373ffffffffffffffffffffffffffffffffffffffff16146104f7576040517f08c379a00000000000000000000000000000000000000000000000000000000081526004016104ee90611c6d565b60405180910390fd5b806003015481600401541015610542576040517f08c379a000000000000000000000000000000000000000000000000000000000815260040161053990611c4d565b60405180910390fd5b600015158160050160149054906101000a900460ff1615151461059a576040517f08c379a000000000000000000000000000000000000000000000000000000000815260040161059190611ced565b60405180910390fd5b600073ffffffffffffffffffffffffffffffffffffffff16600460009054906101000a900473ffffffffffffffffffffffffffffffffffffffff1673ffffffffffffffffffffffffffffffffffffffff16141561062c576040517f08c379a000000000000000000000000000000000000000000000000000000000815260040161062390611d2d565b60405180910390fd5b600460009054906101000a900473ffffffffffffffffffffffffffffffffffffffff1673ffffffffffffffffffffffffffffffffffffffff16637910867b836040518263ffffffff1660e01b81526004016106879190611e0d565b60206040518083038186803b15801561069f57600080fd5b505afa1580156106b3573d6000803e3d6000fd5b505050506040513d601f19601f820116820180604052508101906106d79190611452565b610716576040517f08c379a000000000000000000000000000000000000000000000000000000000815260040161070d90611c8d565b60405180910390fd5b600081600401549050600082600401819055508160050160009054906101000a900473ffffffffffffffffffffffffffffffffffffffff1673ffffffffffffffffffffffffffffffffffffffff166108fc829081150290604051600060405180830381858888f19350505050158015610793573d6000803e3d6000fd5b507fd66662c0ded9e58fd31d5e44944bcfd07ffc15e6927ecc1382e7941cb7bd24c483826040516107c5929190611f00565b60405180910390a1505050565b60005481565b6003602052816000526040600020602052806000526040600020600091509150505481565b60006001600084815260200190815260200160002090508060050160149054906101000a900460ff16610865576040517f08c379a000000000000000000000000000000000000000000000000000000000815260040161085c90611cad565b60405180910390fd5b806006015442106108ab576040517f08c379a00000000000000000000000000000000000000000000000000000000081526004016108a290611d0d565b60405180910390fd5b600034116108ee576040517f08c379a00000000000000000000000000000000000000000000000000000000081526004016108e590611d8d565b60405180910390fd5b34816004016000828254610902919061202e565b92505081905550346003600085815260200190815260200160002060003373ffffffffffffffffffffffffffffffffffffffff1673ffffffffffffffffffffffffffffffffffffffff1681526020019081526020016000206000828254610969919061202e565b925050819055506002600084815260200190815260200160002060405180606001604052803373ffffffffffffffffffffffffffffffffffffffff16815260200134815260200184815250908060018154018082558091505060019003906000526020600020906003020160009091909190915060008201518160000160006101000a81548173ffffffffffffffffffffffffffffffffffffffff021916908373ffffffffffffffffffffffffffffffffffffffff160217905550602082015181600101556040820151816002019080519060200190610a4a9291906112ca565b5050503373ffffffffffffffffffffffffffffffffffffffff167ffc0418dc9fde906ae69e1b2d0d6f1fa844f1c42aaee1b53b9dabf712a5bcdec0843485604051610a9793929190611f29565b60405180910390a28060030154816004015410610acc5760008160050160146101000a81548160ff0219169083151502179055505b505050565b60026020528160005260406000208181548110610aed57600080fd5b9060005260206000209060030201600091509150508060000160009054906101000a900473ffffffffffffffffffffffffffffffffffffffff1690806001015490806002018054610b3d90612144565b80601f0160208091040260200160405190810160405280929190818152602001828054610b6990612144565b8015610bb65780601f10610b8b57610100808354040283529160200191610bb6565b820191906000526020600020905b815481529060010190602001808311610b9957829003601f168201915b5050505050905083565b606060026000838152602001908152602001600020805480602002602001604051908101604052809291908181526020016000905b82821015610d1957838290600052602060002090600302016040518060600160405290816000820160009054906101000a900473ffffffffffffffffffffffffffffffffffffffff1673ffffffffffffffffffffffffffffffffffffffff1673ffffffffffffffffffffffffffffffffffffffff16815260200160018201548152602001600282018054610c8890612144565b80601f0160208091040260200160405190810160405280929190818152602001828054610cb490612144565b8015610d015780601f10610cd657610100808354040283529160200191610d01565b820191906000526020600020905b815481529060010190602001808311610ce457829003601f168201915b50505050508152505081526020019060010190610bf5565b505050509050919050565b600460009054906101000a900473ffffffffffffffffffffffffffffffffffffffff1681565b6000845111610d8e576040517f08c379a0000000000000000000000000000000000000000000000000000000008152600401610d8590611d6d565b60405180910390fd5b6000835111610dd2576040517f08c379a0000000000000000000000000000000000000000000000000000000008152600401610dc990611dcd565b60405180910390fd5b60008211610e15576040517f08c379a0000000000000000000000000000000000000000000000000000000008152600401610e0c90611ccd565b60405180910390fd5b428111610e57576040517f08c379a0000000000000000000000000000000000000000000000000000000008152600401610e4e90611dad565b60405180910390fd5b600080815480929190610e6990612176565b91905055506040518061010001604052806000548152602001858152602001848152602001838152602001600081526020013373ffffffffffffffffffffffffffffffffffffffff168152602001600115158152602001828152506001600080548152602001908152602001600020600082015181600001556020820151816001019080519060200190610efe9291906112ca565b506040820151816002019080519060200190610f1b9291906112ca565b50606082015181600301556080820151816004015560a08201518160050160006101000a81548173ffffffffffffffffffffffffffffffffffffffff021916908373ffffffffffffffffffffffffffffffffffffffff16021790555060c08201518160050160146101000a81548160ff02191690831515021790555060e082015181600601559050503373ffffffffffffffffffffffffffffffffffffffff167f483013d4a1d5e8ba43089bda8f1a92b959e32d6fc582556f800267dd809e5893600054868585604051610ff29493929190611eb4565b60405180910390a250505050565b600080600073ffffffffffffffffffffffffffffffffffffffff16600460009054906101000a900473ffffffffffffffffffffffffffffffffffffffff1673ffffffffffffffffffffffffffffffffffffffff161415611095576040517f08c379a000000000000000000000000000000000000000000000000000000000815260040161108c90611ded565b60405180910390fd5b6000600460009054906101000a900473ffffffffffffffffffffffffffffffffffffffff1673ffffffffffffffffffffffffffffffffffffffff1663a4e360c8856040518263ffffffff1660e01b81526004016110f29190611e0d565b60206040518083038186803b15801561110a57600080fd5b505afa15801561111e573d6000803e3d6000fd5b505050506040513d601f19601f820116820180604052508101906111429190611537565b90506000600460009054906101000a900473ffffffffffffffffffffffffffffffffffffffff1673ffffffffffffffffffffffffffffffffffffffff166399c1aadc6040518163ffffffff1660e01b815260040160206040518083038186803b1580156111ae57600080fd5b505afa1580156111c2573d6000803e3d6000fd5b505050506040513d601f19601f820116820180604052508101906111e69190611537565b90508181935093505050915091565b600073ffffffffffffffffffffffffffffffffffffffff16600460009054906101000a900473ffffffffffffffffffffffffffffffffffffffff1673ffffffffffffffffffffffffffffffffffffffff1614611286576040517f08c379a000000000000000000000000000000000000000000000000000000000815260040161127d90611d4d565b60405180910390fd5b80600460006101000a81548173ffffffffffffffffffffffffffffffffffffffff021916908373ffffffffffffffffffffffffffffffffffffffff16021790555050565b8280546112d690612144565b90600052602060002090601f0160209004810192826112f8576000855561133f565b82601f1061131157805160ff191683800117855561133f565b8280016001018555821561133f579182015b8281111561133e578251825591602001919060010190611323565b5b50905061134c9190611350565b5090565b5b80821115611369576000816000905550600101611351565b5090565b600061138061137b84611f98565b611f67565b90508281526020810184848401111561139857600080fd5b6113a3848285612102565b509392505050565b6000813590506113ba8161225d565b92915050565b6000815190506113cf81612274565b92915050565b600082601f8301126113e657600080fd5b81356113f684826020860161136d565b91505092915050565b60008135905061140e8161228b565b92915050565b6000815190506114238161228b565b92915050565b60006020828403121561143b57600080fd5b6000611449848285016113ab565b91505092915050565b60006020828403121561146457600080fd5b6000611472848285016113c0565b91505092915050565b6000806000806080858703121561149157600080fd5b600085013567ffffffffffffffff8111156114ab57600080fd5b6114b7878288016113d5565b945050602085013567ffffffffffffffff8111156114d457600080fd5b6114e0878288016113d5565b93505060406114f1878288016113ff565b9250506060611502878288016113ff565b91505092959194509250565b60006020828403121561152057600080fd5b600061152e848285016113ff565b91505092915050565b60006020828403121561154957600080fd5b600061155784828501611414565b91505092915050565b6000806040838503121561157357600080fd5b6000611581858286016113ff565b9250506020611592858286016113ab565b9150509250929050565b600080604083850312156115af57600080fd5b60006115bd858286016113ff565b925050602083013567ffffffffffffffff8111156115da57600080fd5b6115e6858286016113d5565b9150509250929050565b6000806040838503121561160357600080fd5b6000611611858286016113ff565b9250506020611622858286016113ff565b9150509250929050565b60006116388383611b64565b905092915050565b61164981612096565b82525050565b61165881612084565b82525050565b61166781612084565b82525050565b600061167882611fd8565b6116828185611ffb565b93508360208202850161169485611fc8565b8060005b858110156116d057848403895281516116b1858261162c565b94506116bc83611fee565b925060208a01995050600181019050611698565b50829750879550505050505092915050565b6116eb816120a8565b82525050565b6116fa816120de565b82525050565b600061170b82611fe3565b611715818561200c565b9350611725818560208601612111565b61172e8161224c565b840191505092915050565b600061174482611fe3565b61174e818561201d565b935061175e818560208601612111565b6117678161224c565b840191505092915050565b600061177f60188361201d565b91507f46756e64696e6720676f616c206e6f74207265616368656400000000000000006000830152602082019050919050565b60006117bf601f8361201d565b91507f4f6e6c792063726561746f722063616e2077697468647261772066756e6473006000830152602082019050919050565b60006117ff60238361201d565b91507f4e6f7420617070726f76656420627920616c6c2074727573746564207369676e60008301527f65727300000000000000000000000000000000000000000000000000000000006020830152604082019050919050565b6000611865601f8361201d565b91507f50726f6a656374206973206e6f74206f70656e20666f722066756e64696e67006000830152602082019050919050565b60006118a560268361201d565b91507f46756e64696e6720676f616c206d75737420626520677265617465722074686160008301527f6e207a65726f00000000000000000000000000000000000000000000000000006020830152604082019050919050565b600061190b60158361201d565b91507f50726f6a656374206973207374696c6c206f70656e00000000000000000000006000830152602082019050919050565b600061194b601b8361201d565b91507f46756e64696e6720646561646c696e65206861732070617373656400000000006000830152602082019050919050565b600061198b60188361201d565b91507f4d756c7469536967417070726f766572206e6f742073657400000000000000006000830152602082019050919050565b60006119cb600b8361201d565b91507f416c7265616479207365740000000000000000000000000000000000000000006000830152602082019050919050565b6000611a0b60118361201d565b91507f5469746c652069732072657175697265640000000000000000000000000000006000830152602082019050919050565b6000611a4b60268361201d565b91507f436f6e747269627574696f6e206d75737420626520677265617465722074686160008301527f6e207a65726f00000000000000000000000000000000000000000000000000006020830152604082019050919050565b6000611ab1601e8361201d565b91507f446561646c696e65206d75737420626520696e207468652066757475726500006000830152602082019050919050565b6000611af160178361201d565b91507f4465736372697074696f6e2069732072657175697265640000000000000000006000830152602082019050919050565b6000611b3160198361201d565b91507f4d756c7469536967417070726f766572206e6f74207365742e000000000000006000830152602082019050919050565b6000606083016000830151611b7c600086018261164f565b506020830151611b8f6020860182611bb4565b5060408301518482036040860152611ba78282611700565b9150508091505092915050565b611bbd816120d4565b82525050565b611bcc816120d4565b82525050565b6000606082019050611be7600083018661165e565b611bf46020830185611bc3565b8181036040830152611c068184611739565b9050949350505050565b60006020820190508181036000830152611c2a818461166d565b905092915050565b6000602082019050611c4760008301846116f1565b92915050565b60006020820190508181036000830152611c6681611772565b9050919050565b60006020820190508181036000830152611c86816117b2565b9050919050565b60006020820190508181036000830152611ca6816117f2565b9050919050565b60006020820190508181036000830152611cc681611858565b9050919050565b60006020820190508181036000830152611ce681611898565b9050919050565b60006020820190508181036000830152611d06816118fe565b9050919050565b60006020820190508181036000830152611d268161193e565b9050919050565b60006020820190508181036000830152611d468161197e565b9050919050565b60006020820190508181036000830152611d66816119be565b9050919050565b60006020820190508181036000830152611d86816119fe565b9050919050565b60006020820190508181036000830152611da681611a3e565b9050919050565b60006020820190508181036000830152611dc681611aa4565b9050919050565b60006020820190508181036000830152611de681611ae4565b9050919050565b60006020820190508181036000830152611e0681611b24565b9050919050565b6000602082019050611e226000830184611bc3565b92915050565b600061010082019050611e3e600083018b611bc3565b8181036020830152611e50818a611739565b90508181036040830152611e648189611739565b9050611e736060830188611bc3565b611e806080830187611bc3565b611e8d60a0830186611640565b611e9a60c08301856116e2565b611ea760e0830184611bc3565b9998505050505050505050565b6000608082019050611ec96000830187611bc3565b8181036020830152611edb8186611739565b9050611eea6040830185611bc3565b611ef76060830184611bc3565b95945050505050565b6000604082019050611f156000830185611bc3565b611f226020830184611bc3565b9392505050565b6000606082019050611f3e6000830186611bc3565b611f4b6020830185611bc3565b8181036040830152611f5d8184611739565b9050949350505050565b6000604051905081810181811067ffffffffffffffff82111715611f8e57611f8d61221d565b5b8060405250919050565b600067ffffffffffffffff821115611fb357611fb261221d565b5b601f19601f8301169050602081019050919050565b6000819050602082019050919050565b600081519050919050565b600081519050919050565b6000602082019050919050565b600082825260208201905092915050565b600082825260208201905092915050565b600082825260208201905092915050565b6000612039826120d4565b9150612044836120d4565b9250827fffffffffffffffffffffffffffffffffffffffffffffffffffffffffffffffff03821115612079576120786121bf565b5b828201905092915050565b600061208f826120b4565b9050919050565b60006120a1826120b4565b9050919050565b60008115159050919050565b600073ffffffffffffffffffffffffffffffffffffffff82169050919050565b6000819050919050565b60006120e9826120f0565b9050919050565b60006120fb826120b4565b9050919050565b82818337600083830152505050565b60005b8381101561212f578082015181840152602081019050612114565b8381111561213e576000848401525b50505050565b6000600282049050600182168061215c57607f821691505b602082108114156121705761216f6121ee565b5b50919050565b6000612181826120d4565b91507fffffffffffffffffffffffffffffffffffffffffffffffffffffffffffffffff8214156121b4576121b36121bf565b5b600182019050919050565b7f4e487b7100000000000000000000000000000000000000000000000000000000600052601160045260246000fd5b7f4e487b7100000000000000000000000000000000000000000000000000000000600052602260045260246000fd5b7f4e487b7100000000000000000000000000000000000000000000000000000000600052604160045260246000fd5b6000601f19601f8301169050919050565b61226681612084565b811461227157600080fd5b50565b61227d816120a8565b811461228857600080fd5b50565b612294816120d4565b811461229f57600080fd5b5056fea2646970667358221220c5b6e4a21257ba2f3cbe462a851eeafaaaa4f96a4f9bf0b934db202e185d7fe964736f6c63430008000033",
  "immutableReferences": {},
  "source": "// SPDX-License-Identifier: MIT\r\npragma solidity ^0.8.0;\r\n\r\ninterface IMultiSigApprover {\r\n    function isApproved(uint256 projectId) external view returns (bool);\r\n    function approveWithdrawal(uint256 projectId) external;\r\n    function getApprovals(uint256 projectId) external view returns (uint256);\r\n    function requiredApprovals() external view returns (uint256);\r\n}\r\n\r\ncontract Crowdfunding {\r\n    struct Project {\r\n        uint256 id;\r\n        string title;\r\n        string description;\r\n        uint256 fundingGoal; \r\n        uint256 totalFunds;  \r\n        address payable creator;\r\n        bool isOpen;\r\n        uint256 deadline;\r\n    }\r\n\r\n    struct Donation {\r\n        address contributor;\r\n        uint256 amount;   \r\n        string comment;\r\n    }\r\n\r\n    uint256 public projectCount = 0;\r\n    mapping(uint256 => Project) public projects;\r\n    mapping(uint256 => Donation[]) public donations; \r\n    mapping(uint256 => mapping(address => uint256)) public contributions;\r\n\r\n    event ProjectCreated(\r\n        uint256 id,\r\n        address indexed creator,\r\n        string title,\r\n        uint256 fundingGoal,\r\n        uint256 deadline\r\n    );\r\n\r\n    event Funded(\r\n        uint256 id,\r\n        address indexed contributor,\r\n        uint256 amount,\r\n        string comment\r\n    );\r\n\r\n    event FundsWithdrawn(uint256 id, uint256 amount);\r\n\r\n    IMultiSigApprover public multiSigApprover;\r\n\r\n    function setMultiSigApprover(address _approver) public {\r\n        require(address(multiSigApprover) == address(0), \"Already set\");\r\n        multiSigApprover = IMultiSigApprover(_approver);\r\n    }\r\n\r\n    function createProject(\r\n        string memory _title,\r\n        string memory _description,\r\n        uint256 _fundingGoal,\r\n        uint256 _deadline\r\n    ) public {\r\n        require(bytes(_title).length > 0, \"Title is required\");\r\n        require(bytes(_description).length > 0, \"Description is required\");\r\n        require(_fundingGoal > 0, \"Funding goal must be greater than zero\");\r\n        require(_deadline > block.timestamp, \"Deadline must be in the future\");\r\n\r\n        projectCount++;\r\n        projects[projectCount] = Project(\r\n            projectCount,\r\n            _title,\r\n            _description,\r\n            _fundingGoal,\r\n            0,\r\n            payable(msg.sender),\r\n            true,\r\n            _deadline\r\n        );\r\n\r\n        emit ProjectCreated(projectCount, msg.sender, _title, _fundingGoal, _deadline);\r\n    }\r\n\r\n    function fundProject(uint256 _id, string memory _comment) public payable {\r\n        Project storage project = projects[_id];\r\n        require(project.isOpen, \"Project is not open for funding\");\r\n        require(block.timestamp < project.deadline, \"Funding deadline has passed\");\r\n        require(msg.value > 0, \"Contribution must be greater than zero\");\r\n\r\n        project.totalFunds += msg.value;\r\n        contributions[_id][msg.sender] += msg.value;\r\n\r\n        donations[_id].push(Donation(msg.sender, msg.value, _comment));\r\n\r\n        emit Funded(_id, msg.sender, msg.value, _comment);\r\n\r\n        if (project.totalFunds >= project.fundingGoal) {\r\n            project.isOpen = false;\r\n        }\r\n    }\r\n\r\n    function withdrawFunds(uint256 _id) public {\r\n        Project storage project = projects[_id];\r\n        require(msg.sender == project.creator, \"Only creator can withdraw funds\");\r\n        require(project.totalFunds >= project.fundingGoal, \"Funding goal not reached\");\r\n        require(project.isOpen == false, \"Project is still open\");\r\n        require(address(multiSigApprover) != address(0), \"MultiSigApprover not set\");\r\n        require(multiSigApprover.isApproved(_id), \"Not approved by all trusted signers\");\r\n\r\n        uint256 amount = project.totalFunds;\r\n        project.totalFunds = 0;\r\n        project.creator.transfer(amount);\r\n\r\n        emit FundsWithdrawn(_id, amount);\r\n    }\r\n\r\n    function getDonations(uint256 _id) public view returns (Donation[] memory) {\r\n        return donations[_id];\r\n    }\r\n\r\n    function getApprovalStatus(uint256 _projectId) public view returns (uint256 approvedCount, uint256 requiredApprovals) {\r\n        require(address(multiSigApprover) != address(0), \"MultiSigApprover not set.\");\r\n        uint256 app = multiSigApprover.getApprovals(_projectId);\r\n        uint256 req = multiSigApprover.requiredApprovals();\r\n        return (app, req);\r\n    }\r\n}\r\n",
  "sourcePath": "D:\\adv blockchain project\\final term project\\decentralized-crowdfunding\\contracts\\Crowdfunding.sol",
  "compiler": {
    "name": "solc",
    "version": "0.8.0+commit.c7dfd78e.Emscripten.clang"
  },
  "schemaVersion": "3.4.16",
  "updatedAt": "2024-12-09T01:37:54.862Z",
  "networkType": "ethereum",
  "devdoc": {
    "kind": "dev",
    "methods": {},
    "version": 1
  },
  "userdoc": {
    "kind": "user",
    "methods": {},
    "version": 1
  }
}