{
  "contractName": "Crowdfunding",
  "abi": [
    {
      "anonymous": false,
      "inputs": [
        {
          "indexed": false,
          "internalType": "uint256",
          "name": "id",
          "type": "uint256"
        },
        {
          "indexed": true,
          "internalType": "address",
          "name": "contributor",
          "type": "address"
        },
        {
          "indexed": false,
          "internalType": "uint256",
          "name": "amount",
          "type": "uint256"
        }
      ],
      "name": "Funded",
      "type": "event"
    },
    {
      "anonymous": false,
      "inputs": [
        {
          "indexed": false,
          "internalType": "uint256",
          "name": "id",
          "type": "uint256"
        },
        {
          "indexed": false,
          "internalType": "uint256",
          "name": "amount",
          "type": "uint256"
        }
      ],
      "name": "FundsWithdrawn",
      "type": "event"
    },
    {
      "anonymous": false,
      "inputs": [
        {
          "indexed": false,
          "internalType": "uint256",
          "name": "id",
          "type": "uint256"
        },
        {
          "indexed": true,
          "internalType": "address",
          "name": "creator",
          "type": "address"
        },
        {
          "indexed": false,
          "internalType": "string",
          "name": "title",
          "type": "string"
        },
        {
          "indexed": false,
          "internalType": "uint256",
          "name": "fundingGoal",
          "type": "uint256"
        },
        {
          "indexed": false,
          "internalType": "uint256",
          "name": "deadline",
          "type": "uint256"
        }
      ],
      "name": "ProjectCreated",
      "type": "event"
    },
    {
      "inputs": [
        {
          "internalType": "uint256",
          "name": "",
          "type": "uint256"
        },
        {
          "internalType": "address",
          "name": "",
          "type": "address"
        }
      ],
      "name": "contributions",
      "outputs": [
        {
          "internalType": "uint256",
          "name": "",
          "type": "uint256"
        }
      ],
      "stateMutability": "view",
      "type": "function",
      "constant": true
    },
    {
      "inputs": [],
      "name": "projectCount",
      "outputs": [
        {
          "internalType": "uint256",
          "name": "",
          "type": "uint256"
        }
      ],
      "stateMutability": "view",
      "type": "function",
      "constant": true
    },
    {
      "inputs": [
        {
          "internalType": "uint256",
          "name": "",
          "type": "uint256"
        }
      ],
      "name": "projects",
      "outputs": [
        {
          "internalType": "uint256",
          "name": "id",
          "type": "uint256"
        },
        {
          "internalType": "string",
          "name": "title",
          "type": "string"
        },
        {
          "internalType": "string",
          "name": "description",
          "type": "string"
        },
        {
          "internalType": "uint256",
          "name": "fundingGoal",
          "type": "uint256"
        },
        {
          "internalType": "uint256",
          "name": "totalFunds",
          "type": "uint256"
        },
        {
          "internalType": "address payable",
          "name": "creator",
          "type": "address"
        },
        {
          "internalType": "bool",
          "name": "isOpen",
          "type": "bool"
        },
        {
          "internalType": "uint256",
          "name": "deadline",
          "type": "uint256"
        }
      ],
      "stateMutability": "view",
      "type": "function",
      "constant": true
    },
    {
      "inputs": [
        {
          "internalType": "string",
          "name": "_title",
          "type": "string"
        },
        {
          "internalType": "string",
          "name": "_description",
          "type": "string"
        },
        {
          "internalType": "uint256",
          "name": "_fundingGoal",
          "type": "uint256"
        },
        {
          "internalType": "uint256",
          "name": "_deadline",
          "type": "uint256"
        }
      ],
      "name": "createProject",
      "outputs": [],
      "stateMutability": "nonpayable",
      "type": "function"
    },
    {
      "inputs": [
        {
          "internalType": "uint256",
          "name": "_id",
          "type": "uint256"
        }
      ],
      "name": "fundProject",
      "outputs": [],
      "stateMutability": "payable",
      "type": "function",
      "payable": true
    },
    {
      "inputs": [
        {
          "internalType": "uint256",
          "name": "_id",
          "type": "uint256"
        }
      ],
      "name": "withdrawFunds",
      "outputs": [],
      "stateMutability": "nonpayable",
      "type": "function"
    }
  ],
  "bytecode": "0x60806040526000805534801561001457600080fd5b5061148c806100246000396000f3fe6080604052600436106100555760003560e01c8063107046bd1461005a578063155dd5ee1461009e57806336fbad26146100c75780633d891f59146100f25780636c563abe1461012f57806394ba97091461014b575b600080fd5b34801561006657600080fd5b50610081600480360381019061007c9190610b87565b610174565b60405161009598979695949392919061109f565b60405180910390f35b3480156100aa57600080fd5b506100c560048036038101906100c09190610b87565b6102f9565b005b3480156100d357600080fd5b506100dc610517565b6040516100e99190611084565b60405180910390f35b3480156100fe57600080fd5b5061011960048036038101906101149190610bb0565b61051d565b6040516101269190611084565b60405180910390f35b61014960048036038101906101449190610b87565b610542565b005b34801561015757600080fd5b50610172600480360381019061016d9190610af4565b610709565b005b600160205280600052604060002060009150905080600001549080600101805461019d9061130f565b80601f01602080910402602001604051908101604052809291908181526020018280546101c99061130f565b80156102165780601f106101eb57610100808354040283529160200191610216565b820191906000526020600020905b8154815290600101906020018083116101f957829003601f168201915b50505050509080600201805461022b9061130f565b80601f01602080910402602001604051908101604052809291908181526020018280546102579061130f565b80156102a45780601f10610279576101008083540402835291602001916102a4565b820191906000526020600020905b81548152906001019060200180831161028757829003601f168201915b5050505050908060030154908060040154908060050160009054906101000a900473ffffffffffffffffffffffffffffffffffffffff16908060050160149054906101000a900460ff16908060060154905088565b60006001600083815260200190815260200160002090508060050160009054906101000a900473ffffffffffffffffffffffffffffffffffffffff1673ffffffffffffffffffffffffffffffffffffffff163373ffffffffffffffffffffffffffffffffffffffff16146103a2576040517f08c379a000000000000000000000000000000000000000000000000000000000815260040161039990610f64565b60405180910390fd5b8060030154816004015410156103ed576040517f08c379a00000000000000000000000000000000000000000000000000000000081526004016103e490610f44565b60405180910390fd5b8060050160149054906101000a900460ff1661043e576040517f08c379a000000000000000000000000000000000000000000000000000000000815260040161043590611024565b60405180910390fd5b6000816004015490506000826004018190555060008260050160146101000a81548160ff0219169083151502179055508160050160009054906101000a900473ffffffffffffffffffffffffffffffffffffffff1673ffffffffffffffffffffffffffffffffffffffff166108fc829081150290604051600060405180830381858888f193505050501580156104d8573d6000803e3d6000fd5b507fd66662c0ded9e58fd31d5e44944bcfd07ffc15e6927ecc1382e7941cb7bd24c4838260405161050a929190611177565b60405180910390a1505050565b60005481565b6002602052816000526040600020602052806000526040600020600091509150505481565b60006001600083815260200190815260200160002090508060050160149054906101000a900460ff166105aa576040517f08c379a00000000000000000000000000000000000000000000000000000000081526004016105a190610f84565b60405180910390fd5b806006015442106105f0576040517f08c379a00000000000000000000000000000000000000000000000000000000081526004016105e790610fc4565b60405180910390fd5b60003411610633576040517f08c379a000000000000000000000000000000000000000000000000000000000815260040161062a90611004565b60405180910390fd5b34816004016000828254610647919061121d565b92505081905550346002600084815260200190815260200160002060003373ffffffffffffffffffffffffffffffffffffffff1673ffffffffffffffffffffffffffffffffffffffff16815260200190815260200160002060008282546106ae919061121d565b925050819055503373ffffffffffffffffffffffffffffffffffffffff167f38c48552690c96ec2872092ac1db6c19fb59f5a8c5b49bbf41ed4886d0ca692683346040516106fd929190611177565b60405180910390a25050565b600084511161074d576040517f08c379a000000000000000000000000000000000000000000000000000000000815260040161074490610fe4565b60405180910390fd5b6000835111610791576040517f08c379a000000000000000000000000000000000000000000000000000000000815260040161078890611064565b60405180910390fd5b600082116107d4576040517f08c379a00000000000000000000000000000000000000000000000000000000081526004016107cb90610fa4565b60405180910390fd5b428111610816576040517f08c379a000000000000000000000000000000000000000000000000000000000815260040161080d90611044565b60405180910390fd5b60008081548092919061082890611341565b91905055506040518061010001604052806000548152602001858152602001848152602001838152602001600081526020013373ffffffffffffffffffffffffffffffffffffffff1681526020016001151581526020018281525060016000805481526020019081526020016000206000820151816000015560208201518160010190805190602001906108bd9291906109bf565b5060408201518160020190805190602001906108da9291906109bf565b50606082015181600301556080820151816004015560a08201518160050160006101000a81548173ffffffffffffffffffffffffffffffffffffffff021916908373ffffffffffffffffffffffffffffffffffffffff16021790555060c08201518160050160146101000a81548160ff02191690831515021790555060e082015181600601559050503373ffffffffffffffffffffffffffffffffffffffff167f483013d4a1d5e8ba43089bda8f1a92b959e32d6fc582556f800267dd809e58936000548685856040516109b1949392919061112b565b60405180910390a250505050565b8280546109cb9061130f565b90600052602060002090601f0160209004810192826109ed5760008555610a34565b82601f10610a0657805160ff1916838001178555610a34565b82800160010185558215610a34579182015b82811115610a33578251825591602001919060010190610a18565b5b509050610a419190610a45565b5090565b5b80821115610a5e576000816000905550600101610a46565b5090565b6000610a75610a70846111d1565b6111a0565b905082815260208101848484011115610a8d57600080fd5b610a988482856112cd565b509392505050565b600081359050610aaf81611428565b92915050565b600082601f830112610ac657600080fd5b8135610ad6848260208601610a62565b91505092915050565b600081359050610aee8161143f565b92915050565b60008060008060808587031215610b0a57600080fd5b600085013567ffffffffffffffff811115610b2457600080fd5b610b3087828801610ab5565b945050602085013567ffffffffffffffff811115610b4d57600080fd5b610b5987828801610ab5565b9350506040610b6a87828801610adf565b9250506060610b7b87828801610adf565b91505092959194509250565b600060208284031215610b9957600080fd5b6000610ba784828501610adf565b91505092915050565b60008060408385031215610bc357600080fd5b6000610bd185828601610adf565b9250506020610be285828601610aa0565b9150509250929050565b610bf581611285565b82525050565b610c0481611297565b82525050565b6000610c1582611201565b610c1f818561120c565b9350610c2f8185602086016112dc565b610c3881611417565b840191505092915050565b6000610c5060188361120c565b91507f46756e64696e6720676f616c206e6f74207265616368656400000000000000006000830152602082019050919050565b6000610c90601f8361120c565b91507f4f6e6c792063726561746f722063616e2077697468647261772066756e6473006000830152602082019050919050565b6000610cd0601f8361120c565b91507f50726f6a656374206973206e6f74206f70656e20666f722066756e64696e67006000830152602082019050919050565b6000610d1060268361120c565b91507f46756e64696e6720676f616c206d75737420626520677265617465722074686160008301527f6e207a65726f00000000000000000000000000000000000000000000000000006020830152604082019050919050565b6000610d7660238361120c565b91507f50726f6a6563742066756e64696e6720646561646c696e65206861732070617360008301527f73656400000000000000000000000000000000000000000000000000000000006020830152604082019050919050565b6000610ddc60118361120c565b91507f5469746c652069732072657175697265640000000000000000000000000000006000830152602082019050919050565b6000610e1c60268361120c565b91507f436f6e747269627574696f6e206d75737420626520677265617465722074686160008301527f6e207a65726f00000000000000000000000000000000000000000000000000006020830152604082019050919050565b6000610e8260198361120c565b91507f50726f6a65637420697320616c726561647920636c6f736564000000000000006000830152602082019050919050565b6000610ec2601e8361120c565b91507f446561646c696e65206d75737420626520696e207468652066757475726500006000830152602082019050919050565b6000610f0260178361120c565b91507f4465736372697074696f6e2069732072657175697265640000000000000000006000830152602082019050919050565b610f3e816112c3565b82525050565b60006020820190508181036000830152610f5d81610c43565b9050919050565b60006020820190508181036000830152610f7d81610c83565b9050919050565b60006020820190508181036000830152610f9d81610cc3565b9050919050565b60006020820190508181036000830152610fbd81610d03565b9050919050565b60006020820190508181036000830152610fdd81610d69565b9050919050565b60006020820190508181036000830152610ffd81610dcf565b9050919050565b6000602082019050818103600083015261101d81610e0f565b9050919050565b6000602082019050818103600083015261103d81610e75565b9050919050565b6000602082019050818103600083015261105d81610eb5565b9050919050565b6000602082019050818103600083015261107d81610ef5565b9050919050565b60006020820190506110996000830184610f35565b92915050565b6000610100820190506110b5600083018b610f35565b81810360208301526110c7818a610c0a565b905081810360408301526110db8189610c0a565b90506110ea6060830188610f35565b6110f76080830187610f35565b61110460a0830186610bec565b61111160c0830185610bfb565b61111e60e0830184610f35565b9998505050505050505050565b60006080820190506111406000830187610f35565b81810360208301526111528186610c0a565b90506111616040830185610f35565b61116e6060830184610f35565b95945050505050565b600060408201905061118c6000830185610f35565b6111996020830184610f35565b9392505050565b6000604051905081810181811067ffffffffffffffff821117156111c7576111c66113e8565b5b8060405250919050565b600067ffffffffffffffff8211156111ec576111eb6113e8565b5b601f19601f8301169050602081019050919050565b600081519050919050565b600082825260208201905092915050565b6000611228826112c3565b9150611233836112c3565b9250827fffffffffffffffffffffffffffffffffffffffffffffffffffffffffffffffff038211156112685761126761138a565b5b828201905092915050565b600061127e826112a3565b9050919050565b6000611290826112a3565b9050919050565b60008115159050919050565b600073ffffffffffffffffffffffffffffffffffffffff82169050919050565b6000819050919050565b82818337600083830152505050565b60005b838110156112fa5780820151818401526020810190506112df565b83811115611309576000848401525b50505050565b6000600282049050600182168061132757607f821691505b6020821081141561133b5761133a6113b9565b5b50919050565b600061134c826112c3565b91507fffffffffffffffffffffffffffffffffffffffffffffffffffffffffffffffff82141561137f5761137e61138a565b5b600182019050919050565b7f4e487b7100000000000000000000000000000000000000000000000000000000600052601160045260246000fd5b7f4e487b7100000000000000000000000000000000000000000000000000000000600052602260045260246000fd5b7f4e487b7100000000000000000000000000000000000000000000000000000000600052604160045260246000fd5b6000601f19601f8301169050919050565b61143181611273565b811461143c57600080fd5b50565b611448816112c3565b811461145357600080fd5b5056fea2646970667358221220835b31dee53961449724fea40d124d13809f592c0a7fd3236829497f675da9b764736f6c63430008000033",
  "immutableReferences": {},
  "source": "// SPDX-License-Identifier: MIT\r\npragma solidity ^0.8.0;\r\n\r\ncontract Crowdfunding {\r\n    struct Project {\r\n        uint256 id;\r\n        string title;\r\n        string description;\r\n        uint256 fundingGoal;\r\n        uint256 totalFunds;\r\n        address payable creator;\r\n        bool isOpen;\r\n        uint256 deadline; // New field for deadline (timestamp)\r\n    }\r\n\r\n    uint256 public projectCount = 0;\r\n    mapping(uint256 => Project) public projects;\r\n    mapping(uint256 => mapping(address => uint256)) public contributions;\r\n\r\n    event ProjectCreated(\r\n        uint256 id,\r\n        address indexed creator,\r\n        string title,\r\n        uint256 fundingGoal,\r\n        uint256 deadline\r\n    );\r\n\r\n    event Funded(\r\n        uint256 id,\r\n        address indexed contributor,\r\n        uint256 amount\r\n    );\r\n\r\n    event FundsWithdrawn(\r\n        uint256 id,\r\n        uint256 amount\r\n    );\r\n\r\n    function createProject(\r\n        string memory _title,\r\n        string memory _description,\r\n        uint256 _fundingGoal,\r\n        uint256 _deadline\r\n    ) public {\r\n        require(bytes(_title).length > 0, \"Title is required\");\r\n        require(bytes(_description).length > 0, \"Description is required\");\r\n        require(_fundingGoal > 0, \"Funding goal must be greater than zero\");\r\n        require(_deadline > block.timestamp, \"Deadline must be in the future\");\r\n\r\n        projectCount++;\r\n        projects[projectCount] = Project(\r\n            projectCount,\r\n            _title,\r\n            _description,\r\n            _fundingGoal,\r\n            0,\r\n            payable(msg.sender),\r\n            true,\r\n            _deadline\r\n        );\r\n\r\n        emit ProjectCreated(projectCount, msg.sender, _title, _fundingGoal, _deadline);\r\n    }\r\n\r\n    function fundProject(uint256 _id) public payable {\r\n        Project storage project = projects[_id];\r\n        require(project.isOpen, \"Project is not open for funding\");\r\n        require(block.timestamp < project.deadline, \"Project funding deadline has passed\");\r\n        require(msg.value > 0, \"Contribution must be greater than zero\");\r\n\r\n        project.totalFunds += msg.value;\r\n        contributions[_id][msg.sender] += msg.value;\r\n\r\n        emit Funded(_id, msg.sender, msg.value);\r\n    }\r\n\r\n    function withdrawFunds(uint256 _id) public {\r\n        Project storage project = projects[_id];\r\n        require(msg.sender == project.creator, \"Only creator can withdraw funds\");\r\n        require(project.totalFunds >= project.fundingGoal, \"Funding goal not reached\");\r\n        require(project.isOpen, \"Project is already closed\");\r\n\r\n        uint256 amount = project.totalFunds;\r\n        project.totalFunds = 0;\r\n        project.isOpen = false;\r\n\r\n        project.creator.transfer(amount);\r\n\r\n        emit FundsWithdrawn(_id, amount);\r\n    }\r\n}\r\n",
  "sourcePath": "D:\\adv blockchain project\\final term project\\decentralized-crowdfunding\\contracts\\Crowdfunding.sol",
  "compiler": {
    "name": "solc",
    "version": "0.8.0+commit.c7dfd78e.Emscripten.clang"
  },
  "schemaVersion": "3.4.16",
  "updatedAt": "2024-11-28T22:42:05.469Z",
  "networkType": "ethereum",
  "devdoc": {
    "kind": "dev",
    "methods": {},
    "version": 1
  },
  "userdoc": {
    "kind": "user",
    "methods": {},
    "version": 1
  }
}