{
  "contractName": "Crowdfunding",
  "abi": [
    {
      "anonymous": false,
      "inputs": [
        {
          "indexed": false,
          "internalType": "uint256",
          "name": "id",
          "type": "uint256"
        },
        {
          "indexed": true,
          "internalType": "address",
          "name": "contributor",
          "type": "address"
        },
        {
          "indexed": false,
          "internalType": "uint256",
          "name": "amount",
          "type": "uint256"
        },
        {
          "indexed": false,
          "internalType": "string",
          "name": "comment",
          "type": "string"
        }
      ],
      "name": "Funded",
      "type": "event"
    },
    {
      "anonymous": false,
      "inputs": [
        {
          "indexed": false,
          "internalType": "uint256",
          "name": "id",
          "type": "uint256"
        },
        {
          "indexed": false,
          "internalType": "uint256",
          "name": "amount",
          "type": "uint256"
        }
      ],
      "name": "FundsWithdrawn",
      "type": "event"
    },
    {
      "anonymous": false,
      "inputs": [
        {
          "indexed": false,
          "internalType": "uint256",
          "name": "id",
          "type": "uint256"
        },
        {
          "indexed": true,
          "internalType": "address",
          "name": "creator",
          "type": "address"
        },
        {
          "indexed": false,
          "internalType": "string",
          "name": "title",
          "type": "string"
        },
        {
          "indexed": false,
          "internalType": "uint256",
          "name": "fundingGoal",
          "type": "uint256"
        },
        {
          "indexed": false,
          "internalType": "uint256",
          "name": "deadline",
          "type": "uint256"
        }
      ],
      "name": "ProjectCreated",
      "type": "event"
    },
    {
      "inputs": [
        {
          "internalType": "uint256",
          "name": "",
          "type": "uint256"
        },
        {
          "internalType": "address",
          "name": "",
          "type": "address"
        }
      ],
      "name": "contributions",
      "outputs": [
        {
          "internalType": "uint256",
          "name": "",
          "type": "uint256"
        }
      ],
      "stateMutability": "view",
      "type": "function",
      "constant": true
    },
    {
      "inputs": [
        {
          "internalType": "uint256",
          "name": "",
          "type": "uint256"
        },
        {
          "internalType": "uint256",
          "name": "",
          "type": "uint256"
        }
      ],
      "name": "donations",
      "outputs": [
        {
          "internalType": "address",
          "name": "contributor",
          "type": "address"
        },
        {
          "internalType": "uint256",
          "name": "amount",
          "type": "uint256"
        },
        {
          "internalType": "string",
          "name": "comment",
          "type": "string"
        }
      ],
      "stateMutability": "view",
      "type": "function",
      "constant": true
    },
    {
      "inputs": [],
      "name": "multiSigApprover",
      "outputs": [
        {
          "internalType": "contract IMultiSigApprover",
          "name": "",
          "type": "address"
        }
      ],
      "stateMutability": "view",
      "type": "function",
      "constant": true
    },
    {
      "inputs": [],
      "name": "projectCount",
      "outputs": [
        {
          "internalType": "uint256",
          "name": "",
          "type": "uint256"
        }
      ],
      "stateMutability": "view",
      "type": "function",
      "constant": true
    },
    {
      "inputs": [
        {
          "internalType": "uint256",
          "name": "",
          "type": "uint256"
        }
      ],
      "name": "projects",
      "outputs": [
        {
          "internalType": "uint256",
          "name": "id",
          "type": "uint256"
        },
        {
          "internalType": "string",
          "name": "title",
          "type": "string"
        },
        {
          "internalType": "string",
          "name": "description",
          "type": "string"
        },
        {
          "internalType": "uint256",
          "name": "fundingGoal",
          "type": "uint256"
        },
        {
          "internalType": "uint256",
          "name": "totalFunds",
          "type": "uint256"
        },
        {
          "internalType": "address payable",
          "name": "creator",
          "type": "address"
        },
        {
          "internalType": "bool",
          "name": "isOpen",
          "type": "bool"
        },
        {
          "internalType": "uint256",
          "name": "deadline",
          "type": "uint256"
        },
        {
          "internalType": "uint8",
          "name": "milestonesClaimed",
          "type": "uint8"
        }
      ],
      "stateMutability": "view",
      "type": "function",
      "constant": true
    },
    {
      "inputs": [
        {
          "internalType": "address",
          "name": "_approver",
          "type": "address"
        }
      ],
      "name": "setMultiSigApprover",
      "outputs": [],
      "stateMutability": "nonpayable",
      "type": "function"
    },
    {
      "inputs": [
        {
          "internalType": "string",
          "name": "_title",
          "type": "string"
        },
        {
          "internalType": "string",
          "name": "_description",
          "type": "string"
        },
        {
          "internalType": "uint256",
          "name": "_fundingGoal",
          "type": "uint256"
        },
        {
          "internalType": "uint256",
          "name": "_deadline",
          "type": "uint256"
        }
      ],
      "name": "createProject",
      "outputs": [],
      "stateMutability": "nonpayable",
      "type": "function"
    },
    {
      "inputs": [
        {
          "internalType": "uint256",
          "name": "_id",
          "type": "uint256"
        },
        {
          "internalType": "string",
          "name": "_comment",
          "type": "string"
        }
      ],
      "name": "fundProject",
      "outputs": [],
      "stateMutability": "payable",
      "type": "function",
      "payable": true
    },
    {
      "inputs": [
        {
          "internalType": "uint256",
          "name": "_id",
          "type": "uint256"
        }
      ],
      "name": "withdrawFunds",
      "outputs": [],
      "stateMutability": "nonpayable",
      "type": "function"
    },
    {
      "inputs": [
        {
          "internalType": "uint256",
          "name": "_id",
          "type": "uint256"
        }
      ],
      "name": "getDonations",
      "outputs": [
        {
          "components": [
            {
              "internalType": "address",
              "name": "contributor",
              "type": "address"
            },
            {
              "internalType": "uint256",
              "name": "amount",
              "type": "uint256"
            },
            {
              "internalType": "string",
              "name": "comment",
              "type": "string"
            }
          ],
          "internalType": "struct Crowdfunding.Donation[]",
          "name": "",
          "type": "tuple[]"
        }
      ],
      "stateMutability": "view",
      "type": "function",
      "constant": true
    },
    {
      "inputs": [],
      "name": "getApprovalStatus",
      "outputs": [
        {
          "internalType": "uint256",
          "name": "approvedCount",
          "type": "uint256"
        },
        {
          "internalType": "uint256",
          "name": "requiredApprovals",
          "type": "uint256"
        }
      ],
      "stateMutability": "view",
      "type": "function",
      "constant": true
    }
  ],
  "bytecode": "0x60806040526000805534801561001457600080fd5b506122d9806100246000396000f3fe60806040526004361061009c5760003560e01c806348f7b12e1161006457806348f7b12e14610193578063596d9ce2146101d25780637a3655151461020f5780638f9d5aa31461023a57806394ba970914610266578063ffb864131461028f5761009c565b8063107046bd146100a1578063155dd5ee146100e657806336fbad261461010f5780633d891f591461013a5780633e721abe14610177575b600080fd5b3480156100ad57600080fd5b506100c860048036038101906100c391906114e3565b6102b8565b6040516100dd99989796959493929190611d26565b60405180910390f35b3480156100f257600080fd5b5061010d600480360381019061010891906114e3565b610450565b005b34801561011b57600080fd5b506101246108c3565b6040516101319190611d0b565b60405180910390f35b34801561014657600080fd5b50610161600480360381019061015c9190611535565b6108c9565b60405161016e9190611d0b565b60405180910390f35b610191600480360381019061018c9190611571565b6108ee565b005b34801561019f57600080fd5b506101ba60048036038101906101b591906115c5565b610bc2565b6040516101c993929190611b10565b60405180910390f35b3480156101de57600080fd5b506101f960048036038101906101f491906114e3565b610cb1565b6040516102069190611b4e565b60405180910390f35b34801561021b57600080fd5b50610224610e15565b6040516102319190611b70565b60405180910390f35b34801561024657600080fd5b5061024f610e3b565b60405161025d929190611e0d565b60405180910390f35b34801561027257600080fd5b5061028d60048036038101906102889190611450565b610ee8565b005b34801561029b57600080fd5b506102b660048036038101906102b191906113fe565b6111ca565b005b60016020528060005260406000206000915090508060000154908060010180546102e1906120ec565b80601f016020809104026020016040519081016040528092919081815260200182805461030d906120ec565b801561035a5780601f1061032f5761010080835404028352916020019161035a565b820191906000526020600020905b81548152906001019060200180831161033d57829003601f168201915b50505050509080600201805461036f906120ec565b80601f016020809104026020016040519081016040528092919081815260200182805461039b906120ec565b80156103e85780601f106103bd576101008083540402835291602001916103e8565b820191906000526020600020905b8154815290600101906020018083116103cb57829003601f168201915b5050505050908060030154908060040154908060050160009054906101000a900473ffffffffffffffffffffffffffffffffffffffff16908060050160149054906101000a900460ff16908060060154908060070160009054906101000a900460ff16905089565b60006001600083815260200190815260200160002090508060050160009054906101000a900473ffffffffffffffffffffffffffffffffffffffff1673ffffffffffffffffffffffffffffffffffffffff163373ffffffffffffffffffffffffffffffffffffffff16146104f9576040517f08c379a00000000000000000000000000000000000000000000000000000000081526004016104f090611bab565b60405180910390fd5b600073ffffffffffffffffffffffffffffffffffffffff16600460009054906101000a900473ffffffffffffffffffffffffffffffffffffffff1673ffffffffffffffffffffffffffffffffffffffff16141561058b576040517f08c379a000000000000000000000000000000000000000000000000000000000815260040161058290611c0b565b60405180910390fd5b60008160030154905060006003826105a39190611fba565b905060006003836105b49190611fba565b905060008183856105c59190611feb565b6105cf9190611feb565b905060008560070160009054906101000a900460ff1690506000848760040154106105f957600190505b83856106059190611f64565b87600401541061061457600290505b8587600401541061062457600390505b8160ff168160ff161161066c576040517f08c379a000000000000000000000000000000000000000000000000000000000815260040161066390611b8b565b60405180910390fd5b60008290505b8160ff168160ff16101561077f57600460009054906101000a900473ffffffffffffffffffffffffffffffffffffffff1673ffffffffffffffffffffffffffffffffffffffff16637afda5738a836040518363ffffffff1660e01b81526004016106dd929190611e74565b60206040518083038186803b1580156106f557600080fd5b505afa158015610709573d6000803e3d6000fd5b505050506040513d601f19601f8201168201806040525081019061072d9190611427565b61076c576040517f08c379a000000000000000000000000000000000000000000000000000000000815260040161076390611ceb565b60405180910390fd5b808061077790612167565b915050610672565b506000808390505b8260ff168160ff1610156107f65760008160ff1614156107b45786826107ad9190611f64565b91506107e3565b60018160ff1614156107d35785826107cc9190611f64565b91506107e2565b84826107df9190611f64565b91505b5b80806107ee90612167565b915050610787565b50818860070160006101000a81548160ff021916908360ff1602179055508760050160009054906101000a900473ffffffffffffffffffffffffffffffffffffffff1673ffffffffffffffffffffffffffffffffffffffff166108fc829081150290604051600060405180830381858888f1935050505015801561087e573d6000803e3d6000fd5b507fd66662c0ded9e58fd31d5e44944bcfd07ffc15e6927ecc1382e7941cb7bd24c489826040516108b0929190611e0d565b60405180910390a1505050505050505050565b60005481565b6003602052816000526040600020602052806000526040600020600091509150505481565b60006001600084815260200190815260200160002090508060050160149054906101000a900460ff16610956576040517f08c379a000000000000000000000000000000000000000000000000000000000815260040161094d90611bcb565b60405180910390fd5b8060060154421061099c576040517f08c379a000000000000000000000000000000000000000000000000000000000815260040161099390611c2b565b60405180910390fd5b600034116109df576040517f08c379a00000000000000000000000000000000000000000000000000000000081526004016109d690611c8b565b60405180910390fd5b348160040160008282546109f39190611f64565b92505081905550346003600085815260200190815260200160002060003373ffffffffffffffffffffffffffffffffffffffff1673ffffffffffffffffffffffffffffffffffffffff1681526020019081526020016000206000828254610a5a9190611f64565b925050819055506002600084815260200190815260200160002060405180606001604052803373ffffffffffffffffffffffffffffffffffffffff16815260200134815260200184815250908060018154018082558091505060019003906000526020600020906003020160009091909190915060008201518160000160006101000a81548173ffffffffffffffffffffffffffffffffffffffff021916908373ffffffffffffffffffffffffffffffffffffffff160217905550602082015181600101556040820151816002019080519060200190610b3b92919061129f565b5050503373ffffffffffffffffffffffffffffffffffffffff167ffc0418dc9fde906ae69e1b2d0d6f1fa844f1c42aaee1b53b9dabf712a5bcdec0843485604051610b8893929190611e36565b60405180910390a28060030154816004015410610bbd5760008160050160146101000a81548160ff0219169083151502179055505b505050565b60026020528160005260406000208181548110610bde57600080fd5b9060005260206000209060030201600091509150508060000160009054906101000a900473ffffffffffffffffffffffffffffffffffffffff1690806001015490806002018054610c2e906120ec565b80601f0160208091040260200160405190810160405280929190818152602001828054610c5a906120ec565b8015610ca75780601f10610c7c57610100808354040283529160200191610ca7565b820191906000526020600020905b815481529060010190602001808311610c8a57829003601f168201915b5050505050905083565b606060026000838152602001908152602001600020805480602002602001604051908101604052809291908181526020016000905b82821015610e0a57838290600052602060002090600302016040518060600160405290816000820160009054906101000a900473ffffffffffffffffffffffffffffffffffffffff1673ffffffffffffffffffffffffffffffffffffffff1673ffffffffffffffffffffffffffffffffffffffff16815260200160018201548152602001600282018054610d79906120ec565b80601f0160208091040260200160405190810160405280929190818152602001828054610da5906120ec565b8015610df25780601f10610dc757610100808354040283529160200191610df2565b820191906000526020600020905b815481529060010190602001808311610dd557829003601f168201915b50505050508152505081526020019060010190610ce6565b505050509050919050565b600460009054906101000a900473ffffffffffffffffffffffffffffffffffffffff1681565b6000806000600460009054906101000a900473ffffffffffffffffffffffffffffffffffffffff1673ffffffffffffffffffffffffffffffffffffffff166399c1aadc6040518163ffffffff1660e01b815260040160206040518083038186803b158015610ea857600080fd5b505afa158015610ebc573d6000803e3d6000fd5b505050506040513d601f19601f82011682018060405250810190610ee0919061150c565b915091509091565b6000845111610f2c576040517f08c379a0000000000000000000000000000000000000000000000000000000008152600401610f2390611c6b565b60405180910390fd5b6000835111610f70576040517f08c379a0000000000000000000000000000000000000000000000000000000008152600401610f6790611ccb565b60405180910390fd5b60008211610fb3576040517f08c379a0000000000000000000000000000000000000000000000000000000008152600401610faa90611beb565b60405180910390fd5b428111610ff5576040517f08c379a0000000000000000000000000000000000000000000000000000000008152600401610fec90611cab565b60405180910390fd5b6000808154809291906110079061211e565b91905055506040518061012001604052806000548152602001858152602001848152602001838152602001600081526020013373ffffffffffffffffffffffffffffffffffffffff168152602001600115158152602001828152602001600060ff1681525060016000805481526020019081526020016000206000820151816000015560208201518160010190805190602001906110a692919061129f565b5060408201518160020190805190602001906110c392919061129f565b50606082015181600301556080820151816004015560a08201518160050160006101000a81548173ffffffffffffffffffffffffffffffffffffffff021916908373ffffffffffffffffffffffffffffffffffffffff16021790555060c08201518160050160146101000a81548160ff02191690831515021790555060e082015181600601556101008201518160070160006101000a81548160ff021916908360ff1602179055509050503373ffffffffffffffffffffffffffffffffffffffff167f483013d4a1d5e8ba43089bda8f1a92b959e32d6fc582556f800267dd809e58936000548685856040516111bc9493929190611dc1565b60405180910390a250505050565b600073ffffffffffffffffffffffffffffffffffffffff16600460009054906101000a900473ffffffffffffffffffffffffffffffffffffffff1673ffffffffffffffffffffffffffffffffffffffff161461125b576040517f08c379a000000000000000000000000000000000000000000000000000000000815260040161125290611c4b565b60405180910390fd5b80600460006101000a81548173ffffffffffffffffffffffffffffffffffffffff021916908373ffffffffffffffffffffffffffffffffffffffff16021790555050565b8280546112ab906120ec565b90600052602060002090601f0160209004810192826112cd5760008555611314565b82601f106112e657805160ff1916838001178555611314565b82800160010185558215611314579182015b828111156113135782518255916020019190600101906112f8565b5b5090506113219190611325565b5090565b5b8082111561133e576000816000905550600101611326565b5090565b600061135561135084611ece565b611e9d565b90508281526020810184848401111561136d57600080fd5b6113788482856120aa565b509392505050565b60008135905061138f8161225e565b92915050565b6000815190506113a481612275565b92915050565b600082601f8301126113bb57600080fd5b81356113cb848260208601611342565b91505092915050565b6000813590506113e38161228c565b92915050565b6000815190506113f88161228c565b92915050565b60006020828403121561141057600080fd5b600061141e84828501611380565b91505092915050565b60006020828403121561143957600080fd5b600061144784828501611395565b91505092915050565b6000806000806080858703121561146657600080fd5b600085013567ffffffffffffffff81111561148057600080fd5b61148c878288016113aa565b945050602085013567ffffffffffffffff8111156114a957600080fd5b6114b5878288016113aa565b93505060406114c6878288016113d4565b92505060606114d7878288016113d4565b91505092959194509250565b6000602082840312156114f557600080fd5b6000611503848285016113d4565b91505092915050565b60006020828403121561151e57600080fd5b600061152c848285016113e9565b91505092915050565b6000806040838503121561154857600080fd5b6000611556858286016113d4565b925050602061156785828601611380565b9150509250929050565b6000806040838503121561158457600080fd5b6000611592858286016113d4565b925050602083013567ffffffffffffffff8111156115af57600080fd5b6115bb858286016113aa565b9150509250929050565b600080604083850312156115d857600080fd5b60006115e6858286016113d4565b92505060206115f7858286016113d4565b9150509250929050565b600061160d8383611a93565b905092915050565b61161e81612031565b82525050565b61162d8161201f565b82525050565b61163c8161201f565b82525050565b600061164d82611f0e565b6116578185611f31565b93508360208202850161166985611efe565b8060005b858110156116a557848403895281516116868582611601565b945061169183611f24565b925060208a0199505060018101905061166d565b50829750879550505050505092915050565b6116c081612043565b82525050565b6116cf81612086565b82525050565b60006116e082611f19565b6116ea8185611f42565b93506116fa8185602086016120b9565b6117038161224d565b840191505092915050565b600061171982611f19565b6117238185611f53565b93506117338185602086016120b9565b61173c8161224d565b840191505092915050565b6000611754601a83611f53565b91507f4e6f206e657720696e6372656d656e747320756e6c6f636b65640000000000006000830152602082019050919050565b6000611794601f83611f53565b91507f4f6e6c792063726561746f722063616e2077697468647261772066756e6473006000830152602082019050919050565b60006117d4601f83611f53565b91507f50726f6a656374206973206e6f74206f70656e20666f722066756e64696e67006000830152602082019050919050565b6000611814602683611f53565b91507f46756e64696e6720676f616c206d75737420626520677265617465722074686160008301527f6e207a65726f00000000000000000000000000000000000000000000000000006020830152604082019050919050565b600061187a601083611f53565b91507f417070726f766572206e6f7420736574000000000000000000000000000000006000830152602082019050919050565b60006118ba601b83611f53565b91507f46756e64696e6720646561646c696e65206861732070617373656400000000006000830152602082019050919050565b60006118fa600b83611f53565b91507f416c7265616479207365740000000000000000000000000000000000000000006000830152602082019050919050565b600061193a601183611f53565b91507f5469746c652069732072657175697265640000000000000000000000000000006000830152602082019050919050565b600061197a602683611f53565b91507f436f6e747269627574696f6e206d75737420626520677265617465722074686160008301527f6e207a65726f00000000000000000000000000000000000000000000000000006020830152604082019050919050565b60006119e0601e83611f53565b91507f446561646c696e65206d75737420626520696e207468652066757475726500006000830152602082019050919050565b6000611a20601783611f53565b91507f4465736372697074696f6e2069732072657175697265640000000000000000006000830152602082019050919050565b6000611a60601b83611f53565b91507f4e6f7420616c6c20696e6372656d656e747320617070726f76656400000000006000830152602082019050919050565b6000606083016000830151611aab6000860182611624565b506020830151611abe6020860182611ae3565b5060408301518482036040860152611ad682826116d5565b9150508091505092915050565b611aec8161206f565b82525050565b611afb8161206f565b82525050565b611b0a81612079565b82525050565b6000606082019050611b256000830186611633565b611b326020830185611af2565b8181036040830152611b44818461170e565b9050949350505050565b60006020820190508181036000830152611b688184611642565b905092915050565b6000602082019050611b8560008301846116c6565b92915050565b60006020820190508181036000830152611ba481611747565b9050919050565b60006020820190508181036000830152611bc481611787565b9050919050565b60006020820190508181036000830152611be4816117c7565b9050919050565b60006020820190508181036000830152611c0481611807565b9050919050565b60006020820190508181036000830152611c248161186d565b9050919050565b60006020820190508181036000830152611c44816118ad565b9050919050565b60006020820190508181036000830152611c64816118ed565b9050919050565b60006020820190508181036000830152611c848161192d565b9050919050565b60006020820190508181036000830152611ca48161196d565b9050919050565b60006020820190508181036000830152611cc4816119d3565b9050919050565b60006020820190508181036000830152611ce481611a13565b9050919050565b60006020820190508181036000830152611d0481611a53565b9050919050565b6000602082019050611d206000830184611af2565b92915050565b600061012082019050611d3c600083018c611af2565b8181036020830152611d4e818b61170e565b90508181036040830152611d62818a61170e565b9050611d716060830189611af2565b611d7e6080830188611af2565b611d8b60a0830187611615565b611d9860c08301866116b7565b611da560e0830185611af2565b611db3610100830184611b01565b9a9950505050505050505050565b6000608082019050611dd66000830187611af2565b8181036020830152611de8818661170e565b9050611df76040830185611af2565b611e046060830184611af2565b95945050505050565b6000604082019050611e226000830185611af2565b611e2f6020830184611af2565b9392505050565b6000606082019050611e4b6000830186611af2565b611e586020830185611af2565b8181036040830152611e6a818461170e565b9050949350505050565b6000604082019050611e896000830185611af2565b611e966020830184611b01565b9392505050565b6000604051905081810181811067ffffffffffffffff82111715611ec457611ec361221e565b5b8060405250919050565b600067ffffffffffffffff821115611ee957611ee861221e565b5b601f19601f8301169050602081019050919050565b6000819050602082019050919050565b600081519050919050565b600081519050919050565b6000602082019050919050565b600082825260208201905092915050565b600082825260208201905092915050565b600082825260208201905092915050565b6000611f6f8261206f565b9150611f7a8361206f565b9250827fffffffffffffffffffffffffffffffffffffffffffffffffffffffffffffffff03821115611faf57611fae612191565b5b828201905092915050565b6000611fc58261206f565b9150611fd08361206f565b925082611fe057611fdf6121c0565b5b828204905092915050565b6000611ff68261206f565b91506120018361206f565b92508282101561201457612013612191565b5b828203905092915050565b600061202a8261204f565b9050919050565b600061203c8261204f565b9050919050565b60008115159050919050565b600073ffffffffffffffffffffffffffffffffffffffff82169050919050565b6000819050919050565b600060ff82169050919050565b600061209182612098565b9050919050565b60006120a38261204f565b9050919050565b82818337600083830152505050565b60005b838110156120d75780820151818401526020810190506120bc565b838111156120e6576000848401525b50505050565b6000600282049050600182168061210457607f821691505b60208210811415612118576121176121ef565b5b50919050565b60006121298261206f565b91507fffffffffffffffffffffffffffffffffffffffffffffffffffffffffffffffff82141561215c5761215b612191565b5b600182019050919050565b600061217282612079565b915060ff82141561218657612185612191565b5b600182019050919050565b7f4e487b7100000000000000000000000000000000000000000000000000000000600052601160045260246000fd5b7f4e487b7100000000000000000000000000000000000000000000000000000000600052601260045260246000fd5b7f4e487b7100000000000000000000000000000000000000000000000000000000600052602260045260246000fd5b7f4e487b7100000000000000000000000000000000000000000000000000000000600052604160045260246000fd5b6000601f19601f8301169050919050565b6122678161201f565b811461227257600080fd5b50565b61227e81612043565b811461228957600080fd5b50565b6122958161206f565b81146122a057600080fd5b5056fea26469706673582212203f45498e76a59171b21dd4cae376862ae9740d2788da5944b452fbbe48490a0b64736f6c63430008000033",
  "immutableReferences": {},
  "source": "// SPDX-License-Identifier: MIT\r\npragma solidity ^0.8.0;\r\n\r\ninterface IMultiSigApprover {\r\n    function requiredApprovals() external view returns (uint256);\r\n    function approveWithdrawalForMilestone(uint256 projectId, uint8 milestone) external;\r\n    function isApprovedForMilestone(uint256 projectId, uint8 milestone) external view returns (bool);\r\n    function isTrustedSigner(address signer) external view returns (bool);\r\n    function milestoneApprovals(uint256 projectId, uint8 milestone, address signer) external view returns (bool);\r\n}\r\n\r\ncontract Crowdfunding {\r\n    struct Project {\r\n        uint256 id;\r\n        string title;\r\n        string description;\r\n        uint256 fundingGoal; \r\n        uint256 totalFunds;  \r\n        address payable creator;\r\n        bool isOpen;\r\n        uint256 deadline;\r\n        uint8 milestonesClaimed; \r\n    }\r\n\r\n    struct Donation {\r\n        address contributor;\r\n        uint256 amount;   \r\n        string comment;\r\n    }\r\n\r\n    uint256 public projectCount = 0;\r\n    mapping(uint256 => Project) public projects;\r\n    mapping(uint256 => Donation[]) public donations; \r\n    mapping(uint256 => mapping(address => uint256)) public contributions;\r\n\r\n    IMultiSigApprover public multiSigApprover;\r\n\r\n    event ProjectCreated(uint256 id, address indexed creator, string title, uint256 fundingGoal, uint256 deadline);\r\n    event Funded(uint256 id, address indexed contributor, uint256 amount, string comment);\r\n    event FundsWithdrawn(uint256 id, uint256 amount);\r\n\r\n    function setMultiSigApprover(address _approver) public {\r\n        require(address(multiSigApprover) == address(0), \"Already set\");\r\n        multiSigApprover = IMultiSigApprover(_approver);\r\n    }\r\n\r\n    function createProject(\r\n        string memory _title,\r\n        string memory _description,\r\n        uint256 _fundingGoal,\r\n        uint256 _deadline\r\n    ) public {\r\n        require(bytes(_title).length > 0, \"Title is required\");\r\n        require(bytes(_description).length > 0, \"Description is required\");\r\n        require(_fundingGoal > 0, \"Funding goal must be greater than zero\");\r\n        require(_deadline > block.timestamp, \"Deadline must be in the future\");\r\n\r\n        projectCount++;\r\n        projects[projectCount] = Project(\r\n            projectCount,\r\n            _title,\r\n            _description,\r\n            _fundingGoal,\r\n            0,\r\n            payable(msg.sender),\r\n            true,\r\n            _deadline,\r\n            0\r\n        );\r\n\r\n        emit ProjectCreated(projectCount, msg.sender, _title, _fundingGoal, _deadline);\r\n    }\r\n\r\n    function fundProject(uint256 _id, string memory _comment) public payable {\r\n        Project storage project = projects[_id];\r\n        require(project.isOpen, \"Project is not open for funding\");\r\n        require(block.timestamp < project.deadline, \"Funding deadline has passed\");\r\n        require(msg.value > 0, \"Contribution must be greater than zero\");\r\n\r\n        project.totalFunds += msg.value;\r\n        contributions[_id][msg.sender] += msg.value;\r\n\r\n        donations[_id].push(Donation(msg.sender, msg.value, _comment));\r\n\r\n        emit Funded(_id, msg.sender, msg.value, _comment);\r\n\r\n        if (project.totalFunds >= project.fundingGoal) {\r\n            project.isOpen = false;\r\n        }\r\n    }\r\n\r\n    // Multiple increments logic:\r\n    // There are 3 increments total (0,1,2). \r\n    // Each milestone = 1/3 of fundingGoal except last which is remainder.\r\n    // If multiple increments unlocked at once, withdraw them all at once if all approved.\r\n\r\n    function withdrawFunds(uint256 _id) public {\r\n        Project storage project = projects[_id];\r\n        require(msg.sender == project.creator, \"Only creator can withdraw funds\");\r\n        require(address(multiSigApprover) != address(0), \"Approver not set\");\r\n\r\n        // Calculate how many increments unlocked\r\n        // increments: first two = fundingGoal/3 each, last = remainder\r\n        uint256 goal = project.fundingGoal;\r\n        uint256 g1 = goal / 3;\r\n        uint256 g2 = goal / 3;\r\n        uint256 g3 = goal - g1 - g2;\r\n\r\n        uint8 claimed = project.milestonesClaimed;\r\n        // how many increments are unlocked based on totalFunds\r\n        uint8 unlocked = 0;\r\n        if (project.totalFunds >= g1) unlocked = 1;\r\n        if (project.totalFunds >= g1+g2) unlocked = 2;\r\n        if (project.totalFunds >= goal) unlocked = 3;\r\n\r\n        require(unlocked > claimed, \"No new increments unlocked\");\r\n\r\n        // Check approvals for each increment from claimed to unlocked-1\r\n        for (uint8 m = claimed; m < unlocked; m++) {\r\n            require(multiSigApprover.isApprovedForMilestone(_id, m), \"Not all increments approved\");\r\n        }\r\n\r\n        // Withdraw all newly unlocked increments\r\n        uint256 amount = 0;\r\n        for (uint8 m = claimed; m < unlocked; m++) {\r\n            if (m == 0) amount += g1;\r\n            else if (m == 1) amount += g2;\r\n            else amount += g3;\r\n        }\r\n\r\n        project.milestonesClaimed = unlocked;\r\n        project.creator.transfer(amount);\r\n\r\n        emit FundsWithdrawn(_id, amount);\r\n    }\r\n\r\n    function getDonations(uint256 _id) public view returns (Donation[] memory) {\r\n        return donations[_id];\r\n    }\r\n\r\n    function getApprovalStatus() public view returns (uint256 approvedCount, uint256 requiredApprovals) {\r\n    // Returns dummy values since old logic is deprecated\r\n    return (0, multiSigApprover.requiredApprovals());\r\n}\r\n}\r\n",
  "sourcePath": "D:\\adv blockchain project\\final term project\\decentralized-crowdfunding\\contracts\\Crowdfunding.sol",
  "compiler": {
    "name": "solc",
    "version": "0.8.0+commit.c7dfd78e.Emscripten.clang"
  },
  "schemaVersion": "3.4.16",
  "updatedAt": "2024-12-11T02:00:32.131Z",
  "networkType": "ethereum",
  "devdoc": {
    "kind": "dev",
    "methods": {},
    "version": 1
  },
  "userdoc": {
    "kind": "user",
    "methods": {},
    "version": 1
  }
}