{
  "contractName": "MultiSigApprover",
  "abi": [
    {
      "inputs": [
        {
          "internalType": "address[]",
          "name": "_trustedSigners",
          "type": "address[]"
        },
        {
          "internalType": "uint256",
          "name": "_requiredApprovals",
          "type": "uint256"
        }
      ],
      "stateMutability": "nonpayable",
      "type": "constructor"
    },
    {
      "inputs": [
        {
          "internalType": "uint256",
          "name": "",
          "type": "uint256"
        },
        {
          "internalType": "address",
          "name": "",
          "type": "address"
        }
      ],
      "name": "approvals",
      "outputs": [
        {
          "internalType": "bool",
          "name": "",
          "type": "bool"
        }
      ],
      "stateMutability": "view",
      "type": "function",
      "constant": true
    },
    {
      "inputs": [],
      "name": "requiredApprovals",
      "outputs": [
        {
          "internalType": "uint256",
          "name": "",
          "type": "uint256"
        }
      ],
      "stateMutability": "view",
      "type": "function",
      "constant": true
    },
    {
      "inputs": [
        {
          "internalType": "uint256",
          "name": "",
          "type": "uint256"
        }
      ],
      "name": "trustedSigners",
      "outputs": [
        {
          "internalType": "address",
          "name": "",
          "type": "address"
        }
      ],
      "stateMutability": "view",
      "type": "function",
      "constant": true
    },
    {
      "inputs": [
        {
          "internalType": "uint256",
          "name": "projectId",
          "type": "uint256"
        }
      ],
      "name": "approveWithdrawal",
      "outputs": [],
      "stateMutability": "nonpayable",
      "type": "function"
    },
    {
      "inputs": [
        {
          "internalType": "uint256",
          "name": "projectId",
          "type": "uint256"
        }
      ],
      "name": "isApproved",
      "outputs": [
        {
          "internalType": "bool",
          "name": "",
          "type": "bool"
        }
      ],
      "stateMutability": "view",
      "type": "function",
      "constant": true
    },
    {
      "inputs": [
        {
          "internalType": "address",
          "name": "signer",
          "type": "address"
        }
      ],
      "name": "isTrustedSigner",
      "outputs": [
        {
          "internalType": "bool",
          "name": "",
          "type": "bool"
        }
      ],
      "stateMutability": "view",
      "type": "function",
      "constant": true
    },
    {
      "inputs": [
        {
          "internalType": "uint256",
          "name": "projectId",
          "type": "uint256"
        }
      ],
      "name": "getApprovals",
      "outputs": [
        {
          "internalType": "uint256",
          "name": "",
          "type": "uint256"
        }
      ],
      "stateMutability": "view",
      "type": "function",
      "constant": true
    }
  ],
  "bytecode": "0x60806040523480156200001157600080fd5b5060405162000b9f38038062000b9f833981810160405281019062000037919062000224565b80825110156200007e576040517f08c379a00000000000000000000000000000000000000000000000000000000081526004016200007590620002c0565b60405180910390fd5b816000908051906020019062000096929190620000a6565b50806002819055505050620003f7565b82805482825590600052602060002090810192821562000122579160200282015b82811115620001215782518260006101000a81548173ffffffffffffffffffffffffffffffffffffffff021916908373ffffffffffffffffffffffffffffffffffffffff16021790555091602001919060010190620000c7565b5b50905062000131919062000135565b5090565b5b808211156200015057600081600090555060010162000136565b5090565b60006200016b620001658462000316565b620002e2565b905080838252602082019050828560208602820111156200018b57600080fd5b60005b85811015620001bf5781620001a48882620001c9565b8452602084019350602083019250506001810190506200018e565b5050509392505050565b600081519050620001da81620003c3565b92915050565b600082601f830112620001f257600080fd5b81516200020484826020860162000154565b91505092915050565b6000815190506200021e81620003dd565b92915050565b600080604083850312156200023857600080fd5b600083015167ffffffffffffffff8111156200025357600080fd5b6200026185828601620001e0565b925050602062000274858286016200020d565b9150509250929050565b60006200028d60128362000345565b91507f4e6f7420656e6f756768207369676e65727300000000000000000000000000006000830152602082019050919050565b60006020820190508181036000830152620002db816200027e565b9050919050565b6000604051905081810181811067ffffffffffffffff821117156200030c576200030b62000394565b5b8060405250919050565b600067ffffffffffffffff82111562000334576200033362000394565b5b602082029050602081019050919050565b600082825260208201905092915050565b600062000363826200036a565b9050919050565b600073ffffffffffffffffffffffffffffffffffffffff82169050919050565b6000819050919050565b7f4e487b7100000000000000000000000000000000000000000000000000000000600052604160045260246000fd5b620003ce8162000356565b8114620003da57600080fd5b50565b620003e8816200038a565b8114620003f457600080fd5b50565b61079880620004076000396000f3fe608060405234801561001057600080fd5b506004361061007d5760003560e01c80639f2d471a1161005b5780639f2d471a146100ec578063a4e360c81461011c578063ab2850da1461014c578063d3d921271461017c5761007d565b80637910867b1461008257806399c1aadc146100b25780639eceddea146100d0575b600080fd5b61009c60048036038101906100979190610520565b6101ac565b6040516100a9919061060d565b60405180910390f35b6100ba6101c8565b6040516100c79190610648565b60405180910390f35b6100ea60048036038101906100e59190610520565b6101ce565b005b61010660048036038101906101019190610520565b610281565b60405161011391906105f2565b60405180910390f35b61013660048036038101906101319190610520565b6102c0565b6040516101439190610648565b60405180910390f35b61016660048036038101906101619190610549565b6103c9565b604051610173919061060d565b60405180910390f35b610196600480360381019061019191906104f7565b6103f8565b6040516101a3919061060d565b60405180910390f35b6000806101b8836102c0565b9050600254811015915050919050565b60025481565b6101d7336103f8565b610216576040517f08c379a000000000000000000000000000000000000000000000000000000000815260040161020d90610628565b60405180910390fd5b600180600083815260200190815260200160002060003373ffffffffffffffffffffffffffffffffffffffff1673ffffffffffffffffffffffffffffffffffffffff16815260200190815260200160002060006101000a81548160ff02191690831515021790555050565b6000818154811061029157600080fd5b906000526020600020016000915054906101000a900473ffffffffffffffffffffffffffffffffffffffff1681565b6000806000905060005b6000805490508110156103bf57600160008581526020019081526020016000206000808381548110610325577f4e487b7100000000000000000000000000000000000000000000000000000000600052603260045260246000fd5b9060005260206000200160009054906101000a900473ffffffffffffffffffffffffffffffffffffffff1673ffffffffffffffffffffffffffffffffffffffff1673ffffffffffffffffffffffffffffffffffffffff16815260200190815260200160002060009054906101000a900460ff16156103ac5781806103a8906106bc565b9250505b80806103b7906106bc565b9150506102ca565b5080915050919050565b60016020528160005260406000206020528060005260406000206000915091509054906101000a900460ff1681565b600080600090505b6000805490508110156104c2578273ffffffffffffffffffffffffffffffffffffffff166000828154811061045e577f4e487b7100000000000000000000000000000000000000000000000000000000600052603260045260246000fd5b9060005260206000200160009054906101000a900473ffffffffffffffffffffffffffffffffffffffff1673ffffffffffffffffffffffffffffffffffffffff1614156104af5760019150506104c8565b80806104ba906106bc565b915050610400565b50600090505b919050565b6000813590506104dc81610734565b92915050565b6000813590506104f18161074b565b92915050565b60006020828403121561050957600080fd5b6000610517848285016104cd565b91505092915050565b60006020828403121561053257600080fd5b6000610540848285016104e2565b91505092915050565b6000806040838503121561055c57600080fd5b600061056a858286016104e2565b925050602061057b858286016104cd565b9150509250929050565b61058e81610674565b82525050565b61059d81610686565b82525050565b60006105b0601483610663565b91507f4e6f7420612074727573746564207369676e65720000000000000000000000006000830152602082019050919050565b6105ec816106b2565b82525050565b60006020820190506106076000830184610585565b92915050565b60006020820190506106226000830184610594565b92915050565b60006020820190508181036000830152610641816105a3565b9050919050565b600060208201905061065d60008301846105e3565b92915050565b600082825260208201905092915050565b600061067f82610692565b9050919050565b60008115159050919050565b600073ffffffffffffffffffffffffffffffffffffffff82169050919050565b6000819050919050565b60006106c7826106b2565b91507fffffffffffffffffffffffffffffffffffffffffffffffffffffffffffffffff8214156106fa576106f9610705565b5b600182019050919050565b7f4e487b7100000000000000000000000000000000000000000000000000000000600052601160045260246000fd5b61073d81610674565b811461074857600080fd5b50565b610754816106b2565b811461075f57600080fd5b5056fea2646970667358221220ae1f9da537a7f19ad1e44b8e2d92f5fef4cc7c671ae01ee1c6b34282d258de6664736f6c63430008000033",
  "immutableReferences": {},
  "source": "// SPDX-License-Identifier: MIT\r\npragma solidity ^0.8.0;\r\n\r\ncontract MultiSigApprover {\r\n    address[] public trustedSigners;\r\n    mapping(uint256 => mapping(address => bool)) public approvals;\r\n    uint256 public requiredApprovals;\r\n\r\n    constructor(address[] memory _trustedSigners, uint256 _requiredApprovals) {\r\n        require(_trustedSigners.length >= _requiredApprovals, \"Not enough signers\");\r\n        trustedSigners = _trustedSigners;\r\n        requiredApprovals = _requiredApprovals;\r\n    }\r\n\r\n    function approveWithdrawal(uint256 projectId) public {\r\n        require(isTrustedSigner(msg.sender), \"Not a trusted signer\");\r\n        approvals[projectId][msg.sender] = true;\r\n    }\r\n\r\n    function isApproved(uint256 projectId) public view returns (bool) {\r\n        uint256 count = getApprovals(projectId);\r\n        return count >= requiredApprovals;\r\n    }\r\n\r\n    function isTrustedSigner(address signer) public view returns (bool) {\r\n        for (uint256 i = 0; i < trustedSigners.length; i++) {\r\n            if (trustedSigners[i] == signer) {\r\n                return true;\r\n            }\r\n        }\r\n        return false;\r\n    }\r\n\r\n    function getApprovals(uint256 projectId) public view returns (uint256) {\r\n        uint256 count = 0;\r\n        for (uint256 i = 0; i < trustedSigners.length; i++) {\r\n            if (approvals[projectId][trustedSigners[i]]) {\r\n                count++;\r\n            }\r\n        }\r\n        return count;\r\n    }\r\n}\r\n",
  "sourcePath": "D:\\adv blockchain project\\final term project\\decentralized-crowdfunding\\contracts\\MultiSigApprover.sol",
  "compiler": {
    "name": "solc",
    "version": "0.8.0+commit.c7dfd78e.Emscripten.clang"
  },
  "schemaVersion": "3.4.16",
  "updatedAt": "2024-12-09T01:03:48.530Z",
  "networkType": "ethereum",
  "devdoc": {
    "kind": "dev",
    "methods": {},
    "version": 1
  },
  "userdoc": {
    "kind": "user",
    "methods": {},
    "version": 1
  }
}