{
  "contractName": "MultiSigApprover",
  "abi": [
    {
      "inputs": [
        {
          "internalType": "address[]",
          "name": "_trustedSigners",
          "type": "address[]"
        },
        {
          "internalType": "uint256",
          "name": "_requiredApprovals",
          "type": "uint256"
        }
      ],
      "stateMutability": "nonpayable",
      "type": "constructor"
    },
    {
      "inputs": [
        {
          "internalType": "uint256",
          "name": "",
          "type": "uint256"
        },
        {
          "internalType": "uint8",
          "name": "",
          "type": "uint8"
        },
        {
          "internalType": "address",
          "name": "",
          "type": "address"
        }
      ],
      "name": "milestoneApprovals",
      "outputs": [
        {
          "internalType": "bool",
          "name": "",
          "type": "bool"
        }
      ],
      "stateMutability": "view",
      "type": "function",
      "constant": true
    },
    {
      "inputs": [],
      "name": "requiredApprovals",
      "outputs": [
        {
          "internalType": "uint256",
          "name": "",
          "type": "uint256"
        }
      ],
      "stateMutability": "view",
      "type": "function",
      "constant": true
    },
    {
      "inputs": [
        {
          "internalType": "uint256",
          "name": "",
          "type": "uint256"
        }
      ],
      "name": "trustedSigners",
      "outputs": [
        {
          "internalType": "address",
          "name": "",
          "type": "address"
        }
      ],
      "stateMutability": "view",
      "type": "function",
      "constant": true
    },
    {
      "inputs": [
        {
          "internalType": "uint256",
          "name": "projectId",
          "type": "uint256"
        },
        {
          "internalType": "uint8",
          "name": "milestone",
          "type": "uint8"
        }
      ],
      "name": "approveWithdrawalForMilestone",
      "outputs": [],
      "stateMutability": "nonpayable",
      "type": "function"
    },
    {
      "inputs": [
        {
          "internalType": "uint256",
          "name": "projectId",
          "type": "uint256"
        },
        {
          "internalType": "uint8",
          "name": "milestone",
          "type": "uint8"
        }
      ],
      "name": "isApprovedForMilestone",
      "outputs": [
        {
          "internalType": "bool",
          "name": "",
          "type": "bool"
        }
      ],
      "stateMutability": "view",
      "type": "function",
      "constant": true
    },
    {
      "inputs": [
        {
          "internalType": "address",
          "name": "signer",
          "type": "address"
        }
      ],
      "name": "isTrustedSigner",
      "outputs": [
        {
          "internalType": "bool",
          "name": "",
          "type": "bool"
        }
      ],
      "stateMutability": "view",
      "type": "function",
      "constant": true
    }
  ],
  "bytecode": "0x60806040523480156200001157600080fd5b5060405162000c0338038062000c03833981810160405281019062000037919062000224565b80825110156200007e576040517f08c379a00000000000000000000000000000000000000000000000000000000081526004016200007590620002c0565b60405180910390fd5b816000908051906020019062000096929190620000a6565b50806001819055505050620003f7565b82805482825590600052602060002090810192821562000122579160200282015b82811115620001215782518260006101000a81548173ffffffffffffffffffffffffffffffffffffffff021916908373ffffffffffffffffffffffffffffffffffffffff16021790555091602001919060010190620000c7565b5b50905062000131919062000135565b5090565b5b808211156200015057600081600090555060010162000136565b5090565b60006200016b620001658462000316565b620002e2565b905080838252602082019050828560208602820111156200018b57600080fd5b60005b85811015620001bf5781620001a48882620001c9565b8452602084019350602083019250506001810190506200018e565b5050509392505050565b600081519050620001da81620003c3565b92915050565b600082601f830112620001f257600080fd5b81516200020484826020860162000154565b91505092915050565b6000815190506200021e81620003dd565b92915050565b600080604083850312156200023857600080fd5b600083015167ffffffffffffffff8111156200025357600080fd5b6200026185828601620001e0565b925050602062000274858286016200020d565b9150509250929050565b60006200028d60128362000345565b91507f4e6f7420656e6f756768207369676e65727300000000000000000000000000006000830152602082019050919050565b60006020820190508181036000830152620002db816200027e565b9050919050565b6000604051905081810181811067ffffffffffffffff821117156200030c576200030b62000394565b5b8060405250919050565b600067ffffffffffffffff82111562000334576200033362000394565b5b602082029050602081019050919050565b600082825260208201905092915050565b600062000363826200036a565b9050919050565b600073ffffffffffffffffffffffffffffffffffffffff82169050919050565b6000819050919050565b7f4e487b7100000000000000000000000000000000000000000000000000000000600052604160045260246000fd5b620003ce8162000356565b8114620003da57600080fd5b50565b620003e8816200038a565b8114620003f457600080fd5b50565b6107fc80620004076000396000f3fe608060405234801561001057600080fd5b50600436106100625760003560e01c8063673690b4146100675780637afda573146100835780638f0f6b5e146100b357806399c1aadc146100e35780639f2d471a14610101578063d3d9212714610131575b600080fd5b610081600480360381019061007c919061053a565b610161565b005b61009d6004803603810190610098919061053a565b61022d565b6040516100aa919061064d565b60405180910390f35b6100cd60048036038101906100c89190610576565b610353565b6040516100da919061064d565b60405180910390f35b6100eb61038f565b6040516100f89190610688565b60405180910390f35b61011b60048036038101906101169190610511565b610395565b6040516101289190610632565b60405180910390f35b61014b600480360381019061014691906104e8565b6103d4565b604051610158919061064d565b60405180910390f35b61016a336103d4565b6101a9576040517f08c379a00000000000000000000000000000000000000000000000000000000081526004016101a090610668565b60405180910390fd5b60016002600084815260200190815260200160002060008360ff1660ff16815260200190815260200160002060003373ffffffffffffffffffffffffffffffffffffffff1673ffffffffffffffffffffffffffffffffffffffff16815260200190815260200160002060006101000a81548160ff0219169083151502179055505050565b6000806000905060005b600080549050811015610343576002600086815260200190815260200160002060008560ff1660ff16815260200190815260200160002060008083815481106102a9577f4e487b7100000000000000000000000000000000000000000000000000000000600052603260045260246000fd5b9060005260206000200160009054906101000a900473ffffffffffffffffffffffffffffffffffffffff1673ffffffffffffffffffffffffffffffffffffffff1673ffffffffffffffffffffffffffffffffffffffff16815260200190815260200160002060009054906101000a900460ff161561033057818061032c90610709565b9250505b808061033b90610709565b915050610237565b5060015481101591505092915050565b6002602052826000526040600020602052816000526040600020602052806000526040600020600092509250509054906101000a900460ff1681565b60015481565b600081815481106103a557600080fd5b906000526020600020016000915054906101000a900473ffffffffffffffffffffffffffffffffffffffff1681565b600080600090505b60008054905081101561049e578273ffffffffffffffffffffffffffffffffffffffff166000828154811061043a577f4e487b7100000000000000000000000000000000000000000000000000000000600052603260045260246000fd5b9060005260206000200160009054906101000a900473ffffffffffffffffffffffffffffffffffffffff1673ffffffffffffffffffffffffffffffffffffffff16141561048b5760019150506104a4565b808061049690610709565b9150506103dc565b50600090505b919050565b6000813590506104b881610781565b92915050565b6000813590506104cd81610798565b92915050565b6000813590506104e2816107af565b92915050565b6000602082840312156104fa57600080fd5b6000610508848285016104a9565b91505092915050565b60006020828403121561052357600080fd5b6000610531848285016104be565b91505092915050565b6000806040838503121561054d57600080fd5b600061055b858286016104be565b925050602061056c858286016104d3565b9150509250929050565b60008060006060848603121561058b57600080fd5b6000610599868287016104be565b93505060206105aa868287016104d3565b92505060406105bb868287016104a9565b9150509250925092565b6105ce816106b4565b82525050565b6105dd816106c6565b82525050565b60006105f06014836106a3565b91507f4e6f7420612074727573746564207369676e65720000000000000000000000006000830152602082019050919050565b61062c816106f2565b82525050565b600060208201905061064760008301846105c5565b92915050565b600060208201905061066260008301846105d4565b92915050565b60006020820190508181036000830152610681816105e3565b9050919050565b600060208201905061069d6000830184610623565b92915050565b600082825260208201905092915050565b60006106bf826106d2565b9050919050565b60008115159050919050565b600073ffffffffffffffffffffffffffffffffffffffff82169050919050565b6000819050919050565b600060ff82169050919050565b6000610714826106f2565b91507fffffffffffffffffffffffffffffffffffffffffffffffffffffffffffffffff82141561074757610746610752565b5b600182019050919050565b7f4e487b7100000000000000000000000000000000000000000000000000000000600052601160045260246000fd5b61078a816106b4565b811461079557600080fd5b50565b6107a1816106f2565b81146107ac57600080fd5b50565b6107b8816106fc565b81146107c357600080fd5b5056fea264697066735822122062baf92b3e9f1e7a4b6997aefb90b682d0c96db1c872f171f379f7a41aa38fd664736f6c63430008000033",
  "immutableReferences": {},
  "source": "// SPDX-License-Identifier: MIT\r\npragma solidity ^0.8.0;\r\n\r\ncontract MultiSigApprover {\r\n    address[] public trustedSigners;\r\n    uint256 public requiredApprovals; // This already has a getter function requiredApprovals()\r\n\r\n    // milestoneApprovals is a public mapping, so a getter is automatically generated.\r\n    // No need to define another function with the same name.\r\n    mapping(uint256 => mapping(uint8 => mapping(address => bool))) public milestoneApprovals;\r\n\r\n    constructor(address[] memory _trustedSigners, uint256 _requiredApprovals) {\r\n        require(_trustedSigners.length >= _requiredApprovals, \"Not enough signers\");\r\n        trustedSigners = _trustedSigners;\r\n        requiredApprovals = _requiredApprovals;\r\n    }\r\n\r\n    function approveWithdrawalForMilestone(uint256 projectId, uint8 milestone) external {\r\n        require(isTrustedSigner(msg.sender), \"Not a trusted signer\");\r\n        milestoneApprovals[projectId][milestone][msg.sender] = true;\r\n    }\r\n\r\n    function isApprovedForMilestone(uint256 projectId, uint8 milestone) external view returns (bool) {\r\n        uint256 count = 0;\r\n        for (uint256 i = 0; i < trustedSigners.length; i++) {\r\n            if (milestoneApprovals[projectId][milestone][trustedSigners[i]]) {\r\n                count++;\r\n            }\r\n        }\r\n        return count >= requiredApprovals;\r\n    }\r\n\r\n    function isTrustedSigner(address signer) public view returns (bool) {\r\n        for (uint256 i = 0; i < trustedSigners.length; i++) {\r\n            if (trustedSigners[i] == signer) {\r\n                return true;\r\n            }\r\n        }\r\n        return false;\r\n    }\r\n}\r\n",
  "sourcePath": "D:\\adv blockchain project\\final term project\\decentralized-crowdfunding\\contracts\\MultiSigApprover.sol",
  "compiler": {
    "name": "solc",
    "version": "0.8.0+commit.c7dfd78e.Emscripten.clang"
  },
  "schemaVersion": "3.4.16",
  "updatedAt": "2024-12-10T06:11:19.741Z",
  "networkType": "ethereum",
  "devdoc": {
    "kind": "dev",
    "methods": {},
    "version": 1
  },
  "userdoc": {
    "kind": "user",
    "methods": {},
    "version": 1
  }
}