{
  "contractName": "Crowdfunding",
  "abi": [
    {
      "anonymous": false,
      "inputs": [
        {
          "indexed": false,
          "internalType": "uint256",
          "name": "id",
          "type": "uint256"
        },
        {
          "indexed": true,
          "internalType": "address",
          "name": "contributor",
          "type": "address"
        },
        {
          "indexed": false,
          "internalType": "uint256",
          "name": "amount",
          "type": "uint256"
        },
        {
          "indexed": false,
          "internalType": "string",
          "name": "comment",
          "type": "string"
        }
      ],
      "name": "Funded",
      "type": "event"
    },
    {
      "anonymous": false,
      "inputs": [
        {
          "indexed": false,
          "internalType": "uint256",
          "name": "id",
          "type": "uint256"
        },
        {
          "indexed": false,
          "internalType": "uint256",
          "name": "amount",
          "type": "uint256"
        }
      ],
      "name": "FundsWithdrawn",
      "type": "event"
    },
    {
      "anonymous": false,
      "inputs": [
        {
          "indexed": false,
          "internalType": "uint256",
          "name": "id",
          "type": "uint256"
        },
        {
          "indexed": true,
          "internalType": "address",
          "name": "creator",
          "type": "address"
        },
        {
          "indexed": false,
          "internalType": "string",
          "name": "title",
          "type": "string"
        },
        {
          "indexed": false,
          "internalType": "uint256",
          "name": "fundingGoal",
          "type": "uint256"
        },
        {
          "indexed": false,
          "internalType": "uint256",
          "name": "deadline",
          "type": "uint256"
        }
      ],
      "name": "ProjectCreated",
      "type": "event"
    },
    {
      "inputs": [
        {
          "internalType": "uint256",
          "name": "",
          "type": "uint256"
        },
        {
          "internalType": "address",
          "name": "",
          "type": "address"
        }
      ],
      "name": "contributions",
      "outputs": [
        {
          "internalType": "uint256",
          "name": "",
          "type": "uint256"
        }
      ],
      "stateMutability": "view",
      "type": "function",
      "constant": true
    },
    {
      "inputs": [
        {
          "internalType": "uint256",
          "name": "",
          "type": "uint256"
        },
        {
          "internalType": "uint256",
          "name": "",
          "type": "uint256"
        }
      ],
      "name": "donations",
      "outputs": [
        {
          "internalType": "address",
          "name": "contributor",
          "type": "address"
        },
        {
          "internalType": "uint256",
          "name": "amount",
          "type": "uint256"
        },
        {
          "internalType": "string",
          "name": "comment",
          "type": "string"
        }
      ],
      "stateMutability": "view",
      "type": "function",
      "constant": true
    },
    {
      "inputs": [],
      "name": "projectCount",
      "outputs": [
        {
          "internalType": "uint256",
          "name": "",
          "type": "uint256"
        }
      ],
      "stateMutability": "view",
      "type": "function",
      "constant": true
    },
    {
      "inputs": [
        {
          "internalType": "uint256",
          "name": "",
          "type": "uint256"
        }
      ],
      "name": "projects",
      "outputs": [
        {
          "internalType": "uint256",
          "name": "id",
          "type": "uint256"
        },
        {
          "internalType": "string",
          "name": "title",
          "type": "string"
        },
        {
          "internalType": "string",
          "name": "description",
          "type": "string"
        },
        {
          "internalType": "uint256",
          "name": "fundingGoal",
          "type": "uint256"
        },
        {
          "internalType": "uint256",
          "name": "totalFunds",
          "type": "uint256"
        },
        {
          "internalType": "address payable",
          "name": "creator",
          "type": "address"
        },
        {
          "internalType": "bool",
          "name": "isOpen",
          "type": "bool"
        },
        {
          "internalType": "uint256",
          "name": "deadline",
          "type": "uint256"
        }
      ],
      "stateMutability": "view",
      "type": "function",
      "constant": true
    },
    {
      "inputs": [
        {
          "internalType": "address",
          "name": "",
          "type": "address"
        }
      ],
      "name": "userNames",
      "outputs": [
        {
          "internalType": "string",
          "name": "",
          "type": "string"
        }
      ],
      "stateMutability": "view",
      "type": "function",
      "constant": true
    },
    {
      "inputs": [
        {
          "internalType": "string",
          "name": "_title",
          "type": "string"
        },
        {
          "internalType": "string",
          "name": "_description",
          "type": "string"
        },
        {
          "internalType": "uint256",
          "name": "_fundingGoal",
          "type": "uint256"
        },
        {
          "internalType": "uint256",
          "name": "_deadline",
          "type": "uint256"
        }
      ],
      "name": "createProject",
      "outputs": [],
      "stateMutability": "nonpayable",
      "type": "function"
    },
    {
      "inputs": [
        {
          "internalType": "uint256",
          "name": "_id",
          "type": "uint256"
        },
        {
          "internalType": "string",
          "name": "_comment",
          "type": "string"
        }
      ],
      "name": "fundProject",
      "outputs": [],
      "stateMutability": "payable",
      "type": "function",
      "payable": true
    },
    {
      "inputs": [
        {
          "internalType": "uint256",
          "name": "_id",
          "type": "uint256"
        }
      ],
      "name": "withdrawFunds",
      "outputs": [],
      "stateMutability": "nonpayable",
      "type": "function"
    },
    {
      "inputs": [
        {
          "internalType": "string",
          "name": "_name",
          "type": "string"
        }
      ],
      "name": "setUserName",
      "outputs": [],
      "stateMutability": "nonpayable",
      "type": "function"
    },
    {
      "inputs": [
        {
          "internalType": "address",
          "name": "_user",
          "type": "address"
        }
      ],
      "name": "getUserName",
      "outputs": [
        {
          "internalType": "string",
          "name": "",
          "type": "string"
        }
      ],
      "stateMutability": "view",
      "type": "function",
      "constant": true
    },
    {
      "inputs": [
        {
          "internalType": "uint256",
          "name": "_id",
          "type": "uint256"
        }
      ],
      "name": "getDonations",
      "outputs": [
        {
          "components": [
            {
              "internalType": "address",
              "name": "contributor",
              "type": "address"
            },
            {
              "internalType": "uint256",
              "name": "amount",
              "type": "uint256"
            },
            {
              "internalType": "string",
              "name": "comment",
              "type": "string"
            }
          ],
          "internalType": "struct Crowdfunding.Donation[]",
          "name": "",
          "type": "tuple[]"
        }
      ],
      "stateMutability": "view",
      "type": "function",
      "constant": true
    }
  ],
  "bytecode": "0x60806040526000805534801561001457600080fd5b50611e30806100246000396000f3fe60806040526004361061009c5760003560e01c80633e721abe116100645780633e721abe1461019f57806348f7b12e146101bb578063596d9ce2146101fa5780637f2816351461023757806394ba970914610274578063d84f55ee1461029d5761009c565b8063107046bd146100a1578063155dd5ee146100e55780632b5914fe1461010e57806336fbad26146101375780633d891f5914610162575b600080fd5b3480156100ad57600080fd5b506100c860048036038101906100c39190611252565b6102da565b6040516100dc9897969594939291906119bb565b60405180910390f35b3480156100f157600080fd5b5061010c60048036038101906101079190611252565b61045f565b005b34801561011a57600080fd5b506101356004803603810190610130919061117e565b61067d565b005b34801561014357600080fd5b5061014c6106d4565b60405161015991906119a0565b60405180910390f35b34801561016e57600080fd5b506101896004803603810190610184919061127b565b6106da565b60405161019691906119a0565b60405180910390f35b6101b960048036038101906101b491906112b7565b6106ff565b005b3480156101c757600080fd5b506101e260048036038101906101dd919061130b565b6109a6565b6040516101f1939291906117de565b60405180910390f35b34801561020657600080fd5b50610221600480360381019061021c9190611252565b610a95565b60405161022e919061181c565b60405180910390f35b34801561024357600080fd5b5061025e60048036038101906102599190611155565b610bf9565b60405161026b919061183e565b60405180910390f35b34801561028057600080fd5b5061029b600480360381019061029691906111bf565b610c99565b005b3480156102a957600080fd5b506102c460048036038101906102bf9190611155565b610f4f565b6040516102d1919061183e565b60405180910390f35b600160205280600052604060002060009150905080600001549080600101805461030390611cb3565b80601f016020809104026020016040519081016040528092919081815260200182805461032f90611cb3565b801561037c5780601f106103515761010080835404028352916020019161037c565b820191906000526020600020905b81548152906001019060200180831161035f57829003601f168201915b50505050509080600201805461039190611cb3565b80601f01602080910402602001604051908101604052809291908181526020018280546103bd90611cb3565b801561040a5780601f106103df5761010080835404028352916020019161040a565b820191906000526020600020905b8154815290600101906020018083116103ed57829003601f168201915b5050505050908060030154908060040154908060050160009054906101000a900473ffffffffffffffffffffffffffffffffffffffff16908060050160149054906101000a900460ff16908060060154905088565b60006001600083815260200190815260200160002090508060050160009054906101000a900473ffffffffffffffffffffffffffffffffffffffff1673ffffffffffffffffffffffffffffffffffffffff163373ffffffffffffffffffffffffffffffffffffffff1614610508576040517f08c379a00000000000000000000000000000000000000000000000000000000081526004016104ff90611880565b60405180910390fd5b806003015481600401541015610553576040517f08c379a000000000000000000000000000000000000000000000000000000000815260040161054a90611860565b60405180910390fd5b8060050160149054906101000a900460ff166105a4576040517f08c379a000000000000000000000000000000000000000000000000000000000815260040161059b90611940565b60405180910390fd5b6000816004015490506000826004018190555060008260050160146101000a81548160ff0219169083151502179055508160050160009054906101000a900473ffffffffffffffffffffffffffffffffffffffff1673ffffffffffffffffffffffffffffffffffffffff166108fc829081150290604051600060405180830381858888f1935050505015801561063e573d6000803e3d6000fd5b507fd66662c0ded9e58fd31d5e44944bcfd07ffc15e6927ecc1382e7941cb7bd24c48382604051610670929190611a93565b60405180910390a1505050565b80600460003373ffffffffffffffffffffffffffffffffffffffff1673ffffffffffffffffffffffffffffffffffffffff16815260200190815260200160002090805190602001906106d0929190611020565b5050565b60005481565b6003602052816000526040600020602052806000526040600020600091509150505481565b60006001600084815260200190815260200160002090508060050160149054906101000a900460ff16610767576040517f08c379a000000000000000000000000000000000000000000000000000000000815260040161075e906118a0565b60405180910390fd5b806006015442106107ad576040517f08c379a00000000000000000000000000000000000000000000000000000000081526004016107a4906118e0565b60405180910390fd5b600034116107f0576040517f08c379a00000000000000000000000000000000000000000000000000000000081526004016107e790611920565b60405180910390fd5b348160040160008282546108049190611bc1565b92505081905550346003600085815260200190815260200160002060003373ffffffffffffffffffffffffffffffffffffffff1673ffffffffffffffffffffffffffffffffffffffff168152602001908152602001600020600082825461086b9190611bc1565b925050819055506002600084815260200190815260200160002060405180606001604052803373ffffffffffffffffffffffffffffffffffffffff16815260200134815260200184815250908060018154018082558091505060019003906000526020600020906003020160009091909190915060008201518160000160006101000a81548173ffffffffffffffffffffffffffffffffffffffff021916908373ffffffffffffffffffffffffffffffffffffffff16021790555060208201518160010155604082015181600201908051906020019061094c929190611020565b5050503373ffffffffffffffffffffffffffffffffffffffff167ffc0418dc9fde906ae69e1b2d0d6f1fa844f1c42aaee1b53b9dabf712a5bcdec084348560405161099993929190611abc565b60405180910390a2505050565b600260205281600052604060002081815481106109c257600080fd5b9060005260206000209060030201600091509150508060000160009054906101000a900473ffffffffffffffffffffffffffffffffffffffff1690806001015490806002018054610a1290611cb3565b80601f0160208091040260200160405190810160405280929190818152602001828054610a3e90611cb3565b8015610a8b5780601f10610a6057610100808354040283529160200191610a8b565b820191906000526020600020905b815481529060010190602001808311610a6e57829003601f168201915b5050505050905083565b606060026000838152602001908152602001600020805480602002602001604051908101604052809291908181526020016000905b82821015610bee57838290600052602060002090600302016040518060600160405290816000820160009054906101000a900473ffffffffffffffffffffffffffffffffffffffff1673ffffffffffffffffffffffffffffffffffffffff1673ffffffffffffffffffffffffffffffffffffffff16815260200160018201548152602001600282018054610b5d90611cb3565b80601f0160208091040260200160405190810160405280929190818152602001828054610b8990611cb3565b8015610bd65780601f10610bab57610100808354040283529160200191610bd6565b820191906000526020600020905b815481529060010190602001808311610bb957829003601f168201915b50505050508152505081526020019060010190610aca565b505050509050919050565b60046020528060005260406000206000915090508054610c1890611cb3565b80601f0160208091040260200160405190810160405280929190818152602001828054610c4490611cb3565b8015610c915780601f10610c6657610100808354040283529160200191610c91565b820191906000526020600020905b815481529060010190602001808311610c7457829003601f168201915b505050505081565b6000845111610cdd576040517f08c379a0000000000000000000000000000000000000000000000000000000008152600401610cd490611900565b60405180910390fd5b6000835111610d21576040517f08c379a0000000000000000000000000000000000000000000000000000000008152600401610d1890611980565b60405180910390fd5b60008211610d64576040517f08c379a0000000000000000000000000000000000000000000000000000000008152600401610d5b906118c0565b60405180910390fd5b428111610da6576040517f08c379a0000000000000000000000000000000000000000000000000000000008152600401610d9d90611960565b60405180910390fd5b600080815480929190610db890611ce5565b91905055506040518061010001604052806000548152602001858152602001848152602001838152602001600081526020013373ffffffffffffffffffffffffffffffffffffffff168152602001600115158152602001828152506001600080548152602001908152602001600020600082015181600001556020820151816001019080519060200190610e4d929190611020565b506040820151816002019080519060200190610e6a929190611020565b50606082015181600301556080820151816004015560a08201518160050160006101000a81548173ffffffffffffffffffffffffffffffffffffffff021916908373ffffffffffffffffffffffffffffffffffffffff16021790555060c08201518160050160146101000a81548160ff02191690831515021790555060e082015181600601559050503373ffffffffffffffffffffffffffffffffffffffff167f483013d4a1d5e8ba43089bda8f1a92b959e32d6fc582556f800267dd809e5893600054868585604051610f419493929190611a47565b60405180910390a250505050565b6060600460008373ffffffffffffffffffffffffffffffffffffffff1673ffffffffffffffffffffffffffffffffffffffff1681526020019081526020016000208054610f9b90611cb3565b80601f0160208091040260200160405190810160405280929190818152602001828054610fc790611cb3565b80156110145780601f10610fe957610100808354040283529160200191611014565b820191906000526020600020905b815481529060010190602001808311610ff757829003601f168201915b50505050509050919050565b82805461102c90611cb3565b90600052602060002090601f01602090048101928261104e5760008555611095565b82601f1061106757805160ff1916838001178555611095565b82800160010185558215611095579182015b82811115611094578251825591602001919060010190611079565b5b5090506110a291906110a6565b5090565b5b808211156110bf5760008160009055506001016110a7565b5090565b60006110d66110d184611b2b565b611afa565b9050828152602081018484840111156110ee57600080fd5b6110f9848285611c71565b509392505050565b60008135905061111081611dcc565b92915050565b600082601f83011261112757600080fd5b81356111378482602086016110c3565b91505092915050565b60008135905061114f81611de3565b92915050565b60006020828403121561116757600080fd5b600061117584828501611101565b91505092915050565b60006020828403121561119057600080fd5b600082013567ffffffffffffffff8111156111aa57600080fd5b6111b684828501611116565b91505092915050565b600080600080608085870312156111d557600080fd5b600085013567ffffffffffffffff8111156111ef57600080fd5b6111fb87828801611116565b945050602085013567ffffffffffffffff81111561121857600080fd5b61122487828801611116565b935050604061123587828801611140565b925050606061124687828801611140565b91505092959194509250565b60006020828403121561126457600080fd5b600061127284828501611140565b91505092915050565b6000806040838503121561128e57600080fd5b600061129c85828601611140565b92505060206112ad85828601611101565b9150509250929050565b600080604083850312156112ca57600080fd5b60006112d885828601611140565b925050602083013567ffffffffffffffff8111156112f557600080fd5b61130185828601611116565b9150509250929050565b6000806040838503121561131e57600080fd5b600061132c85828601611140565b925050602061133d85828601611140565b9150509250929050565b60006113538383611770565b905092915050565b61136481611c29565b82525050565b61137381611c17565b82525050565b61138281611c17565b82525050565b600061139382611b6b565b61139d8185611b8e565b9350836020820285016113af85611b5b565b8060005b858110156113eb57848403895281516113cc8582611347565b94506113d783611b81565b925060208a019950506001810190506113b3565b50829750879550505050505092915050565b61140681611c3b565b82525050565b600061141782611b76565b6114218185611b9f565b9350611431818560208601611c80565b61143a81611dbb565b840191505092915050565b600061145082611b76565b61145a8185611bb0565b935061146a818560208601611c80565b61147381611dbb565b840191505092915050565b600061148b601883611bb0565b91507f46756e64696e6720676f616c206e6f74207265616368656400000000000000006000830152602082019050919050565b60006114cb601f83611bb0565b91507f4f6e6c792063726561746f722063616e2077697468647261772066756e6473006000830152602082019050919050565b600061150b601f83611bb0565b91507f50726f6a656374206973206e6f74206f70656e20666f722066756e64696e67006000830152602082019050919050565b600061154b602683611bb0565b91507f46756e64696e6720676f616c206d75737420626520677265617465722074686160008301527f6e207a65726f00000000000000000000000000000000000000000000000000006020830152604082019050919050565b60006115b1602383611bb0565b91507f50726f6a6563742066756e64696e6720646561646c696e65206861732070617360008301527f73656400000000000000000000000000000000000000000000000000000000006020830152604082019050919050565b6000611617601183611bb0565b91507f5469746c652069732072657175697265640000000000000000000000000000006000830152602082019050919050565b6000611657602683611bb0565b91507f436f6e747269627574696f6e206d75737420626520677265617465722074686160008301527f6e207a65726f00000000000000000000000000000000000000000000000000006020830152604082019050919050565b60006116bd601983611bb0565b91507f50726f6a65637420697320616c726561647920636c6f736564000000000000006000830152602082019050919050565b60006116fd601e83611bb0565b91507f446561646c696e65206d75737420626520696e207468652066757475726500006000830152602082019050919050565b600061173d601783611bb0565b91507f4465736372697074696f6e2069732072657175697265640000000000000000006000830152602082019050919050565b6000606083016000830151611788600086018261136a565b50602083015161179b60208601826117c0565b50604083015184820360408601526117b3828261140c565b9150508091505092915050565b6117c981611c67565b82525050565b6117d881611c67565b82525050565b60006060820190506117f36000830186611379565b61180060208301856117cf565b81810360408301526118128184611445565b9050949350505050565b600060208201905081810360008301526118368184611388565b905092915050565b600060208201905081810360008301526118588184611445565b905092915050565b600060208201905081810360008301526118798161147e565b9050919050565b60006020820190508181036000830152611899816114be565b9050919050565b600060208201905081810360008301526118b9816114fe565b9050919050565b600060208201905081810360008301526118d98161153e565b9050919050565b600060208201905081810360008301526118f9816115a4565b9050919050565b600060208201905081810360008301526119198161160a565b9050919050565b600060208201905081810360008301526119398161164a565b9050919050565b60006020820190508181036000830152611959816116b0565b9050919050565b60006020820190508181036000830152611979816116f0565b9050919050565b6000602082019050818103600083015261199981611730565b9050919050565b60006020820190506119b560008301846117cf565b92915050565b6000610100820190506119d1600083018b6117cf565b81810360208301526119e3818a611445565b905081810360408301526119f78189611445565b9050611a0660608301886117cf565b611a1360808301876117cf565b611a2060a083018661135b565b611a2d60c08301856113fd565b611a3a60e08301846117cf565b9998505050505050505050565b6000608082019050611a5c60008301876117cf565b8181036020830152611a6e8186611445565b9050611a7d60408301856117cf565b611a8a60608301846117cf565b95945050505050565b6000604082019050611aa860008301856117cf565b611ab560208301846117cf565b9392505050565b6000606082019050611ad160008301866117cf565b611ade60208301856117cf565b8181036040830152611af08184611445565b9050949350505050565b6000604051905081810181811067ffffffffffffffff82111715611b2157611b20611d8c565b5b8060405250919050565b600067ffffffffffffffff821115611b4657611b45611d8c565b5b601f19601f8301169050602081019050919050565b6000819050602082019050919050565b600081519050919050565b600081519050919050565b6000602082019050919050565b600082825260208201905092915050565b600082825260208201905092915050565b600082825260208201905092915050565b6000611bcc82611c67565b9150611bd783611c67565b9250827fffffffffffffffffffffffffffffffffffffffffffffffffffffffffffffffff03821115611c0c57611c0b611d2e565b5b828201905092915050565b6000611c2282611c47565b9050919050565b6000611c3482611c47565b9050919050565b60008115159050919050565b600073ffffffffffffffffffffffffffffffffffffffff82169050919050565b6000819050919050565b82818337600083830152505050565b60005b83811015611c9e578082015181840152602081019050611c83565b83811115611cad576000848401525b50505050565b60006002820490506001821680611ccb57607f821691505b60208210811415611cdf57611cde611d5d565b5b50919050565b6000611cf082611c67565b91507fffffffffffffffffffffffffffffffffffffffffffffffffffffffffffffffff821415611d2357611d22611d2e565b5b600182019050919050565b7f4e487b7100000000000000000000000000000000000000000000000000000000600052601160045260246000fd5b7f4e487b7100000000000000000000000000000000000000000000000000000000600052602260045260246000fd5b7f4e487b7100000000000000000000000000000000000000000000000000000000600052604160045260246000fd5b6000601f19601f8301169050919050565b611dd581611c17565b8114611de057600080fd5b50565b611dec81611c67565b8114611df757600080fd5b5056fea264697066735822122037b3de5764c9e273e97cd8a236c825dd589cc758a8ef595ce597978efef2466e64736f6c63430008000033",
  "immutableReferences": {},
  "source": "// SPDX-License-Identifier: MIT\r\npragma solidity ^0.8.0;\r\n\r\ncontract Crowdfunding {\r\n    struct Project {\r\n        uint256 id;\r\n        string title;\r\n        string description;\r\n        uint256 fundingGoal;\r\n        uint256 totalFunds;\r\n        address payable creator;\r\n        bool isOpen;\r\n        uint256 deadline; // New field for deadline (timestamp)\r\n    }\r\n\r\n    struct Donation {\r\n        address contributor;\r\n        uint256 amount;\r\n        string comment; // Store the comment here\r\n    }\r\n\r\n    uint256 public projectCount = 0;\r\n    mapping(uint256 => Project) public projects;\r\n    mapping(uint256 => Donation[]) public donations; // Store donations with comments\r\n    mapping(uint256 => mapping(address => uint256)) public contributions;\r\n    mapping(address => string) public userNames; // Mapping to store user names\r\n\r\n    event ProjectCreated(\r\n        uint256 id,\r\n        address indexed creator,\r\n        string title,\r\n        uint256 fundingGoal,\r\n        uint256 deadline\r\n    );\r\n\r\n    event Funded(\r\n        uint256 id,\r\n        address indexed contributor,\r\n        uint256 amount,\r\n        string comment\r\n    );\r\n\r\n    event FundsWithdrawn(uint256 id, uint256 amount);\r\n\r\n    function createProject(\r\n        string memory _title,\r\n        string memory _description,\r\n        uint256 _fundingGoal,\r\n        uint256 _deadline\r\n    ) public {\r\n        require(bytes(_title).length > 0, \"Title is required\");\r\n        require(bytes(_description).length > 0, \"Description is required\");\r\n        require(_fundingGoal > 0, \"Funding goal must be greater than zero\");\r\n        require(_deadline > block.timestamp, \"Deadline must be in the future\");\r\n\r\n        projectCount++;\r\n        projects[projectCount] = Project(\r\n            projectCount,\r\n            _title,\r\n            _description,\r\n            _fundingGoal,\r\n            0,\r\n            payable(msg.sender),\r\n            true,\r\n            _deadline\r\n        );\r\n\r\n        emit ProjectCreated(\r\n            projectCount,\r\n            msg.sender,\r\n            _title,\r\n            _fundingGoal,\r\n            _deadline\r\n        );\r\n    }\r\n\r\n    function fundProject(uint256 _id, string memory _comment) public payable {\r\n        Project storage project = projects[_id];\r\n        require(project.isOpen, \"Project is not open for funding\");\r\n        require(\r\n            block.timestamp < project.deadline,\r\n            \"Project funding deadline has passed\"\r\n        );\r\n        require(msg.value > 0, \"Contribution must be greater than zero\");\r\n\r\n        project.totalFunds += msg.value;\r\n        contributions[_id][msg.sender] += msg.value;\r\n\r\n        // Store donation with comment\r\n        donations[_id].push(Donation(msg.sender, msg.value, _comment));\r\n\r\n        emit Funded(_id, msg.sender, msg.value, _comment);\r\n    }\r\n\r\n    function withdrawFunds(uint256 _id) public {\r\n        Project storage project = projects[_id];\r\n        require(\r\n            msg.sender == project.creator,\r\n            \"Only creator can withdraw funds\"\r\n        );\r\n        require(\r\n            project.totalFunds >= project.fundingGoal,\r\n            \"Funding goal not reached\"\r\n        );\r\n        require(project.isOpen, \"Project is already closed\");\r\n\r\n        uint256 amount = project.totalFunds;\r\n        project.totalFunds = 0;\r\n        project.isOpen = false;\r\n\r\n        project.creator.transfer(amount);\r\n\r\n        emit FundsWithdrawn(_id, amount);\r\n    }\r\n\r\n    // Function to set name\r\n    function setUserName(string memory _name) public {\r\n        userNames[msg.sender] = _name;\r\n    }\r\n\r\n    // Function to get user name\r\n    function getUserName(address _user) public view returns (string memory) {\r\n        return userNames[_user];\r\n    }\r\n\r\n    // Function to get donations for a project\r\n    function getDonations(uint256 _id) public view returns (Donation[] memory) {\r\n        return donations[_id];\r\n    }\r\n}\r\n",
  "sourcePath": "D:\\adv blockchain project\\final term project\\decentralized-crowdfunding\\contracts\\Crowdfunding.sol",
  "compiler": {
    "name": "solc",
    "version": "0.8.0+commit.c7dfd78e.Emscripten.clang"
  },
  "schemaVersion": "3.4.16",
  "updatedAt": "2024-12-06T01:30:30.909Z",
  "networkType": "ethereum",
  "devdoc": {
    "kind": "dev",
    "methods": {},
    "version": 1
  },
  "userdoc": {
    "kind": "user",
    "methods": {},
    "version": 1
  }
}