{
  "contractName": "Crowdfunding",
  "abi": [
    {
      "anonymous": false,
      "inputs": [
        {
          "indexed": false,
          "internalType": "uint256",
          "name": "id",
          "type": "uint256"
        },
        {
          "indexed": true,
          "internalType": "address",
          "name": "contributor",
          "type": "address"
        },
        {
          "indexed": false,
          "internalType": "uint256",
          "name": "amount",
          "type": "uint256"
        },
        {
          "indexed": false,
          "internalType": "string",
          "name": "comment",
          "type": "string"
        }
      ],
      "name": "Funded",
      "type": "event"
    },
    {
      "anonymous": false,
      "inputs": [
        {
          "indexed": false,
          "internalType": "uint256",
          "name": "id",
          "type": "uint256"
        },
        {
          "indexed": false,
          "internalType": "uint256",
          "name": "amount",
          "type": "uint256"
        }
      ],
      "name": "FundsWithdrawn",
      "type": "event"
    },
    {
      "anonymous": false,
      "inputs": [
        {
          "indexed": false,
          "internalType": "uint256",
          "name": "id",
          "type": "uint256"
        },
        {
          "indexed": true,
          "internalType": "address",
          "name": "creator",
          "type": "address"
        },
        {
          "indexed": false,
          "internalType": "string",
          "name": "title",
          "type": "string"
        },
        {
          "indexed": false,
          "internalType": "uint256",
          "name": "fundingGoal",
          "type": "uint256"
        },
        {
          "indexed": false,
          "internalType": "uint256",
          "name": "deadline",
          "type": "uint256"
        }
      ],
      "name": "ProjectCreated",
      "type": "event"
    },
    {
      "inputs": [
        {
          "internalType": "uint256",
          "name": "",
          "type": "uint256"
        },
        {
          "internalType": "address",
          "name": "",
          "type": "address"
        }
      ],
      "name": "contributions",
      "outputs": [
        {
          "internalType": "uint256",
          "name": "",
          "type": "uint256"
        }
      ],
      "stateMutability": "view",
      "type": "function",
      "constant": true
    },
    {
      "inputs": [
        {
          "internalType": "uint256",
          "name": "",
          "type": "uint256"
        },
        {
          "internalType": "uint256",
          "name": "",
          "type": "uint256"
        }
      ],
      "name": "donations",
      "outputs": [
        {
          "internalType": "address",
          "name": "contributor",
          "type": "address"
        },
        {
          "internalType": "uint256",
          "name": "amount",
          "type": "uint256"
        },
        {
          "internalType": "string",
          "name": "comment",
          "type": "string"
        }
      ],
      "stateMutability": "view",
      "type": "function",
      "constant": true
    },
    {
      "inputs": [],
      "name": "projectCount",
      "outputs": [
        {
          "internalType": "uint256",
          "name": "",
          "type": "uint256"
        }
      ],
      "stateMutability": "view",
      "type": "function",
      "constant": true
    },
    {
      "inputs": [
        {
          "internalType": "uint256",
          "name": "",
          "type": "uint256"
        }
      ],
      "name": "projects",
      "outputs": [
        {
          "internalType": "uint256",
          "name": "id",
          "type": "uint256"
        },
        {
          "internalType": "string",
          "name": "title",
          "type": "string"
        },
        {
          "internalType": "string",
          "name": "description",
          "type": "string"
        },
        {
          "internalType": "uint256",
          "name": "fundingGoal",
          "type": "uint256"
        },
        {
          "internalType": "uint256",
          "name": "totalFunds",
          "type": "uint256"
        },
        {
          "internalType": "address payable",
          "name": "creator",
          "type": "address"
        },
        {
          "internalType": "bool",
          "name": "isOpen",
          "type": "bool"
        },
        {
          "internalType": "uint256",
          "name": "deadline",
          "type": "uint256"
        }
      ],
      "stateMutability": "view",
      "type": "function",
      "constant": true
    },
    {
      "inputs": [
        {
          "internalType": "string",
          "name": "_title",
          "type": "string"
        },
        {
          "internalType": "string",
          "name": "_description",
          "type": "string"
        },
        {
          "internalType": "uint256",
          "name": "_fundingGoal",
          "type": "uint256"
        },
        {
          "internalType": "uint256",
          "name": "_deadline",
          "type": "uint256"
        }
      ],
      "name": "createProject",
      "outputs": [],
      "stateMutability": "nonpayable",
      "type": "function"
    },
    {
      "inputs": [
        {
          "internalType": "uint256",
          "name": "_id",
          "type": "uint256"
        },
        {
          "internalType": "string",
          "name": "_comment",
          "type": "string"
        }
      ],
      "name": "fundProject",
      "outputs": [],
      "stateMutability": "payable",
      "type": "function",
      "payable": true
    },
    {
      "inputs": [
        {
          "internalType": "uint256",
          "name": "_id",
          "type": "uint256"
        }
      ],
      "name": "withdrawFunds",
      "outputs": [],
      "stateMutability": "nonpayable",
      "type": "function"
    },
    {
      "inputs": [
        {
          "internalType": "uint256",
          "name": "_id",
          "type": "uint256"
        }
      ],
      "name": "getDonations",
      "outputs": [
        {
          "components": [
            {
              "internalType": "address",
              "name": "contributor",
              "type": "address"
            },
            {
              "internalType": "uint256",
              "name": "amount",
              "type": "uint256"
            },
            {
              "internalType": "string",
              "name": "comment",
              "type": "string"
            }
          ],
          "internalType": "struct Crowdfunding.Donation[]",
          "name": "",
          "type": "tuple[]"
        }
      ],
      "stateMutability": "view",
      "type": "function",
      "constant": true
    }
  ],
  "bytecode": "0x60806040526000805534801561001457600080fd5b50611b26806100246000396000f3fe60806040526004361061007b5760003560e01c80633e721abe1161004e5780633e721abe1461015557806348f7b12e14610171578063596d9ce2146101b057806394ba9709146101ed5761007b565b8063107046bd14610080578063155dd5ee146100c457806336fbad26146100ed5780633d891f5914610118575b600080fd5b34801561008c57600080fd5b506100a760048036038101906100a29190610f90565b610216565b6040516100bb9897969594939291906116b1565b60405180910390f35b3480156100d057600080fd5b506100eb60048036038101906100e69190610f90565b61039b565b005b3480156100f957600080fd5b506101026105c0565b60405161010f9190611696565b60405180910390f35b34801561012457600080fd5b5061013f600480360381019061013a9190610fb9565b6105c6565b60405161014c9190611696565b60405180910390f35b61016f600480360381019061016a9190610ff5565b6105eb565b005b34801561017d57600080fd5b5061019860048036038101906101939190611049565b6108bf565b6040516101a7939291906114f6565b60405180910390f35b3480156101bc57600080fd5b506101d760048036038101906101d29190610f90565b6109ae565b6040516101e49190611534565b60405180910390f35b3480156101f957600080fd5b50610214600480360381019061020f9190610efd565b610b12565b005b600160205280600052604060002060009150905080600001549080600101805461023f906119a9565b80601f016020809104026020016040519081016040528092919081815260200182805461026b906119a9565b80156102b85780601f1061028d576101008083540402835291602001916102b8565b820191906000526020600020905b81548152906001019060200180831161029b57829003601f168201915b5050505050908060020180546102cd906119a9565b80601f01602080910402602001604051908101604052809291908181526020018280546102f9906119a9565b80156103465780601f1061031b57610100808354040283529160200191610346565b820191906000526020600020905b81548152906001019060200180831161032957829003601f168201915b5050505050908060030154908060040154908060050160009054906101000a900473ffffffffffffffffffffffffffffffffffffffff16908060050160149054906101000a900460ff16908060060154905088565b60006001600083815260200190815260200160002090508060050160009054906101000a900473ffffffffffffffffffffffffffffffffffffffff1673ffffffffffffffffffffffffffffffffffffffff163373ffffffffffffffffffffffffffffffffffffffff1614610444576040517f08c379a000000000000000000000000000000000000000000000000000000000815260040161043b90611576565b60405180910390fd5b80600301548160040154101561048f576040517f08c379a000000000000000000000000000000000000000000000000000000000815260040161048690611556565b60405180910390fd5b600015158160050160149054906101000a900460ff161515146104e7576040517f08c379a00000000000000000000000000000000000000000000000000000000081526004016104de906115d6565b60405180910390fd5b6000816004015490506000826004018190555060008260050160146101000a81548160ff0219169083151502179055508160050160009054906101000a900473ffffffffffffffffffffffffffffffffffffffff1673ffffffffffffffffffffffffffffffffffffffff166108fc829081150290604051600060405180830381858888f19350505050158015610581573d6000803e3d6000fd5b507fd66662c0ded9e58fd31d5e44944bcfd07ffc15e6927ecc1382e7941cb7bd24c483826040516105b3929190611789565b60405180910390a1505050565b60005481565b6003602052816000526040600020602052806000526040600020600091509150505481565b60006001600084815260200190815260200160002090508060050160149054906101000a900460ff16610653576040517f08c379a000000000000000000000000000000000000000000000000000000000815260040161064a90611596565b60405180910390fd5b80600601544210610699576040517f08c379a0000000000000000000000000000000000000000000000000000000008152600401610690906115f6565b60405180910390fd5b600034116106dc576040517f08c379a00000000000000000000000000000000000000000000000000000000081526004016106d390611636565b60405180910390fd5b348160040160008282546106f091906118b7565b92505081905550346003600085815260200190815260200160002060003373ffffffffffffffffffffffffffffffffffffffff1673ffffffffffffffffffffffffffffffffffffffff168152602001908152602001600020600082825461075791906118b7565b925050819055506002600084815260200190815260200160002060405180606001604052803373ffffffffffffffffffffffffffffffffffffffff16815260200134815260200184815250908060018154018082558091505060019003906000526020600020906003020160009091909190915060008201518160000160006101000a81548173ffffffffffffffffffffffffffffffffffffffff021916908373ffffffffffffffffffffffffffffffffffffffff160217905550602082015181600101556040820151816002019080519060200190610838929190610dc8565b5050503373ffffffffffffffffffffffffffffffffffffffff167ffc0418dc9fde906ae69e1b2d0d6f1fa844f1c42aaee1b53b9dabf712a5bcdec0843485604051610885939291906117b2565b60405180910390a280600301548160040154106108ba5760008160050160146101000a81548160ff0219169083151502179055505b505050565b600260205281600052604060002081815481106108db57600080fd5b9060005260206000209060030201600091509150508060000160009054906101000a900473ffffffffffffffffffffffffffffffffffffffff169080600101549080600201805461092b906119a9565b80601f0160208091040260200160405190810160405280929190818152602001828054610957906119a9565b80156109a45780601f10610979576101008083540402835291602001916109a4565b820191906000526020600020905b81548152906001019060200180831161098757829003601f168201915b5050505050905083565b606060026000838152602001908152602001600020805480602002602001604051908101604052809291908181526020016000905b82821015610b0757838290600052602060002090600302016040518060600160405290816000820160009054906101000a900473ffffffffffffffffffffffffffffffffffffffff1673ffffffffffffffffffffffffffffffffffffffff1673ffffffffffffffffffffffffffffffffffffffff16815260200160018201548152602001600282018054610a76906119a9565b80601f0160208091040260200160405190810160405280929190818152602001828054610aa2906119a9565b8015610aef5780601f10610ac457610100808354040283529160200191610aef565b820191906000526020600020905b815481529060010190602001808311610ad257829003601f168201915b505050505081525050815260200190600101906109e3565b505050509050919050565b6000845111610b56576040517f08c379a0000000000000000000000000000000000000000000000000000000008152600401610b4d90611616565b60405180910390fd5b6000835111610b9a576040517f08c379a0000000000000000000000000000000000000000000000000000000008152600401610b9190611676565b60405180910390fd5b60008211610bdd576040517f08c379a0000000000000000000000000000000000000000000000000000000008152600401610bd4906115b6565b60405180910390fd5b428111610c1f576040517f08c379a0000000000000000000000000000000000000000000000000000000008152600401610c1690611656565b60405180910390fd5b600080815480929190610c31906119db565b91905055506040518061010001604052806000548152602001858152602001848152602001838152602001600081526020013373ffffffffffffffffffffffffffffffffffffffff168152602001600115158152602001828152506001600080548152602001908152602001600020600082015181600001556020820151816001019080519060200190610cc6929190610dc8565b506040820151816002019080519060200190610ce3929190610dc8565b50606082015181600301556080820151816004015560a08201518160050160006101000a81548173ffffffffffffffffffffffffffffffffffffffff021916908373ffffffffffffffffffffffffffffffffffffffff16021790555060c08201518160050160146101000a81548160ff02191690831515021790555060e082015181600601559050503373ffffffffffffffffffffffffffffffffffffffff167f483013d4a1d5e8ba43089bda8f1a92b959e32d6fc582556f800267dd809e5893600054868585604051610dba949392919061173d565b60405180910390a250505050565b828054610dd4906119a9565b90600052602060002090601f016020900481019282610df65760008555610e3d565b82601f10610e0f57805160ff1916838001178555610e3d565b82800160010185558215610e3d579182015b82811115610e3c578251825591602001919060010190610e21565b5b509050610e4a9190610e4e565b5090565b5b80821115610e67576000816000905550600101610e4f565b5090565b6000610e7e610e7984611821565b6117f0565b905082815260208101848484011115610e9657600080fd5b610ea1848285611967565b509392505050565b600081359050610eb881611ac2565b92915050565b600082601f830112610ecf57600080fd5b8135610edf848260208601610e6b565b91505092915050565b600081359050610ef781611ad9565b92915050565b60008060008060808587031215610f1357600080fd5b600085013567ffffffffffffffff811115610f2d57600080fd5b610f3987828801610ebe565b945050602085013567ffffffffffffffff811115610f5657600080fd5b610f6287828801610ebe565b9350506040610f7387828801610ee8565b9250506060610f8487828801610ee8565b91505092959194509250565b600060208284031215610fa257600080fd5b6000610fb084828501610ee8565b91505092915050565b60008060408385031215610fcc57600080fd5b6000610fda85828601610ee8565b9250506020610feb85828601610ea9565b9150509250929050565b6000806040838503121561100857600080fd5b600061101685828601610ee8565b925050602083013567ffffffffffffffff81111561103357600080fd5b61103f85828601610ebe565b9150509250929050565b6000806040838503121561105c57600080fd5b600061106a85828601610ee8565b925050602061107b85828601610ee8565b9150509250929050565b60006110918383611488565b905092915050565b6110a28161191f565b82525050565b6110b18161190d565b82525050565b6110c08161190d565b82525050565b60006110d182611861565b6110db8185611884565b9350836020820285016110ed85611851565b8060005b85811015611129578484038952815161110a8582611085565b945061111583611877565b925060208a019950506001810190506110f1565b50829750879550505050505092915050565b61114481611931565b82525050565b60006111558261186c565b61115f8185611895565b935061116f818560208601611976565b61117881611ab1565b840191505092915050565b600061118e8261186c565b61119881856118a6565b93506111a8818560208601611976565b6111b181611ab1565b840191505092915050565b60006111c96018836118a6565b91507f46756e64696e6720676f616c206e6f74207265616368656400000000000000006000830152602082019050919050565b6000611209601f836118a6565b91507f4f6e6c792063726561746f722063616e2077697468647261772066756e6473006000830152602082019050919050565b6000611249601f836118a6565b91507f50726f6a656374206973206e6f74206f70656e20666f722066756e64696e67006000830152602082019050919050565b60006112896026836118a6565b91507f46756e64696e6720676f616c206d75737420626520677265617465722074686160008301527f6e207a65726f00000000000000000000000000000000000000000000000000006020830152604082019050919050565b60006112ef6015836118a6565b91507f50726f6a656374206973207374696c6c206f70656e00000000000000000000006000830152602082019050919050565b600061132f601b836118a6565b91507f46756e64696e6720646561646c696e65206861732070617373656400000000006000830152602082019050919050565b600061136f6011836118a6565b91507f5469746c652069732072657175697265640000000000000000000000000000006000830152602082019050919050565b60006113af6026836118a6565b91507f436f6e747269627574696f6e206d75737420626520677265617465722074686160008301527f6e207a65726f00000000000000000000000000000000000000000000000000006020830152604082019050919050565b6000611415601e836118a6565b91507f446561646c696e65206d75737420626520696e207468652066757475726500006000830152602082019050919050565b60006114556017836118a6565b91507f4465736372697074696f6e2069732072657175697265640000000000000000006000830152602082019050919050565b60006060830160008301516114a060008601826110a8565b5060208301516114b360208601826114d8565b50604083015184820360408601526114cb828261114a565b9150508091505092915050565b6114e18161195d565b82525050565b6114f08161195d565b82525050565b600060608201905061150b60008301866110b7565b61151860208301856114e7565b818103604083015261152a8184611183565b9050949350505050565b6000602082019050818103600083015261154e81846110c6565b905092915050565b6000602082019050818103600083015261156f816111bc565b9050919050565b6000602082019050818103600083015261158f816111fc565b9050919050565b600060208201905081810360008301526115af8161123c565b9050919050565b600060208201905081810360008301526115cf8161127c565b9050919050565b600060208201905081810360008301526115ef816112e2565b9050919050565b6000602082019050818103600083015261160f81611322565b9050919050565b6000602082019050818103600083015261162f81611362565b9050919050565b6000602082019050818103600083015261164f816113a2565b9050919050565b6000602082019050818103600083015261166f81611408565b9050919050565b6000602082019050818103600083015261168f81611448565b9050919050565b60006020820190506116ab60008301846114e7565b92915050565b6000610100820190506116c7600083018b6114e7565b81810360208301526116d9818a611183565b905081810360408301526116ed8189611183565b90506116fc60608301886114e7565b61170960808301876114e7565b61171660a0830186611099565b61172360c083018561113b565b61173060e08301846114e7565b9998505050505050505050565b600060808201905061175260008301876114e7565b81810360208301526117648186611183565b905061177360408301856114e7565b61178060608301846114e7565b95945050505050565b600060408201905061179e60008301856114e7565b6117ab60208301846114e7565b9392505050565b60006060820190506117c760008301866114e7565b6117d460208301856114e7565b81810360408301526117e68184611183565b9050949350505050565b6000604051905081810181811067ffffffffffffffff8211171561181757611816611a82565b5b8060405250919050565b600067ffffffffffffffff82111561183c5761183b611a82565b5b601f19601f8301169050602081019050919050565b6000819050602082019050919050565b600081519050919050565b600081519050919050565b6000602082019050919050565b600082825260208201905092915050565b600082825260208201905092915050565b600082825260208201905092915050565b60006118c28261195d565b91506118cd8361195d565b9250827fffffffffffffffffffffffffffffffffffffffffffffffffffffffffffffffff0382111561190257611901611a24565b5b828201905092915050565b60006119188261193d565b9050919050565b600061192a8261193d565b9050919050565b60008115159050919050565b600073ffffffffffffffffffffffffffffffffffffffff82169050919050565b6000819050919050565b82818337600083830152505050565b60005b83811015611994578082015181840152602081019050611979565b838111156119a3576000848401525b50505050565b600060028204905060018216806119c157607f821691505b602082108114156119d5576119d4611a53565b5b50919050565b60006119e68261195d565b91507fffffffffffffffffffffffffffffffffffffffffffffffffffffffffffffffff821415611a1957611a18611a24565b5b600182019050919050565b7f4e487b7100000000000000000000000000000000000000000000000000000000600052601160045260246000fd5b7f4e487b7100000000000000000000000000000000000000000000000000000000600052602260045260246000fd5b7f4e487b7100000000000000000000000000000000000000000000000000000000600052604160045260246000fd5b6000601f19601f8301169050919050565b611acb8161190d565b8114611ad657600080fd5b50565b611ae28161195d565b8114611aed57600080fd5b5056fea264697066735822122048816ecfbecc301d4e4d958b4a5b07ca9562cec033696451471c44f8b14d882964736f6c63430008000033",
  "immutableReferences": {},
  "source": "// SPDX-License-Identifier: MIT\r\npragma solidity ^0.8.0;\r\n\r\ncontract Crowdfunding {\r\n    struct Project {\r\n        uint256 id;\r\n        string title;\r\n        string description;\r\n        uint256 fundingGoal; // In Wei\r\n        uint256 totalFunds;  // In Wei\r\n        address payable creator;\r\n        bool isOpen;\r\n        uint256 deadline; // Timestamp\r\n    }\r\n\r\n    struct Donation {\r\n        address contributor;\r\n        uint256 amount;   // In Wei\r\n        string comment;\r\n    }\r\n\r\n    uint256 public projectCount = 0;\r\n    mapping(uint256 => Project) public projects;\r\n    mapping(uint256 => Donation[]) public donations; // projectId => Donation[]\r\n    mapping(uint256 => mapping(address => uint256)) public contributions; // projectId => contributor => amount\r\n\r\n    event ProjectCreated(\r\n        uint256 id,\r\n        address indexed creator,\r\n        string title,\r\n        uint256 fundingGoal,\r\n        uint256 deadline\r\n    );\r\n\r\n    event Funded(\r\n        uint256 id,\r\n        address indexed contributor,\r\n        uint256 amount,\r\n        string comment\r\n    );\r\n\r\n    event FundsWithdrawn(uint256 id, uint256 amount);\r\n\r\n    // Create a new project\r\n    function createProject(\r\n        string memory _title,\r\n        string memory _description,\r\n        uint256 _fundingGoal, // In Wei\r\n        uint256 _deadline      // Timestamp\r\n    ) public {\r\n        require(bytes(_title).length > 0, \"Title is required\");\r\n        require(bytes(_description).length > 0, \"Description is required\");\r\n        require(_fundingGoal > 0, \"Funding goal must be greater than zero\");\r\n        require(_deadline > block.timestamp, \"Deadline must be in the future\");\r\n\r\n        projectCount++;\r\n        projects[projectCount] = Project(\r\n            projectCount,\r\n            _title,\r\n            _description,\r\n            _fundingGoal,\r\n            0,\r\n            payable(msg.sender),\r\n            true,\r\n            _deadline\r\n        );\r\n\r\n        emit ProjectCreated(\r\n            projectCount,\r\n            msg.sender,\r\n            _title,\r\n            _fundingGoal,\r\n            _deadline\r\n        );\r\n    }\r\n\r\n    // Fund a project\r\n    function fundProject(uint256 _id, string memory _comment) public payable {\r\n        Project storage project = projects[_id];\r\n        require(project.isOpen, \"Project is not open for funding\");\r\n        require(block.timestamp < project.deadline, \"Funding deadline has passed\");\r\n        require(msg.value > 0, \"Contribution must be greater than zero\");\r\n\r\n        project.totalFunds += msg.value;\r\n        contributions[_id][msg.sender] += msg.value;\r\n\r\n        donations[_id].push(Donation(msg.sender, msg.value, _comment));\r\n\r\n        emit Funded(_id, msg.sender, msg.value, _comment);\r\n\r\n        // Close project if funding goal is reached\r\n        if (project.totalFunds >= project.fundingGoal) {\r\n            project.isOpen = false;\r\n        }\r\n    }\r\n\r\n    // Withdraw funds from a project\r\n    function withdrawFunds(uint256 _id) public {\r\n        Project storage project = projects[_id];\r\n        require(msg.sender == project.creator, \"Only creator can withdraw funds\");\r\n        require(project.totalFunds >= project.fundingGoal, \"Funding goal not reached\");\r\n        require(project.isOpen == false, \"Project is still open\");\r\n\r\n        uint256 amount = project.totalFunds;\r\n        project.totalFunds = 0;\r\n        project.isOpen = false;\r\n\r\n        project.creator.transfer(amount);\r\n\r\n        emit FundsWithdrawn(_id, amount);\r\n    }\r\n\r\n    // Get all donations for a project\r\n    function getDonations(uint256 _id) public view returns (Donation[] memory) {\r\n        return donations[_id];\r\n    }\r\n}\r\n",
  "sourcePath": "D:\\adv blockchain project\\final term project\\decentralized-crowdfunding\\contracts\\Crowdfunding.sol",
  "compiler": {
    "name": "solc",
    "version": "0.8.0+commit.c7dfd78e.Emscripten.clang"
  },
  "schemaVersion": "3.4.16",
  "updatedAt": "2024-12-06T09:15:57.561Z",
  "networkType": "ethereum",
  "devdoc": {
    "kind": "dev",
    "methods": {},
    "version": 1
  },
  "userdoc": {
    "kind": "user",
    "methods": {},
    "version": 1
  }
}