{
  "contractName": "Crowdfunding",
  "abi": [
    {
      "anonymous": false,
      "inputs": [
        {
          "indexed": false,
          "internalType": "uint256",
          "name": "id",
          "type": "uint256"
        },
        {
          "indexed": false,
          "internalType": "address",
          "name": "contributor",
          "type": "address"
        },
        {
          "indexed": false,
          "internalType": "uint256",
          "name": "amount",
          "type": "uint256"
        }
      ],
      "name": "Funded",
      "type": "event"
    },
    {
      "anonymous": false,
      "inputs": [
        {
          "indexed": false,
          "internalType": "uint256",
          "name": "id",
          "type": "uint256"
        },
        {
          "indexed": false,
          "internalType": "uint256",
          "name": "amount",
          "type": "uint256"
        }
      ],
      "name": "FundsWithdrawn",
      "type": "event"
    },
    {
      "anonymous": false,
      "inputs": [
        {
          "indexed": false,
          "internalType": "uint256",
          "name": "id",
          "type": "uint256"
        },
        {
          "indexed": false,
          "internalType": "address",
          "name": "creator",
          "type": "address"
        },
        {
          "indexed": false,
          "internalType": "string",
          "name": "title",
          "type": "string"
        },
        {
          "indexed": false,
          "internalType": "uint256",
          "name": "fundingGoal",
          "type": "uint256"
        }
      ],
      "name": "ProjectCreated",
      "type": "event"
    },
    {
      "inputs": [
        {
          "internalType": "uint256",
          "name": "",
          "type": "uint256"
        },
        {
          "internalType": "address",
          "name": "",
          "type": "address"
        }
      ],
      "name": "contributions",
      "outputs": [
        {
          "internalType": "uint256",
          "name": "",
          "type": "uint256"
        }
      ],
      "stateMutability": "view",
      "type": "function",
      "constant": true
    },
    {
      "inputs": [],
      "name": "projectCount",
      "outputs": [
        {
          "internalType": "uint256",
          "name": "",
          "type": "uint256"
        }
      ],
      "stateMutability": "view",
      "type": "function",
      "constant": true
    },
    {
      "inputs": [
        {
          "internalType": "uint256",
          "name": "",
          "type": "uint256"
        }
      ],
      "name": "projects",
      "outputs": [
        {
          "internalType": "uint256",
          "name": "id",
          "type": "uint256"
        },
        {
          "internalType": "address payable",
          "name": "creator",
          "type": "address"
        },
        {
          "internalType": "string",
          "name": "title",
          "type": "string"
        },
        {
          "internalType": "string",
          "name": "description",
          "type": "string"
        },
        {
          "internalType": "uint256",
          "name": "fundingGoal",
          "type": "uint256"
        },
        {
          "internalType": "uint256",
          "name": "totalFunds",
          "type": "uint256"
        },
        {
          "internalType": "bool",
          "name": "isOpen",
          "type": "bool"
        }
      ],
      "stateMutability": "view",
      "type": "function",
      "constant": true
    },
    {
      "inputs": [
        {
          "internalType": "string",
          "name": "_title",
          "type": "string"
        },
        {
          "internalType": "string",
          "name": "_description",
          "type": "string"
        },
        {
          "internalType": "uint256",
          "name": "_fundingGoal",
          "type": "uint256"
        }
      ],
      "name": "createProject",
      "outputs": [],
      "stateMutability": "nonpayable",
      "type": "function"
    },
    {
      "inputs": [
        {
          "internalType": "uint256",
          "name": "_id",
          "type": "uint256"
        }
      ],
      "name": "fundProject",
      "outputs": [],
      "stateMutability": "payable",
      "type": "function",
      "payable": true
    },
    {
      "inputs": [
        {
          "internalType": "uint256",
          "name": "_id",
          "type": "uint256"
        }
      ],
      "name": "withdrawFunds",
      "outputs": [],
      "stateMutability": "nonpayable",
      "type": "function"
    }
  ],
  "bytecode": "0x60806040526000805534801561001457600080fd5b506111b4806100246000396000f3fe6080604052600436106100555760003560e01c8063107046bd1461005a578063155dd5ee1461009d57806323c55448146100c657806336fbad26146100ef5780633d891f591461011a5780636c563abe14610157575b600080fd5b34801561006657600080fd5b50610081600480360381019061007c9190610a1e565b610173565b6040516100949796959493929190610d9f565b60405180910390f35b3480156100a957600080fd5b506100c460048036038101906100bf9190610a1e565b6102f2565b005b3480156100d257600080fd5b506100ed60048036038101906100e8919061099f565b610510565b005b3480156100fb57600080fd5b506101046106d3565b6040516101119190610d84565b60405180910390f35b34801561012657600080fd5b50610141600480360381019061013c9190610a47565b6106d9565b60405161014e9190610d84565b60405180910390f35b610171600480360381019061016c9190610a1e565b6106fe565b005b60016020528060005260406000206000915090508060000154908060010160009054906101000a900473ffffffffffffffffffffffffffffffffffffffff16908060020180546101c290611037565b80601f01602080910402602001604051908101604052809291908181526020018280546101ee90611037565b801561023b5780601f106102105761010080835404028352916020019161023b565b820191906000526020600020905b81548152906001019060200180831161021e57829003601f168201915b50505050509080600301805461025090611037565b80601f016020809104026020016040519081016040528092919081815260200182805461027c90611037565b80156102c95780601f1061029e576101008083540402835291602001916102c9565b820191906000526020600020905b8154815290600101906020018083116102ac57829003601f168201915b5050505050908060040154908060050154908060060160009054906101000a900460ff16905087565b60006001600083815260200190815260200160002090508060010160009054906101000a900473ffffffffffffffffffffffffffffffffffffffff1673ffffffffffffffffffffffffffffffffffffffff163373ffffffffffffffffffffffffffffffffffffffff161461039b576040517f08c379a000000000000000000000000000000000000000000000000000000000815260040161039290610ce4565b60405180910390fd5b8060040154816005015410156103e6576040517f08c379a00000000000000000000000000000000000000000000000000000000081526004016103dd90610cc4565b60405180910390fd5b8060060160009054906101000a900460ff16610437576040517f08c379a000000000000000000000000000000000000000000000000000000000815260040161042e90610d64565b60405180910390fd5b6000816005015490506000826005018190555060008260060160006101000a81548160ff0219169083151502179055508160010160009054906101000a900473ffffffffffffffffffffffffffffffffffffffff1673ffffffffffffffffffffffffffffffffffffffff166108fc829081150290604051600060405180830381858888f193505050501580156104d1573d6000803e3d6000fd5b507fd66662c0ded9e58fd31d5e44944bcfd07ffc15e6927ecc1382e7941cb7bd24c48382604051610503929190610e9f565b60405180910390a1505050565b60008111610553576040517f08c379a000000000000000000000000000000000000000000000000000000000815260040161054a90610d24565b60405180910390fd5b60008081548092919061056590611069565b91905055506040518060e0016040528060005481526020013373ffffffffffffffffffffffffffffffffffffffff168152602001848152602001838152602001828152602001600081526020016001151581525060016000805481526020019081526020016000206000820151816000015560208201518160010160006101000a81548173ffffffffffffffffffffffffffffffffffffffff021916908373ffffffffffffffffffffffffffffffffffffffff160217905550604082015181600201908051906020019061063a92919061086a565b50606082015181600301908051906020019061065792919061086a565b506080820151816004015560a0820151816005015560c08201518160060160006101000a81548160ff0219169083151502179055509050507f51d08cb6cfa640a387210fb69df925dfb70169ae7373f8ecd40b977b0c800d9a6000543385846040516106c69493929190610e1c565b60405180910390a1505050565b60005481565b6002602052816000526040600020602052806000526040600020600091509150505481565b60006001600083815260200190815260200160002090508060060160009054906101000a900460ff16610766576040517f08c379a000000000000000000000000000000000000000000000000000000000815260040161075d90610d04565b60405180910390fd5b600034116107a9576040517f08c379a00000000000000000000000000000000000000000000000000000000081526004016107a090610d44565b60405180910390fd5b348160050160008282546107bd9190610f45565b92505081905550346002600084815260200190815260200160002060003373ffffffffffffffffffffffffffffffffffffffff1673ffffffffffffffffffffffffffffffffffffffff16815260200190815260200160002060008282546108249190610f45565b925050819055507f38c48552690c96ec2872092ac1db6c19fb59f5a8c5b49bbf41ed4886d0ca692682333460405161085e93929190610e68565b60405180910390a15050565b82805461087690611037565b90600052602060002090601f01602090048101928261089857600085556108df565b82601f106108b157805160ff19168380011785556108df565b828001600101855582156108df579182015b828111156108de5782518255916020019190600101906108c3565b5b5090506108ec91906108f0565b5090565b5b808211156109095760008160009055506001016108f1565b5090565b600061092061091b84610ef9565b610ec8565b90508281526020810184848401111561093857600080fd5b610943848285610ff5565b509392505050565b60008135905061095a81611150565b92915050565b600082601f83011261097157600080fd5b813561098184826020860161090d565b91505092915050565b60008135905061099981611167565b92915050565b6000806000606084860312156109b457600080fd5b600084013567ffffffffffffffff8111156109ce57600080fd5b6109da86828701610960565b935050602084013567ffffffffffffffff8111156109f757600080fd5b610a0386828701610960565b9250506040610a148682870161098a565b9150509250925092565b600060208284031215610a3057600080fd5b6000610a3e8482850161098a565b91505092915050565b60008060408385031215610a5a57600080fd5b6000610a688582860161098a565b9250506020610a798582860161094b565b9150509250929050565b610a8c81610fad565b82525050565b610a9b81610f9b565b82525050565b610aaa81610fbf565b82525050565b6000610abb82610f29565b610ac58185610f34565b9350610ad5818560208601611004565b610ade8161113f565b840191505092915050565b6000610af6601883610f34565b91507f46756e64696e6720676f616c206e6f74207265616368656400000000000000006000830152602082019050919050565b6000610b36601f83610f34565b91507f4f6e6c792063726561746f722063616e2077697468647261772066756e6473006000830152602082019050919050565b6000610b76601f83610f34565b91507f50726f6a656374206973206e6f74206f70656e20666f722066756e64696e67006000830152602082019050919050565b6000610bb6602683610f34565b91507f46756e64696e6720676f616c206d75737420626520677265617465722074686160008301527f6e207a65726f00000000000000000000000000000000000000000000000000006020830152604082019050919050565b6000610c1c602683610f34565b91507f436f6e747269627574696f6e206d75737420626520677265617465722074686160008301527f6e207a65726f00000000000000000000000000000000000000000000000000006020830152604082019050919050565b6000610c82601983610f34565b91507f50726f6a65637420697320616c726561647920636c6f736564000000000000006000830152602082019050919050565b610cbe81610feb565b82525050565b60006020820190508181036000830152610cdd81610ae9565b9050919050565b60006020820190508181036000830152610cfd81610b29565b9050919050565b60006020820190508181036000830152610d1d81610b69565b9050919050565b60006020820190508181036000830152610d3d81610ba9565b9050919050565b60006020820190508181036000830152610d5d81610c0f565b9050919050565b60006020820190508181036000830152610d7d81610c75565b9050919050565b6000602082019050610d996000830184610cb5565b92915050565b600060e082019050610db4600083018a610cb5565b610dc16020830189610a83565b8181036040830152610dd38188610ab0565b90508181036060830152610de78187610ab0565b9050610df66080830186610cb5565b610e0360a0830185610cb5565b610e1060c0830184610aa1565b98975050505050505050565b6000608082019050610e316000830187610cb5565b610e3e6020830186610a92565b8181036040830152610e508185610ab0565b9050610e5f6060830184610cb5565b95945050505050565b6000606082019050610e7d6000830186610cb5565b610e8a6020830185610a92565b610e976040830184610cb5565b949350505050565b6000604082019050610eb46000830185610cb5565b610ec16020830184610cb5565b9392505050565b6000604051905081810181811067ffffffffffffffff82111715610eef57610eee611110565b5b8060405250919050565b600067ffffffffffffffff821115610f1457610f13611110565b5b601f19601f8301169050602081019050919050565b600081519050919050565b600082825260208201905092915050565b6000610f5082610feb565b9150610f5b83610feb565b9250827fffffffffffffffffffffffffffffffffffffffffffffffffffffffffffffffff03821115610f9057610f8f6110b2565b5b828201905092915050565b6000610fa682610fcb565b9050919050565b6000610fb882610fcb565b9050919050565b60008115159050919050565b600073ffffffffffffffffffffffffffffffffffffffff82169050919050565b6000819050919050565b82818337600083830152505050565b60005b83811015611022578082015181840152602081019050611007565b83811115611031576000848401525b50505050565b6000600282049050600182168061104f57607f821691505b60208210811415611063576110626110e1565b5b50919050565b600061107482610feb565b91507fffffffffffffffffffffffffffffffffffffffffffffffffffffffffffffffff8214156110a7576110a66110b2565b5b600182019050919050565b7f4e487b7100000000000000000000000000000000000000000000000000000000600052601160045260246000fd5b7f4e487b7100000000000000000000000000000000000000000000000000000000600052602260045260246000fd5b7f4e487b7100000000000000000000000000000000000000000000000000000000600052604160045260246000fd5b6000601f19601f8301169050919050565b61115981610f9b565b811461116457600080fd5b50565b61117081610feb565b811461117b57600080fd5b5056fea26469706673582212207179115dc9eb4830c8ef5b299cf2b2d177f18a40c23d533e498d32f5aa4c289f64736f6c63430008000033",
  "immutableReferences": {},
  "source": "// SPDX-License-Identifier: MIT\r\npragma solidity ^0.8.0;\r\n\r\ncontract Crowdfunding {\r\n    struct Project {\r\n        uint256 id;\r\n        address payable creator;\r\n        string title;\r\n        string description;\r\n        uint256 fundingGoal;\r\n        uint256 totalFunds;\r\n        bool isOpen;\r\n    }\r\n\r\n    uint256 public projectCount = 0;\r\n    mapping(uint256 => Project) public projects;\r\n    mapping(uint256 => mapping(address => uint256)) public contributions;\r\n\r\n    event ProjectCreated(\r\n        uint256 id,\r\n        address creator,\r\n        string title,\r\n        uint256 fundingGoal\r\n    );\r\n\r\n    event Funded(\r\n        uint256 id,\r\n        address contributor,\r\n        uint256 amount\r\n    );\r\n\r\n    event FundsWithdrawn(\r\n        uint256 id,\r\n        uint256 amount\r\n    );\r\n\r\n    function createProject(\r\n        string memory _title,\r\n        string memory _description,\r\n        uint256 _fundingGoal\r\n    ) public {\r\n        require(_fundingGoal > 0, \"Funding goal must be greater than zero\");\r\n\r\n        projectCount++;\r\n        projects[projectCount] = Project(\r\n            projectCount,\r\n            payable(msg.sender),\r\n            _title,\r\n            _description,\r\n            _fundingGoal,\r\n            0,\r\n            true\r\n        );\r\n\r\n        emit ProjectCreated(projectCount, msg.sender, _title, _fundingGoal);\r\n    }\r\n\r\n    function fundProject(uint256 _id) public payable {\r\n        Project storage project = projects[_id];\r\n        require(project.isOpen, \"Project is not open for funding\");\r\n        require(msg.value > 0, \"Contribution must be greater than zero\");\r\n\r\n        project.totalFunds += msg.value;\r\n        contributions[_id][msg.sender] += msg.value;\r\n\r\n        emit Funded(_id, msg.sender, msg.value);\r\n    }\r\n\r\n    function withdrawFunds(uint256 _id) public {\r\n        Project storage project = projects[_id];\r\n        require(msg.sender == project.creator, \"Only creator can withdraw funds\");\r\n        require(project.totalFunds >= project.fundingGoal, \"Funding goal not reached\");\r\n        require(project.isOpen, \"Project is already closed\");\r\n\r\n        uint256 amount = project.totalFunds;\r\n        project.totalFunds = 0;\r\n        project.isOpen = false;\r\n\r\n        project.creator.transfer(amount);\r\n\r\n        emit FundsWithdrawn(_id, amount);\r\n    }\r\n}\r\n",
  "sourcePath": "D:\\adv blockchain project\\final term project\\decentralized-crowdfunding\\contracts\\Crowdfunding.sol",
  "compiler": {
    "name": "solc",
    "version": "0.8.0+commit.c7dfd78e.Emscripten.clang"
  },
  "schemaVersion": "3.4.16",
  "updatedAt": "2024-11-25T06:21:21.200Z",
  "networkType": "ethereum",
  "devdoc": {
    "kind": "dev",
    "methods": {},
    "version": 1
  },
  "userdoc": {
    "kind": "user",
    "methods": {},
    "version": 1
  }
}