{
  "contractName": "Crowdfunding",
  "abi": [
    {
      "anonymous": false,
      "inputs": [
        {
          "indexed": false,
          "internalType": "uint256",
          "name": "id",
          "type": "uint256"
        },
        {
          "indexed": true,
          "internalType": "address",
          "name": "contributor",
          "type": "address"
        },
        {
          "indexed": false,
          "internalType": "uint256",
          "name": "amount",
          "type": "uint256"
        },
        {
          "indexed": false,
          "internalType": "string",
          "name": "comment",
          "type": "string"
        }
      ],
      "name": "Funded",
      "type": "event"
    },
    {
      "anonymous": false,
      "inputs": [
        {
          "indexed": false,
          "internalType": "uint256",
          "name": "id",
          "type": "uint256"
        },
        {
          "indexed": false,
          "internalType": "uint256",
          "name": "amount",
          "type": "uint256"
        }
      ],
      "name": "FundsWithdrawn",
      "type": "event"
    },
    {
      "anonymous": false,
      "inputs": [
        {
          "indexed": false,
          "internalType": "uint256",
          "name": "id",
          "type": "uint256"
        },
        {
          "indexed": true,
          "internalType": "address",
          "name": "creator",
          "type": "address"
        },
        {
          "indexed": false,
          "internalType": "string",
          "name": "title",
          "type": "string"
        },
        {
          "indexed": false,
          "internalType": "uint256",
          "name": "fundingGoal",
          "type": "uint256"
        },
        {
          "indexed": false,
          "internalType": "uint256",
          "name": "deadline",
          "type": "uint256"
        }
      ],
      "name": "ProjectCreated",
      "type": "event"
    },
    {
      "inputs": [
        {
          "internalType": "uint256",
          "name": "",
          "type": "uint256"
        },
        {
          "internalType": "address",
          "name": "",
          "type": "address"
        }
      ],
      "name": "contributions",
      "outputs": [
        {
          "internalType": "uint256",
          "name": "",
          "type": "uint256"
        }
      ],
      "stateMutability": "view",
      "type": "function",
      "constant": true
    },
    {
      "inputs": [
        {
          "internalType": "uint256",
          "name": "",
          "type": "uint256"
        },
        {
          "internalType": "uint256",
          "name": "",
          "type": "uint256"
        }
      ],
      "name": "donations",
      "outputs": [
        {
          "internalType": "address",
          "name": "contributor",
          "type": "address"
        },
        {
          "internalType": "uint256",
          "name": "amount",
          "type": "uint256"
        },
        {
          "internalType": "string",
          "name": "comment",
          "type": "string"
        }
      ],
      "stateMutability": "view",
      "type": "function",
      "constant": true
    },
    {
      "inputs": [],
      "name": "multiSigApprover",
      "outputs": [
        {
          "internalType": "contract IMultiSigApprover",
          "name": "",
          "type": "address"
        }
      ],
      "stateMutability": "view",
      "type": "function",
      "constant": true
    },
    {
      "inputs": [],
      "name": "projectCount",
      "outputs": [
        {
          "internalType": "uint256",
          "name": "",
          "type": "uint256"
        }
      ],
      "stateMutability": "view",
      "type": "function",
      "constant": true
    },
    {
      "inputs": [
        {
          "internalType": "uint256",
          "name": "",
          "type": "uint256"
        }
      ],
      "name": "projects",
      "outputs": [
        {
          "internalType": "uint256",
          "name": "id",
          "type": "uint256"
        },
        {
          "internalType": "string",
          "name": "title",
          "type": "string"
        },
        {
          "internalType": "string",
          "name": "description",
          "type": "string"
        },
        {
          "internalType": "uint256",
          "name": "fundingGoal",
          "type": "uint256"
        },
        {
          "internalType": "uint256",
          "name": "totalFunds",
          "type": "uint256"
        },
        {
          "internalType": "address payable",
          "name": "creator",
          "type": "address"
        },
        {
          "internalType": "bool",
          "name": "isOpen",
          "type": "bool"
        },
        {
          "internalType": "uint256",
          "name": "deadline",
          "type": "uint256"
        }
      ],
      "stateMutability": "view",
      "type": "function",
      "constant": true
    },
    {
      "inputs": [
        {
          "internalType": "address",
          "name": "_approver",
          "type": "address"
        }
      ],
      "name": "setMultiSigApprover",
      "outputs": [],
      "stateMutability": "nonpayable",
      "type": "function"
    },
    {
      "inputs": [
        {
          "internalType": "string",
          "name": "_title",
          "type": "string"
        },
        {
          "internalType": "string",
          "name": "_description",
          "type": "string"
        },
        {
          "internalType": "uint256",
          "name": "_fundingGoal",
          "type": "uint256"
        },
        {
          "internalType": "uint256",
          "name": "_deadline",
          "type": "uint256"
        }
      ],
      "name": "createProject",
      "outputs": [],
      "stateMutability": "nonpayable",
      "type": "function"
    },
    {
      "inputs": [
        {
          "internalType": "uint256",
          "name": "_id",
          "type": "uint256"
        },
        {
          "internalType": "string",
          "name": "_comment",
          "type": "string"
        }
      ],
      "name": "fundProject",
      "outputs": [],
      "stateMutability": "payable",
      "type": "function",
      "payable": true
    },
    {
      "inputs": [
        {
          "internalType": "uint256",
          "name": "_id",
          "type": "uint256"
        }
      ],
      "name": "withdrawFunds",
      "outputs": [],
      "stateMutability": "nonpayable",
      "type": "function"
    },
    {
      "inputs": [
        {
          "internalType": "uint256",
          "name": "_id",
          "type": "uint256"
        }
      ],
      "name": "getDonations",
      "outputs": [
        {
          "components": [
            {
              "internalType": "address",
              "name": "contributor",
              "type": "address"
            },
            {
              "internalType": "uint256",
              "name": "amount",
              "type": "uint256"
            },
            {
              "internalType": "string",
              "name": "comment",
              "type": "string"
            }
          ],
          "internalType": "struct Crowdfunding.Donation[]",
          "name": "",
          "type": "tuple[]"
        }
      ],
      "stateMutability": "view",
      "type": "function",
      "constant": true
    }
  ],
  "bytecode": "0x60806040526000805534801561001457600080fd5b50611ffc806100246000396000f3fe6080604052600436106100915760003560e01c806348f7b12e1161005957806348f7b12e14610187578063596d9ce2146101c65780637a3655151461020357806394ba97091461022e578063ffb864131461025757610091565b8063107046bd14610096578063155dd5ee146100da57806336fbad26146101035780633d891f591461012e5780633e721abe1461016b575b600080fd5b3480156100a257600080fd5b506100bd60048036038101906100b891906112bb565b610280565b6040516100d1989796959493929190611b4c565b60405180910390f35b3480156100e657600080fd5b5061010160048036038101906100fc91906112bb565b610405565b005b34801561010f57600080fd5b50610118610789565b6040516101259190611b31565b60405180910390f35b34801561013a57600080fd5b50610155600480360381019061015091906112e4565b61078f565b6040516101629190611b31565b60405180910390f35b61018560048036038101906101809190611320565b6107b4565b005b34801561019357600080fd5b506101ae60048036038101906101a99190611374565b610a88565b6040516101bd93929190611916565b60405180910390f35b3480156101d257600080fd5b506101ed60048036038101906101e891906112bb565b610b77565b6040516101fa9190611954565b60405180910390f35b34801561020f57600080fd5b50610218610cdb565b6040516102259190611976565b60405180910390f35b34801561023a57600080fd5b5061025560048036038101906102509190611228565b610d01565b005b34801561026357600080fd5b5061027e600480360381019061027991906111d6565b610fb7565b005b60016020528060005260406000206000915090508060000154908060010180546102a990611e68565b80601f01602080910402602001604051908101604052809291908181526020018280546102d590611e68565b80156103225780601f106102f757610100808354040283529160200191610322565b820191906000526020600020905b81548152906001019060200180831161030557829003601f168201915b50505050509080600201805461033790611e68565b80601f016020809104026020016040519081016040528092919081815260200182805461036390611e68565b80156103b05780601f10610385576101008083540402835291602001916103b0565b820191906000526020600020905b81548152906001019060200180831161039357829003601f168201915b5050505050908060030154908060040154908060050160009054906101000a900473ffffffffffffffffffffffffffffffffffffffff16908060050160149054906101000a900460ff16908060060154905088565b60006001600083815260200190815260200160002090508060050160009054906101000a900473ffffffffffffffffffffffffffffffffffffffff1673ffffffffffffffffffffffffffffffffffffffff163373ffffffffffffffffffffffffffffffffffffffff16146104ae576040517f08c379a00000000000000000000000000000000000000000000000000000000081526004016104a5906119b1565b60405180910390fd5b8060030154816004015410156104f9576040517f08c379a00000000000000000000000000000000000000000000000000000000081526004016104f090611991565b60405180910390fd5b600015158160050160149054906101000a900460ff16151514610551576040517f08c379a000000000000000000000000000000000000000000000000000000000815260040161054890611a31565b60405180910390fd5b600073ffffffffffffffffffffffffffffffffffffffff16600460009054906101000a900473ffffffffffffffffffffffffffffffffffffffff1673ffffffffffffffffffffffffffffffffffffffff1614156105e3576040517f08c379a00000000000000000000000000000000000000000000000000000000081526004016105da90611a71565b60405180910390fd5b600460009054906101000a900473ffffffffffffffffffffffffffffffffffffffff1673ffffffffffffffffffffffffffffffffffffffff16637910867b836040518263ffffffff1660e01b815260040161063e9190611b31565b60206040518083038186803b15801561065657600080fd5b505afa15801561066a573d6000803e3d6000fd5b505050506040513d601f19601f8201168201806040525081019061068e91906111ff565b6106cd576040517f08c379a00000000000000000000000000000000000000000000000000000000081526004016106c4906119d1565b60405180910390fd5b600081600401549050600082600401819055508160050160009054906101000a900473ffffffffffffffffffffffffffffffffffffffff1673ffffffffffffffffffffffffffffffffffffffff166108fc829081150290604051600060405180830381858888f1935050505015801561074a573d6000803e3d6000fd5b507fd66662c0ded9e58fd31d5e44944bcfd07ffc15e6927ecc1382e7941cb7bd24c4838260405161077c929190611c24565b60405180910390a1505050565b60005481565b6003602052816000526040600020602052806000526040600020600091509150505481565b60006001600084815260200190815260200160002090508060050160149054906101000a900460ff1661081c576040517f08c379a0000000000000000000000000000000000000000000000000000000008152600401610813906119f1565b60405180910390fd5b80600601544210610862576040517f08c379a000000000000000000000000000000000000000000000000000000000815260040161085990611a51565b60405180910390fd5b600034116108a5576040517f08c379a000000000000000000000000000000000000000000000000000000000815260040161089c90611ad1565b60405180910390fd5b348160040160008282546108b99190611d52565b92505081905550346003600085815260200190815260200160002060003373ffffffffffffffffffffffffffffffffffffffff1673ffffffffffffffffffffffffffffffffffffffff16815260200190815260200160002060008282546109209190611d52565b925050819055506002600084815260200190815260200160002060405180606001604052803373ffffffffffffffffffffffffffffffffffffffff16815260200134815260200184815250908060018154018082558091505060019003906000526020600020906003020160009091909190915060008201518160000160006101000a81548173ffffffffffffffffffffffffffffffffffffffff021916908373ffffffffffffffffffffffffffffffffffffffff160217905550602082015181600101556040820151816002019080519060200190610a0192919061108c565b5050503373ffffffffffffffffffffffffffffffffffffffff167ffc0418dc9fde906ae69e1b2d0d6f1fa844f1c42aaee1b53b9dabf712a5bcdec0843485604051610a4e93929190611c4d565b60405180910390a28060030154816004015410610a835760008160050160146101000a81548160ff0219169083151502179055505b505050565b60026020528160005260406000208181548110610aa457600080fd5b9060005260206000209060030201600091509150508060000160009054906101000a900473ffffffffffffffffffffffffffffffffffffffff1690806001015490806002018054610af490611e68565b80601f0160208091040260200160405190810160405280929190818152602001828054610b2090611e68565b8015610b6d5780601f10610b4257610100808354040283529160200191610b6d565b820191906000526020600020905b815481529060010190602001808311610b5057829003601f168201915b5050505050905083565b606060026000838152602001908152602001600020805480602002602001604051908101604052809291908181526020016000905b82821015610cd057838290600052602060002090600302016040518060600160405290816000820160009054906101000a900473ffffffffffffffffffffffffffffffffffffffff1673ffffffffffffffffffffffffffffffffffffffff1673ffffffffffffffffffffffffffffffffffffffff16815260200160018201548152602001600282018054610c3f90611e68565b80601f0160208091040260200160405190810160405280929190818152602001828054610c6b90611e68565b8015610cb85780601f10610c8d57610100808354040283529160200191610cb8565b820191906000526020600020905b815481529060010190602001808311610c9b57829003601f168201915b50505050508152505081526020019060010190610bac565b505050509050919050565b600460009054906101000a900473ffffffffffffffffffffffffffffffffffffffff1681565b6000845111610d45576040517f08c379a0000000000000000000000000000000000000000000000000000000008152600401610d3c90611ab1565b60405180910390fd5b6000835111610d89576040517f08c379a0000000000000000000000000000000000000000000000000000000008152600401610d8090611b11565b60405180910390fd5b60008211610dcc576040517f08c379a0000000000000000000000000000000000000000000000000000000008152600401610dc390611a11565b60405180910390fd5b428111610e0e576040517f08c379a0000000000000000000000000000000000000000000000000000000008152600401610e0590611af1565b60405180910390fd5b600080815480929190610e2090611e9a565b91905055506040518061010001604052806000548152602001858152602001848152602001838152602001600081526020013373ffffffffffffffffffffffffffffffffffffffff168152602001600115158152602001828152506001600080548152602001908152602001600020600082015181600001556020820151816001019080519060200190610eb592919061108c565b506040820151816002019080519060200190610ed292919061108c565b50606082015181600301556080820151816004015560a08201518160050160006101000a81548173ffffffffffffffffffffffffffffffffffffffff021916908373ffffffffffffffffffffffffffffffffffffffff16021790555060c08201518160050160146101000a81548160ff02191690831515021790555060e082015181600601559050503373ffffffffffffffffffffffffffffffffffffffff167f483013d4a1d5e8ba43089bda8f1a92b959e32d6fc582556f800267dd809e5893600054868585604051610fa99493929190611bd8565b60405180910390a250505050565b600073ffffffffffffffffffffffffffffffffffffffff16600460009054906101000a900473ffffffffffffffffffffffffffffffffffffffff1673ffffffffffffffffffffffffffffffffffffffff1614611048576040517f08c379a000000000000000000000000000000000000000000000000000000000815260040161103f90611a91565b60405180910390fd5b80600460006101000a81548173ffffffffffffffffffffffffffffffffffffffff021916908373ffffffffffffffffffffffffffffffffffffffff16021790555050565b82805461109890611e68565b90600052602060002090601f0160209004810192826110ba5760008555611101565b82601f106110d357805160ff1916838001178555611101565b82800160010185558215611101579182015b828111156111005782518255916020019190600101906110e5565b5b50905061110e9190611112565b5090565b5b8082111561112b576000816000905550600101611113565b5090565b600061114261113d84611cbc565b611c8b565b90508281526020810184848401111561115a57600080fd5b611165848285611e26565b509392505050565b60008135905061117c81611f81565b92915050565b60008151905061119181611f98565b92915050565b600082601f8301126111a857600080fd5b81356111b884826020860161112f565b91505092915050565b6000813590506111d081611faf565b92915050565b6000602082840312156111e857600080fd5b60006111f68482850161116d565b91505092915050565b60006020828403121561121157600080fd5b600061121f84828501611182565b91505092915050565b6000806000806080858703121561123e57600080fd5b600085013567ffffffffffffffff81111561125857600080fd5b61126487828801611197565b945050602085013567ffffffffffffffff81111561128157600080fd5b61128d87828801611197565b935050604061129e878288016111c1565b92505060606112af878288016111c1565b91505092959194509250565b6000602082840312156112cd57600080fd5b60006112db848285016111c1565b91505092915050565b600080604083850312156112f757600080fd5b6000611305858286016111c1565b92505060206113168582860161116d565b9150509250929050565b6000806040838503121561133357600080fd5b6000611341858286016111c1565b925050602083013567ffffffffffffffff81111561135e57600080fd5b61136a85828601611197565b9150509250929050565b6000806040838503121561138757600080fd5b6000611395858286016111c1565b92505060206113a6858286016111c1565b9150509250929050565b60006113bc83836118a8565b905092915050565b6113cd81611dba565b82525050565b6113dc81611da8565b82525050565b6113eb81611da8565b82525050565b60006113fc82611cfc565b6114068185611d1f565b93508360208202850161141885611cec565b8060005b85811015611454578484038952815161143585826113b0565b945061144083611d12565b925060208a0199505060018101905061141c565b50829750879550505050505092915050565b61146f81611dcc565b82525050565b61147e81611e02565b82525050565b600061148f82611d07565b6114998185611d30565b93506114a9818560208601611e35565b6114b281611f70565b840191505092915050565b60006114c882611d07565b6114d28185611d41565b93506114e2818560208601611e35565b6114eb81611f70565b840191505092915050565b6000611503601883611d41565b91507f46756e64696e6720676f616c206e6f74207265616368656400000000000000006000830152602082019050919050565b6000611543601f83611d41565b91507f4f6e6c792063726561746f722063616e2077697468647261772066756e6473006000830152602082019050919050565b6000611583602383611d41565b91507f4e6f7420617070726f76656420627920616c6c2074727573746564207369676e60008301527f65727300000000000000000000000000000000000000000000000000000000006020830152604082019050919050565b60006115e9601f83611d41565b91507f50726f6a656374206973206e6f74206f70656e20666f722066756e64696e67006000830152602082019050919050565b6000611629602683611d41565b91507f46756e64696e6720676f616c206d75737420626520677265617465722074686160008301527f6e207a65726f00000000000000000000000000000000000000000000000000006020830152604082019050919050565b600061168f601583611d41565b91507f50726f6a656374206973207374696c6c206f70656e00000000000000000000006000830152602082019050919050565b60006116cf601b83611d41565b91507f46756e64696e6720646561646c696e65206861732070617373656400000000006000830152602082019050919050565b600061170f601883611d41565b91507f4d756c7469536967417070726f766572206e6f742073657400000000000000006000830152602082019050919050565b600061174f600b83611d41565b91507f416c7265616479207365740000000000000000000000000000000000000000006000830152602082019050919050565b600061178f601183611d41565b91507f5469746c652069732072657175697265640000000000000000000000000000006000830152602082019050919050565b60006117cf602683611d41565b91507f436f6e747269627574696f6e206d75737420626520677265617465722074686160008301527f6e207a65726f00000000000000000000000000000000000000000000000000006020830152604082019050919050565b6000611835601e83611d41565b91507f446561646c696e65206d75737420626520696e207468652066757475726500006000830152602082019050919050565b6000611875601783611d41565b91507f4465736372697074696f6e2069732072657175697265640000000000000000006000830152602082019050919050565b60006060830160008301516118c060008601826113d3565b5060208301516118d360208601826118f8565b50604083015184820360408601526118eb8282611484565b9150508091505092915050565b61190181611df8565b82525050565b61191081611df8565b82525050565b600060608201905061192b60008301866113e2565b6119386020830185611907565b818103604083015261194a81846114bd565b9050949350505050565b6000602082019050818103600083015261196e81846113f1565b905092915050565b600060208201905061198b6000830184611475565b92915050565b600060208201905081810360008301526119aa816114f6565b9050919050565b600060208201905081810360008301526119ca81611536565b9050919050565b600060208201905081810360008301526119ea81611576565b9050919050565b60006020820190508181036000830152611a0a816115dc565b9050919050565b60006020820190508181036000830152611a2a8161161c565b9050919050565b60006020820190508181036000830152611a4a81611682565b9050919050565b60006020820190508181036000830152611a6a816116c2565b9050919050565b60006020820190508181036000830152611a8a81611702565b9050919050565b60006020820190508181036000830152611aaa81611742565b9050919050565b60006020820190508181036000830152611aca81611782565b9050919050565b60006020820190508181036000830152611aea816117c2565b9050919050565b60006020820190508181036000830152611b0a81611828565b9050919050565b60006020820190508181036000830152611b2a81611868565b9050919050565b6000602082019050611b466000830184611907565b92915050565b600061010082019050611b62600083018b611907565b8181036020830152611b74818a6114bd565b90508181036040830152611b8881896114bd565b9050611b976060830188611907565b611ba46080830187611907565b611bb160a08301866113c4565b611bbe60c0830185611466565b611bcb60e0830184611907565b9998505050505050505050565b6000608082019050611bed6000830187611907565b8181036020830152611bff81866114bd565b9050611c0e6040830185611907565b611c1b6060830184611907565b95945050505050565b6000604082019050611c396000830185611907565b611c466020830184611907565b9392505050565b6000606082019050611c626000830186611907565b611c6f6020830185611907565b8181036040830152611c8181846114bd565b9050949350505050565b6000604051905081810181811067ffffffffffffffff82111715611cb257611cb1611f41565b5b8060405250919050565b600067ffffffffffffffff821115611cd757611cd6611f41565b5b601f19601f8301169050602081019050919050565b6000819050602082019050919050565b600081519050919050565b600081519050919050565b6000602082019050919050565b600082825260208201905092915050565b600082825260208201905092915050565b600082825260208201905092915050565b6000611d5d82611df8565b9150611d6883611df8565b9250827fffffffffffffffffffffffffffffffffffffffffffffffffffffffffffffffff03821115611d9d57611d9c611ee3565b5b828201905092915050565b6000611db382611dd8565b9050919050565b6000611dc582611dd8565b9050919050565b60008115159050919050565b600073ffffffffffffffffffffffffffffffffffffffff82169050919050565b6000819050919050565b6000611e0d82611e14565b9050919050565b6000611e1f82611dd8565b9050919050565b82818337600083830152505050565b60005b83811015611e53578082015181840152602081019050611e38565b83811115611e62576000848401525b50505050565b60006002820490506001821680611e8057607f821691505b60208210811415611e9457611e93611f12565b5b50919050565b6000611ea582611df8565b91507fffffffffffffffffffffffffffffffffffffffffffffffffffffffffffffffff821415611ed857611ed7611ee3565b5b600182019050919050565b7f4e487b7100000000000000000000000000000000000000000000000000000000600052601160045260246000fd5b7f4e487b7100000000000000000000000000000000000000000000000000000000600052602260045260246000fd5b7f4e487b7100000000000000000000000000000000000000000000000000000000600052604160045260246000fd5b6000601f19601f8301169050919050565b611f8a81611da8565b8114611f9557600080fd5b50565b611fa181611dcc565b8114611fac57600080fd5b50565b611fb881611df8565b8114611fc357600080fd5b5056fea2646970667358221220487f301b85345fa4832fc58b0b16c957a832145f193435c7fb900548a0b68a3964736f6c63430008000033",
  "immutableReferences": {},
  "source": "// SPDX-License-Identifier: MIT\r\npragma solidity ^0.8.0;\r\n\r\ninterface IMultiSigApprover {\r\n    function isApproved(uint256 projectId) external view returns (bool);\r\n}\r\n\r\ncontract Crowdfunding {\r\n    struct Project {\r\n        uint256 id;\r\n        string title;\r\n        string description;\r\n        uint256 fundingGoal; // In Wei\r\n        uint256 totalFunds;  // In Wei\r\n        address payable creator;\r\n        bool isOpen;\r\n        uint256 deadline; // Timestamp\r\n    }\r\n\r\n    struct Donation {\r\n        address contributor;\r\n        uint256 amount;   // In Wei\r\n        string comment;\r\n    }\r\n\r\n    uint256 public projectCount = 0;\r\n    mapping(uint256 => Project) public projects;\r\n    mapping(uint256 => Donation[]) public donations; // projectId => Donation[]\r\n    mapping(uint256 => mapping(address => uint256)) public contributions; // projectId => contributor => amount\r\n\r\n    event ProjectCreated(\r\n        uint256 id,\r\n        address indexed creator,\r\n        string title,\r\n        uint256 fundingGoal,\r\n        uint256 deadline\r\n    );\r\n\r\n    event Funded(\r\n        uint256 id,\r\n        address indexed contributor,\r\n        uint256 amount,\r\n        string comment\r\n    );\r\n\r\n    event FundsWithdrawn(uint256 id, uint256 amount);\r\n\r\n    IMultiSigApprover public multiSigApprover;\r\n\r\n    function setMultiSigApprover(address _approver) public {\r\n        // For simplicity, anyone can set it once; in production, restrict this to contract owner\r\n        require(address(multiSigApprover) == address(0), \"Already set\");\r\n        multiSigApprover = IMultiSigApprover(_approver);\r\n    }\r\n\r\n    function createProject(\r\n        string memory _title,\r\n        string memory _description,\r\n        uint256 _fundingGoal, // In Wei\r\n        uint256 _deadline      // Timestamp\r\n    ) public {\r\n        require(bytes(_title).length > 0, \"Title is required\");\r\n        require(bytes(_description).length > 0, \"Description is required\");\r\n        require(_fundingGoal > 0, \"Funding goal must be greater than zero\");\r\n        require(_deadline > block.timestamp, \"Deadline must be in the future\");\r\n\r\n        projectCount++;\r\n        projects[projectCount] = Project(\r\n            projectCount,\r\n            _title,\r\n            _description,\r\n            _fundingGoal,\r\n            0,\r\n            payable(msg.sender),\r\n            true,\r\n            _deadline\r\n        );\r\n\r\n        emit ProjectCreated(\r\n            projectCount,\r\n            msg.sender,\r\n            _title,\r\n            _fundingGoal,\r\n            _deadline\r\n        );\r\n    }\r\n\r\n    function fundProject(uint256 _id, string memory _comment) public payable {\r\n        Project storage project = projects[_id];\r\n        require(project.isOpen, \"Project is not open for funding\");\r\n        require(block.timestamp < project.deadline, \"Funding deadline has passed\");\r\n        require(msg.value > 0, \"Contribution must be greater than zero\");\r\n\r\n        project.totalFunds += msg.value;\r\n        contributions[_id][msg.sender] += msg.value;\r\n\r\n        donations[_id].push(Donation(msg.sender, msg.value, _comment));\r\n\r\n        emit Funded(_id, msg.sender, msg.value, _comment);\r\n\r\n        // Close project if funding goal is reached\r\n        if (project.totalFunds >= project.fundingGoal) {\r\n            project.isOpen = false;\r\n        }\r\n    }\r\n\r\n    function withdrawFunds(uint256 _id) public {\r\n        Project storage project = projects[_id];\r\n        require(msg.sender == project.creator, \"Only creator can withdraw funds\");\r\n        require(project.totalFunds >= project.fundingGoal, \"Funding goal not reached\");\r\n        require(project.isOpen == false, \"Project is still open\");\r\n        require(address(multiSigApprover) != address(0), \"MultiSigApprover not set\");\r\n        require(multiSigApprover.isApproved(_id), \"Not approved by all trusted signers\");\r\n\r\n        uint256 amount = project.totalFunds;\r\n        project.totalFunds = 0;\r\n        // project.isOpen = false; // Already closed when goal reached\r\n        project.creator.transfer(amount);\r\n\r\n        emit FundsWithdrawn(_id, amount);\r\n    }\r\n\r\n    function getDonations(uint256 _id) public view returns (Donation[] memory) {\r\n        return donations[_id];\r\n    }\r\n}\r\n",
  "sourcePath": "D:\\adv blockchain project\\final term project\\decentralized-crowdfunding\\contracts\\Crowdfunding.sol",
  "compiler": {
    "name": "solc",
    "version": "0.8.0+commit.c7dfd78e.Emscripten.clang"
  },
  "schemaVersion": "3.4.16",
  "updatedAt": "2024-12-08T11:04:38.322Z",
  "networkType": "ethereum",
  "devdoc": {
    "kind": "dev",
    "methods": {},
    "version": 1
  },
  "userdoc": {
    "kind": "user",
    "methods": {},
    "version": 1
  }
}