{
  "contractName": "DonorNFT",
  "abi": [
    {
      "inputs": [],
      "stateMutability": "nonpayable",
      "type": "constructor"
    },
    {
      "inputs": [
        {
          "internalType": "address",
          "name": "sender",
          "type": "address"
        },
        {
          "internalType": "uint256",
          "name": "tokenId",
          "type": "uint256"
        },
        {
          "internalType": "address",
          "name": "owner",
          "type": "address"
        }
      ],
      "name": "ERC721IncorrectOwner",
      "type": "error"
    },
    {
      "inputs": [
        {
          "internalType": "address",
          "name": "operator",
          "type": "address"
        },
        {
          "internalType": "uint256",
          "name": "tokenId",
          "type": "uint256"
        }
      ],
      "name": "ERC721InsufficientApproval",
      "type": "error"
    },
    {
      "inputs": [
        {
          "internalType": "address",
          "name": "approver",
          "type": "address"
        }
      ],
      "name": "ERC721InvalidApprover",
      "type": "error"
    },
    {
      "inputs": [
        {
          "internalType": "address",
          "name": "operator",
          "type": "address"
        }
      ],
      "name": "ERC721InvalidOperator",
      "type": "error"
    },
    {
      "inputs": [
        {
          "internalType": "address",
          "name": "owner",
          "type": "address"
        }
      ],
      "name": "ERC721InvalidOwner",
      "type": "error"
    },
    {
      "inputs": [
        {
          "internalType": "address",
          "name": "receiver",
          "type": "address"
        }
      ],
      "name": "ERC721InvalidReceiver",
      "type": "error"
    },
    {
      "inputs": [
        {
          "internalType": "address",
          "name": "sender",
          "type": "address"
        }
      ],
      "name": "ERC721InvalidSender",
      "type": "error"
    },
    {
      "inputs": [
        {
          "internalType": "uint256",
          "name": "tokenId",
          "type": "uint256"
        }
      ],
      "name": "ERC721NonexistentToken",
      "type": "error"
    },
    {
      "inputs": [
        {
          "internalType": "address",
          "name": "owner",
          "type": "address"
        }
      ],
      "name": "OwnableInvalidOwner",
      "type": "error"
    },
    {
      "inputs": [
        {
          "internalType": "address",
          "name": "account",
          "type": "address"
        }
      ],
      "name": "OwnableUnauthorizedAccount",
      "type": "error"
    },
    {
      "anonymous": false,
      "inputs": [
        {
          "indexed": true,
          "internalType": "address",
          "name": "owner",
          "type": "address"
        },
        {
          "indexed": true,
          "internalType": "address",
          "name": "approved",
          "type": "address"
        },
        {
          "indexed": true,
          "internalType": "uint256",
          "name": "tokenId",
          "type": "uint256"
        }
      ],
      "name": "Approval",
      "type": "event"
    },
    {
      "anonymous": false,
      "inputs": [
        {
          "indexed": true,
          "internalType": "address",
          "name": "owner",
          "type": "address"
        },
        {
          "indexed": true,
          "internalType": "address",
          "name": "operator",
          "type": "address"
        },
        {
          "indexed": false,
          "internalType": "bool",
          "name": "approved",
          "type": "bool"
        }
      ],
      "name": "ApprovalForAll",
      "type": "event"
    },
    {
      "anonymous": false,
      "inputs": [
        {
          "indexed": true,
          "internalType": "address",
          "name": "previousOwner",
          "type": "address"
        },
        {
          "indexed": true,
          "internalType": "address",
          "name": "newOwner",
          "type": "address"
        }
      ],
      "name": "OwnershipTransferred",
      "type": "event"
    },
    {
      "anonymous": false,
      "inputs": [
        {
          "indexed": true,
          "internalType": "address",
          "name": "from",
          "type": "address"
        },
        {
          "indexed": true,
          "internalType": "address",
          "name": "to",
          "type": "address"
        },
        {
          "indexed": true,
          "internalType": "uint256",
          "name": "tokenId",
          "type": "uint256"
        }
      ],
      "name": "Transfer",
      "type": "event"
    },
    {
      "inputs": [
        {
          "internalType": "address",
          "name": "to",
          "type": "address"
        },
        {
          "internalType": "uint256",
          "name": "tokenId",
          "type": "uint256"
        }
      ],
      "name": "approve",
      "outputs": [],
      "stateMutability": "nonpayable",
      "type": "function"
    },
    {
      "inputs": [
        {
          "internalType": "address",
          "name": "owner",
          "type": "address"
        }
      ],
      "name": "balanceOf",
      "outputs": [
        {
          "internalType": "uint256",
          "name": "",
          "type": "uint256"
        }
      ],
      "stateMutability": "view",
      "type": "function"
    },
    {
      "inputs": [
        {
          "internalType": "uint256",
          "name": "tokenId",
          "type": "uint256"
        }
      ],
      "name": "getApproved",
      "outputs": [
        {
          "internalType": "address",
          "name": "",
          "type": "address"
        }
      ],
      "stateMutability": "view",
      "type": "function"
    },
    {
      "inputs": [
        {
          "internalType": "address",
          "name": "owner",
          "type": "address"
        },
        {
          "internalType": "address",
          "name": "operator",
          "type": "address"
        }
      ],
      "name": "isApprovedForAll",
      "outputs": [
        {
          "internalType": "bool",
          "name": "",
          "type": "bool"
        }
      ],
      "stateMutability": "view",
      "type": "function"
    },
    {
      "inputs": [],
      "name": "name",
      "outputs": [
        {
          "internalType": "string",
          "name": "",
          "type": "string"
        }
      ],
      "stateMutability": "view",
      "type": "function"
    },
    {
      "inputs": [],
      "name": "owner",
      "outputs": [
        {
          "internalType": "address",
          "name": "",
          "type": "address"
        }
      ],
      "stateMutability": "view",
      "type": "function"
    },
    {
      "inputs": [
        {
          "internalType": "uint256",
          "name": "tokenId",
          "type": "uint256"
        }
      ],
      "name": "ownerOf",
      "outputs": [
        {
          "internalType": "address",
          "name": "",
          "type": "address"
        }
      ],
      "stateMutability": "view",
      "type": "function"
    },
    {
      "inputs": [],
      "name": "renounceOwnership",
      "outputs": [],
      "stateMutability": "nonpayable",
      "type": "function"
    },
    {
      "inputs": [
        {
          "internalType": "address",
          "name": "from",
          "type": "address"
        },
        {
          "internalType": "address",
          "name": "to",
          "type": "address"
        },
        {
          "internalType": "uint256",
          "name": "tokenId",
          "type": "uint256"
        }
      ],
      "name": "safeTransferFrom",
      "outputs": [],
      "stateMutability": "nonpayable",
      "type": "function"
    },
    {
      "inputs": [
        {
          "internalType": "address",
          "name": "from",
          "type": "address"
        },
        {
          "internalType": "address",
          "name": "to",
          "type": "address"
        },
        {
          "internalType": "uint256",
          "name": "tokenId",
          "type": "uint256"
        },
        {
          "internalType": "bytes",
          "name": "data",
          "type": "bytes"
        }
      ],
      "name": "safeTransferFrom",
      "outputs": [],
      "stateMutability": "nonpayable",
      "type": "function"
    },
    {
      "inputs": [
        {
          "internalType": "address",
          "name": "operator",
          "type": "address"
        },
        {
          "internalType": "bool",
          "name": "approved",
          "type": "bool"
        }
      ],
      "name": "setApprovalForAll",
      "outputs": [],
      "stateMutability": "nonpayable",
      "type": "function"
    },
    {
      "inputs": [
        {
          "internalType": "bytes4",
          "name": "interfaceId",
          "type": "bytes4"
        }
      ],
      "name": "supportsInterface",
      "outputs": [
        {
          "internalType": "bool",
          "name": "",
          "type": "bool"
        }
      ],
      "stateMutability": "view",
      "type": "function"
    },
    {
      "inputs": [],
      "name": "symbol",
      "outputs": [
        {
          "internalType": "string",
          "name": "",
          "type": "string"
        }
      ],
      "stateMutability": "view",
      "type": "function"
    },
    {
      "inputs": [
        {
          "internalType": "uint8",
          "name": "",
          "type": "uint8"
        }
      ],
      "name": "tierTokenURIs",
      "outputs": [
        {
          "internalType": "string",
          "name": "",
          "type": "string"
        }
      ],
      "stateMutability": "view",
      "type": "function"
    },
    {
      "inputs": [],
      "name": "tokenCounter",
      "outputs": [
        {
          "internalType": "uint256",
          "name": "",
          "type": "uint256"
        }
      ],
      "stateMutability": "view",
      "type": "function"
    },
    {
      "inputs": [
        {
          "internalType": "address",
          "name": "from",
          "type": "address"
        },
        {
          "internalType": "address",
          "name": "to",
          "type": "address"
        },
        {
          "internalType": "uint256",
          "name": "tokenId",
          "type": "uint256"
        }
      ],
      "name": "transferFrom",
      "outputs": [],
      "stateMutability": "nonpayable",
      "type": "function"
    },
    {
      "inputs": [
        {
          "internalType": "address",
          "name": "newOwner",
          "type": "address"
        }
      ],
      "name": "transferOwnership",
      "outputs": [],
      "stateMutability": "nonpayable",
      "type": "function"
    },
    {
      "inputs": [
        {
          "internalType": "address",
          "name": "recipient",
          "type": "address"
        },
        {
          "internalType": "uint8",
          "name": "tierId",
          "type": "uint8"
        }
      ],
      "name": "mintTieredNFT",
      "outputs": [
        {
          "internalType": "uint256",
          "name": "",
          "type": "uint256"
        }
      ],
      "stateMutability": "nonpayable",
      "type": "function"
    },
    {
      "inputs": [
        {
          "internalType": "uint256",
          "name": "tokenId",
          "type": "uint256"
        }
      ],
      "name": "tokenURI",
      "outputs": [
        {
          "internalType": "string",
          "name": "",
          "type": "string"
        }
      ],
      "stateMutability": "view",
      "type": "function"
    },
    {
      "inputs": [
        {
          "internalType": "uint256",
          "name": "tokenId",
          "type": "uint256"
        }
      ],
      "name": "getTokenTier",
      "outputs": [
        {
          "internalType": "uint8",
          "name": "",
          "type": "uint8"
        }
      ],
      "stateMutability": "view",
      "type": "function"
    },
    {
      "inputs": [
        {
          "internalType": "uint256",
          "name": "tokenId",
          "type": "uint256"
        },
        {
          "internalType": "uint8",
          "name": "tierId",
          "type": "uint8"
        }
      ],
      "name": "setTokenTier",
      "outputs": [],
      "stateMutability": "nonpayable",
      "type": "function"
    }
  ],
  "bytecode": "0x608060405234801562000010575f80fd5b50336040518060400160405280600881526020017f446f6e6f724e46540000000000000000000000000000000000000000000000008152506040518060400160405280600481526020017f444e465400000000000000000000000000000000000000000000000000000000815250815f90816200008e919062000516565b508060019081620000a0919062000516565b5050505f73ffffffffffffffffffffffffffffffffffffffff168173ffffffffffffffffffffffffffffffffffffffff160362000116575f6040517f1e4fbdf70000000000000000000000000000000000000000000000000000000081526004016200010d91906200063d565b60405180910390fd5b6200012781620001ef60201b60201c565b505f60078190555060405180608001604052806052815260200162002aae6052913960085f600160ff1681526020019081526020015f2090816200016c919062000516565b5060405180608001604052806052815260200162002b006052913960085f600260ff1681526020019081526020015f209081620001aa919062000516565b5060405180608001604052806052815260200162002b526052913960085f600360ff1681526020019081526020015f209081620001e8919062000516565b5062000658565b5f60065f9054906101000a900473ffffffffffffffffffffffffffffffffffffffff1690508160065f6101000a81548173ffffffffffffffffffffffffffffffffffffffff021916908373ffffffffffffffffffffffffffffffffffffffff1602179055508173ffffffffffffffffffffffffffffffffffffffff168173ffffffffffffffffffffffffffffffffffffffff167f8be0079c531659141344cd1fd0a4f28419497f9722a3daafe3b4186f6b6457e060405160405180910390a35050565b5f81519050919050565b7f4e487b71000000000000000000000000000000000000000000000000000000005f52604160045260245ffd5b7f4e487b71000000000000000000000000000000000000000000000000000000005f52602260045260245ffd5b5f60028204905060018216806200032e57607f821691505b602082108103620003445762000343620002e9565b5b50919050565b5f819050815f5260205f209050919050565b5f6020601f8301049050919050565b5f82821b905092915050565b5f60088302620003a87fffffffffffffffffffffffffffffffffffffffffffffffffffffffffffffffff826200036b565b620003b486836200036b565b95508019841693508086168417925050509392505050565b5f819050919050565b5f819050919050565b5f620003fe620003f8620003f284620003cc565b620003d5565b620003cc565b9050919050565b5f819050919050565b6200041983620003de565b62000431620004288262000405565b84845462000377565b825550505050565b5f90565b6200044762000439565b620004548184846200040e565b505050565b5b818110156200047b576200046f5f826200043d565b6001810190506200045a565b5050565b601f821115620004ca5762000494816200034a565b6200049f846200035c565b81016020851015620004af578190505b620004c7620004be856200035c565b83018262000459565b50505b505050565b5f82821c905092915050565b5f620004ec5f1984600802620004cf565b1980831691505092915050565b5f620005068383620004db565b9150826002028217905092915050565b6200052182620002b2565b67ffffffffffffffff8111156200053d576200053c620002bc565b5b62000549825462000316565b620005568282856200047f565b5f60209050601f8311600181146200058c575f841562000577578287015190505b620005838582620004f9565b865550620005f2565b601f1984166200059c866200034a565b5f5b82811015620005c5578489015182556001820191506020850194506020810190506200059e565b86831015620005e55784890151620005e1601f891682620004db565b8355505b6001600288020188555050505b505050505050565b5f73ffffffffffffffffffffffffffffffffffffffff82169050919050565b5f6200062582620005fa565b9050919050565b620006378162000619565b82525050565b5f602082019050620006525f8301846200062c565b92915050565b61244880620006665f395ff3fe608060405234801561000f575f80fd5b5060043610610135575f3560e01c80637292f795116100b6578063b88d4fde1161007a578063b88d4fde14610349578063c26b265f14610365578063c87b56dd14610395578063d082e381146103c5578063e985e9c5146103e3578063f2fde38b1461041357610135565b80637292f795146102a55780638da5cb5b146102c157806395d89b41146102df5780639c82d690146102fd578063a22cb4651461032d57610135565b806323b872dd116100fd57806323b872dd1461020357806342842e0e1461021f5780636352211e1461023b57806370a082311461026b578063715018a61461029b57610135565b806301ffc9a71461013957806304e3cf071461016957806306fdde0314610199578063081812fc146101b7578063095ea7b3146101e7575b5f80fd5b610153600480360381019061014e9190611ac6565b61042f565b6040516101609190611b0b565b60405180910390f35b610183600480360381019061017e9190611bb4565b610510565b6040516101909190611c0a565b60405180910390f35b6101a16105cc565b6040516101ae9190611cad565b60405180910390f35b6101d160048036038101906101cc9190611cf7565b61065b565b6040516101de9190611d31565b60405180910390f35b61020160048036038101906101fc9190611d4a565b610676565b005b61021d60048036038101906102189190611d88565b61068c565b005b61023960048036038101906102349190611d88565b61078b565b005b61025560048036038101906102509190611cf7565b6107aa565b6040516102629190611d31565b60405180910390f35b61028560048036038101906102809190611dd8565b6107bb565b6040516102929190611c0a565b60405180910390f35b6102a3610871565b005b6102bf60048036038101906102ba9190611e03565b610884565b005b6102c9610986565b6040516102d69190611d31565b60405180910390f35b6102e76109ae565b6040516102f49190611cad565b60405180910390f35b61031760048036038101906103129190611e41565b610a3e565b6040516103249190611cad565b60405180910390f35b61034760048036038101906103429190611e96565b610ad9565b005b610363600480360381019061035e9190612000565b610aef565b005b61037f600480360381019061037a9190611cf7565b610b14565b60405161038c919061208f565b60405180910390f35b6103af60048036038101906103aa9190611cf7565b610bb0565b6040516103bc9190611cad565b60405180910390f35b6103cd610cef565b6040516103da9190611c0a565b60405180910390f35b6103fd60048036038101906103f891906120a8565b610cf5565b60405161040a9190611b0b565b60405180910390f35b61042d60048036038101906104289190611dd8565b610d83565b005b5f7f80ac58cd000000000000000000000000000000000000000000000000000000007bffffffffffffffffffffffffffffffffffffffffffffffffffffffff1916827bffffffffffffffffffffffffffffffffffffffffffffffffffffffff191614806104f957507f5b5e139f000000000000000000000000000000000000000000000000000000007bffffffffffffffffffffffffffffffffffffffffffffffffffffffff1916827bffffffffffffffffffffffffffffffffffffffffffffffffffffffff1916145b80610509575061050882610e07565b5b9050919050565b5f610519610e70565b60018260ff1610158015610531575060038260ff1611155b610570576040517f08c379a000000000000000000000000000000000000000000000000000000000815260040161056790612130565b60405180910390fd5b600160075f828254610582919061217b565b925050819055505f60075490506105998482610ef7565b8260095f8381526020019081526020015f205f6101000a81548160ff021916908360ff1602179055508091505092915050565b60605f80546105da906121db565b80601f0160208091040260200160405190810160405280929190818152602001828054610606906121db565b80156106515780601f1061062857610100808354040283529160200191610651565b820191905f5260205f20905b81548152906001019060200180831161063457829003601f168201915b5050505050905090565b5f61066582610f14565b5061066f82610f9a565b9050919050565b6106888282610683610fd3565b610fda565b5050565b5f73ffffffffffffffffffffffffffffffffffffffff168273ffffffffffffffffffffffffffffffffffffffff16036106fc575f6040517f64a0ae920000000000000000000000000000000000000000000000000000000081526004016106f39190611d31565b60405180910390fd5b5f61070f838361070a610fd3565b610fec565b90508373ffffffffffffffffffffffffffffffffffffffff168173ffffffffffffffffffffffffffffffffffffffff1614610785578382826040517f64283d7b00000000000000000000000000000000000000000000000000000000815260040161077c9392919061220b565b60405180910390fd5b50505050565b6107a583838360405180602001604052805f815250610aef565b505050565b5f6107b482610f14565b9050919050565b5f8073ffffffffffffffffffffffffffffffffffffffff168273ffffffffffffffffffffffffffffffffffffffff160361082c575f6040517f89c62b640000000000000000000000000000000000000000000000000000000081526004016108239190611d31565b60405180910390fd5b60035f8373ffffffffffffffffffffffffffffffffffffffff1673ffffffffffffffffffffffffffffffffffffffff1681526020019081526020015f20549050919050565b610879610e70565b6108825f6111f7565b565b61088c610e70565b5f73ffffffffffffffffffffffffffffffffffffffff166108ac836107aa565b73ffffffffffffffffffffffffffffffffffffffff1603610902576040517f08c379a00000000000000000000000000000000000000000000000000000000081526004016108f99061228a565b60405180910390fd5b60018160ff161015801561091a575060038160ff1611155b610959576040517f08c379a000000000000000000000000000000000000000000000000000000000815260040161095090612130565b60405180910390fd5b8060095f8481526020019081526020015f205f6101000a81548160ff021916908360ff1602179055505050565b5f60065f9054906101000a900473ffffffffffffffffffffffffffffffffffffffff16905090565b6060600180546109bd906121db565b80601f01602080910402602001604051908101604052809291908181526020018280546109e9906121db565b8015610a345780601f10610a0b57610100808354040283529160200191610a34565b820191905f5260205f20905b815481529060010190602001808311610a1757829003601f168201915b5050505050905090565b6008602052805f5260405f205f915090508054610a5a906121db565b80601f0160208091040260200160405190810160405280929190818152602001828054610a86906121db565b8015610ad15780601f10610aa857610100808354040283529160200191610ad1565b820191905f5260205f20905b815481529060010190602001808311610ab457829003601f168201915b505050505081565b610aeb610ae4610fd3565b83836112ba565b5050565b610afa84848461068c565b610b0e610b05610fd3565b85858585611423565b50505050565b5f8073ffffffffffffffffffffffffffffffffffffffff16610b35836107aa565b73ffffffffffffffffffffffffffffffffffffffff1603610b8b576040517f08c379a0000000000000000000000000000000000000000000000000000000008152600401610b829061228a565b60405180910390fd5b60095f8381526020019081526020015f205f9054906101000a900460ff169050919050565b60605f73ffffffffffffffffffffffffffffffffffffffff16610bd2836107aa565b73ffffffffffffffffffffffffffffffffffffffff1603610c28576040517f08c379a0000000000000000000000000000000000000000000000000000000008152600401610c1f906122f2565b60405180910390fd5b5f60095f8481526020019081526020015f205f9054906101000a900460ff16905060085f8260ff1660ff1681526020019081526020015f208054610c6b906121db565b80601f0160208091040260200160405190810160405280929190818152602001828054610c97906121db565b8015610ce25780601f10610cb957610100808354040283529160200191610ce2565b820191905f5260205f20905b815481529060010190602001808311610cc557829003601f168201915b5050505050915050919050565b60075481565b5f60055f8473ffffffffffffffffffffffffffffffffffffffff1673ffffffffffffffffffffffffffffffffffffffff1681526020019081526020015f205f8373ffffffffffffffffffffffffffffffffffffffff1673ffffffffffffffffffffffffffffffffffffffff1681526020019081526020015f205f9054906101000a900460ff16905092915050565b610d8b610e70565b5f73ffffffffffffffffffffffffffffffffffffffff168173ffffffffffffffffffffffffffffffffffffffff1603610dfb575f6040517f1e4fbdf7000000000000000000000000000000000000000000000000000000008152600401610df29190611d31565b60405180910390fd5b610e04816111f7565b50565b5f7f01ffc9a7000000000000000000000000000000000000000000000000000000007bffffffffffffffffffffffffffffffffffffffffffffffffffffffff1916827bffffffffffffffffffffffffffffffffffffffffffffffffffffffff1916149050919050565b610e78610fd3565b73ffffffffffffffffffffffffffffffffffffffff16610e96610986565b73ffffffffffffffffffffffffffffffffffffffff1614610ef557610eb9610fd3565b6040517f118cdaa7000000000000000000000000000000000000000000000000000000008152600401610eec9190611d31565b60405180910390fd5b565b610f10828260405180602001604052805f8152506115cf565b5050565b5f80610f1f836115f2565b90505f73ffffffffffffffffffffffffffffffffffffffff168173ffffffffffffffffffffffffffffffffffffffff1603610f9157826040517f7e273289000000000000000000000000000000000000000000000000000000008152600401610f889190611c0a565b60405180910390fd5b80915050919050565b5f60045f8381526020019081526020015f205f9054906101000a900473ffffffffffffffffffffffffffffffffffffffff169050919050565b5f33905090565b610fe7838383600161162b565b505050565b5f80610ff7846115f2565b90505f73ffffffffffffffffffffffffffffffffffffffff168373ffffffffffffffffffffffffffffffffffffffff1614611038576110378184866117ea565b5b5f73ffffffffffffffffffffffffffffffffffffffff168173ffffffffffffffffffffffffffffffffffffffff16146110c3576110775f855f8061162b565b600160035f8373ffffffffffffffffffffffffffffffffffffffff1673ffffffffffffffffffffffffffffffffffffffff1681526020019081526020015f205f82825403925050819055505b5f73ffffffffffffffffffffffffffffffffffffffff168573ffffffffffffffffffffffffffffffffffffffff161461114257600160035f8773ffffffffffffffffffffffffffffffffffffffff1673ffffffffffffffffffffffffffffffffffffffff1681526020019081526020015f205f82825401925050819055505b8460025f8681526020019081526020015f205f6101000a81548173ffffffffffffffffffffffffffffffffffffffff021916908373ffffffffffffffffffffffffffffffffffffffff160217905550838573ffffffffffffffffffffffffffffffffffffffff168273ffffffffffffffffffffffffffffffffffffffff167fddf252ad1be2c89b69c2b068fc378daa952ba7f163c4a11628f55a4df523b3ef60405160405180910390a4809150509392505050565b5f60065f9054906101000a900473ffffffffffffffffffffffffffffffffffffffff1690508160065f6101000a81548173ffffffffffffffffffffffffffffffffffffffff021916908373ffffffffffffffffffffffffffffffffffffffff1602179055508173ffffffffffffffffffffffffffffffffffffffff168173ffffffffffffffffffffffffffffffffffffffff167f8be0079c531659141344cd1fd0a4f28419497f9722a3daafe3b4186f6b6457e060405160405180910390a35050565b5f73ffffffffffffffffffffffffffffffffffffffff168273ffffffffffffffffffffffffffffffffffffffff160361132a57816040517f5b08ba180000000000000000000000000000000000000000000000000000000081526004016113219190611d31565b60405180910390fd5b8060055f8573ffffffffffffffffffffffffffffffffffffffff1673ffffffffffffffffffffffffffffffffffffffff1681526020019081526020015f205f8473ffffffffffffffffffffffffffffffffffffffff1673ffffffffffffffffffffffffffffffffffffffff1681526020019081526020015f205f6101000a81548160ff0219169083151502179055508173ffffffffffffffffffffffffffffffffffffffff168373ffffffffffffffffffffffffffffffffffffffff167f17307eab39ab6107e8899845ad3d59bd9653f200f220920489ca2b5937696c31836040516114169190611b0b565b60405180910390a3505050565b5f8373ffffffffffffffffffffffffffffffffffffffff163b11156115c8578273ffffffffffffffffffffffffffffffffffffffff1663150b7a02868685856040518563ffffffff1660e01b81526004016114819493929190612362565b6020604051808303815f875af19250505080156114bc57506040513d601f19601f820116820180604052508101906114b991906123c0565b60015b61153d573d805f81146114ea576040519150601f19603f3d011682016040523d82523d5f602084013e6114ef565b606091505b505f81510361153557836040517f64a0ae9200000000000000000000000000000000000000000000000000000000815260040161152c9190611d31565b60405180910390fd5b805181602001fd5b63150b7a0260e01b7bffffffffffffffffffffffffffffffffffffffffffffffffffffffff1916817bffffffffffffffffffffffffffffffffffffffffffffffffffffffff1916146115c657836040517f64a0ae920000000000000000000000000000000000000000000000000000000081526004016115bd9190611d31565b60405180910390fd5b505b5050505050565b6115d983836118ad565b6115ed6115e4610fd3565b5f858585611423565b505050565b5f60025f8381526020019081526020015f205f9054906101000a900473ffffffffffffffffffffffffffffffffffffffff169050919050565b808061166357505f73ffffffffffffffffffffffffffffffffffffffff168273ffffffffffffffffffffffffffffffffffffffff1614155b15611795575f61167284610f14565b90505f73ffffffffffffffffffffffffffffffffffffffff168373ffffffffffffffffffffffffffffffffffffffff16141580156116dc57508273ffffffffffffffffffffffffffffffffffffffff168173ffffffffffffffffffffffffffffffffffffffff1614155b80156116ef57506116ed8184610cf5565b155b1561173157826040517fa9fbf51f0000000000000000000000000000000000000000000000000000000081526004016117289190611d31565b60405180910390fd5b811561179357838573ffffffffffffffffffffffffffffffffffffffff168273ffffffffffffffffffffffffffffffffffffffff167f8c5be1e5ebec7d5bd14f71427d1e84f3dd0314c0f7b2291e5b200ac8c7c3b92560405160405180910390a45b505b8360045f8581526020019081526020015f205f6101000a81548173ffffffffffffffffffffffffffffffffffffffff021916908373ffffffffffffffffffffffffffffffffffffffff16021790555050505050565b6117f58383836119a0565b6118a8575f73ffffffffffffffffffffffffffffffffffffffff168373ffffffffffffffffffffffffffffffffffffffff160361186957806040517f7e2732890000000000000000000000000000000000000000000000000000000081526004016118609190611c0a565b60405180910390fd5b81816040517f177e802f00000000000000000000000000000000000000000000000000000000815260040161189f9291906123eb565b60405180910390fd5b505050565b5f73ffffffffffffffffffffffffffffffffffffffff168273ffffffffffffffffffffffffffffffffffffffff160361191d575f6040517f64a0ae920000000000000000000000000000000000000000000000000000000081526004016119149190611d31565b60405180910390fd5b5f61192983835f610fec565b90505f73ffffffffffffffffffffffffffffffffffffffff168173ffffffffffffffffffffffffffffffffffffffff161461199b575f6040517f73c6ac6e0000000000000000000000000000000000000000000000000000000081526004016119929190611d31565b60405180910390fd5b505050565b5f8073ffffffffffffffffffffffffffffffffffffffff168373ffffffffffffffffffffffffffffffffffffffff1614158015611a5757508273ffffffffffffffffffffffffffffffffffffffff168473ffffffffffffffffffffffffffffffffffffffff161480611a185750611a178484610cf5565b5b80611a5657508273ffffffffffffffffffffffffffffffffffffffff16611a3e83610f9a565b73ffffffffffffffffffffffffffffffffffffffff16145b5b90509392505050565b5f604051905090565b5f80fd5b5f80fd5b5f7fffffffff0000000000000000000000000000000000000000000000000000000082169050919050565b611aa581611a71565b8114611aaf575f80fd5b50565b5f81359050611ac081611a9c565b92915050565b5f60208284031215611adb57611ada611a69565b5b5f611ae884828501611ab2565b91505092915050565b5f8115159050919050565b611b0581611af1565b82525050565b5f602082019050611b1e5f830184611afc565b92915050565b5f73ffffffffffffffffffffffffffffffffffffffff82169050919050565b5f611b4d82611b24565b9050919050565b611b5d81611b43565b8114611b67575f80fd5b50565b5f81359050611b7881611b54565b92915050565b5f60ff82169050919050565b611b9381611b7e565b8114611b9d575f80fd5b50565b5f81359050611bae81611b8a565b92915050565b5f8060408385031215611bca57611bc9611a69565b5b5f611bd785828601611b6a565b9250506020611be885828601611ba0565b9150509250929050565b5f819050919050565b611c0481611bf2565b82525050565b5f602082019050611c1d5f830184611bfb565b92915050565b5f81519050919050565b5f82825260208201905092915050565b5f5b83811015611c5a578082015181840152602081019050611c3f565b5f8484015250505050565b5f601f19601f8301169050919050565b5f611c7f82611c23565b611c898185611c2d565b9350611c99818560208601611c3d565b611ca281611c65565b840191505092915050565b5f6020820190508181035f830152611cc58184611c75565b905092915050565b611cd681611bf2565b8114611ce0575f80fd5b50565b5f81359050611cf181611ccd565b92915050565b5f60208284031215611d0c57611d0b611a69565b5b5f611d1984828501611ce3565b91505092915050565b611d2b81611b43565b82525050565b5f602082019050611d445f830184611d22565b92915050565b5f8060408385031215611d6057611d5f611a69565b5b5f611d6d85828601611b6a565b9250506020611d7e85828601611ce3565b9150509250929050565b5f805f60608486031215611d9f57611d9e611a69565b5b5f611dac86828701611b6a565b9350506020611dbd86828701611b6a565b9250506040611dce86828701611ce3565b9150509250925092565b5f60208284031215611ded57611dec611a69565b5b5f611dfa84828501611b6a565b91505092915050565b5f8060408385031215611e1957611e18611a69565b5b5f611e2685828601611ce3565b9250506020611e3785828601611ba0565b9150509250929050565b5f60208284031215611e5657611e55611a69565b5b5f611e6384828501611ba0565b91505092915050565b611e7581611af1565b8114611e7f575f80fd5b50565b5f81359050611e9081611e6c565b92915050565b5f8060408385031215611eac57611eab611a69565b5b5f611eb985828601611b6a565b9250506020611eca85828601611e82565b9150509250929050565b5f80fd5b5f80fd5b7f4e487b71000000000000000000000000000000000000000000000000000000005f52604160045260245ffd5b611f1282611c65565b810181811067ffffffffffffffff82111715611f3157611f30611edc565b5b80604052505050565b5f611f43611a60565b9050611f4f8282611f09565b919050565b5f67ffffffffffffffff821115611f6e57611f6d611edc565b5b611f7782611c65565b9050602081019050919050565b828183375f83830152505050565b5f611fa4611f9f84611f54565b611f3a565b905082815260208101848484011115611fc057611fbf611ed8565b5b611fcb848285611f84565b509392505050565b5f82601f830112611fe757611fe6611ed4565b5b8135611ff7848260208601611f92565b91505092915050565b5f805f806080858703121561201857612017611a69565b5b5f61202587828801611b6a565b945050602061203687828801611b6a565b935050604061204787828801611ce3565b925050606085013567ffffffffffffffff81111561206857612067611a6d565b5b61207487828801611fd3565b91505092959194509250565b61208981611b7e565b82525050565b5f6020820190506120a25f830184612080565b92915050565b5f80604083850312156120be576120bd611a69565b5b5f6120cb85828601611b6a565b92505060206120dc85828601611b6a565b9150509250929050565b7f496e76616c6964207469657200000000000000000000000000000000000000005f82015250565b5f61211a600c83611c2d565b9150612125826120e6565b602082019050919050565b5f6020820190508181035f8301526121478161210e565b9050919050565b7f4e487b71000000000000000000000000000000000000000000000000000000005f52601160045260245ffd5b5f61218582611bf2565b915061219083611bf2565b92508282019050808211156121a8576121a761214e565b5b92915050565b7f4e487b71000000000000000000000000000000000000000000000000000000005f52602260045260245ffd5b5f60028204905060018216806121f257607f821691505b602082108103612205576122046121ae565b5b50919050565b5f60608201905061221e5f830186611d22565b61222b6020830185611bfb565b6122386040830184611d22565b949350505050565b7f4e6f6e6578697374656e7420746f6b656e0000000000000000000000000000005f82015250565b5f612274601183611c2d565b915061227f82612240565b602082019050919050565b5f6020820190508181035f8301526122a181612268565b9050919050565b7f55524920717565727920666f72206e6f6e6578697374656e7420746f6b656e005f82015250565b5f6122dc601f83611c2d565b91506122e7826122a8565b602082019050919050565b5f6020820190508181035f830152612309816122d0565b9050919050565b5f81519050919050565b5f82825260208201905092915050565b5f61233482612310565b61233e818561231a565b935061234e818560208601611c3d565b61235781611c65565b840191505092915050565b5f6080820190506123755f830187611d22565b6123826020830186611d22565b61238f6040830185611bfb565b81810360608301526123a1818461232a565b905095945050505050565b5f815190506123ba81611a9c565b92915050565b5f602082840312156123d5576123d4611a69565b5b5f6123e2848285016123ac565b91505092915050565b5f6040820190506123fe5f830185611d22565b61240b6020830184611bfb565b939250505056fea2646970667358221220ee856325e3bb1d70f0710eb4869fafbc2382cafe5cf64c8731735c73ee68eab664736f6c6343000814003368747470733a2f2f64726976652e676f6f676c652e636f6d2f66696c652f642f31446f70586e555845337a674438673949694d6e68614f5936635f786445664c472f766965773f7573703d73686172696e6768747470733a2f2f64726976652e676f6f676c652e636f6d2f66696c652f642f31674e665a585131775872504a317448613034356565696c634e62796a505743592f766965773f7573703d73686172696e6768747470733a2f2f64726976652e676f6f676c652e636f6d2f66696c652f642f31716d5a4e5161434733453755526958683765676d4a4a6b3932393374594e73582f766965773f7573703d73686172696e67",
  "immutableReferences": {},
  "source": "// SPDX-License-Identifier: MIT\r\npragma solidity ^0.8.20;\r\n\r\nimport \"../node_modules/@openzeppelin/contracts/token/ERC721/ERC721.sol\";\r\nimport \"../node_modules/@openzeppelin/contracts/access/Ownable.sol\";\r\n\r\ncontract DonorNFT is ERC721, Ownable {\r\n    uint256 public tokenCounter;\r\n    mapping(uint8 => string) public tierTokenURIs; // Tier mappings: 1=Bronze, 2=Silver, 3=Gold\r\n    mapping(uint256 => uint8) private tokenTiers; // Token ID -> Tier ID mapping\r\n\r\n    constructor() ERC721(\"DonorNFT\", \"DNFT\") Ownable(msg.sender) {\r\n    tokenCounter = 0;\r\n    // Replace these with actual metadata links\r\n    tierTokenURIs[1] = \"https://drive.google.com/file/d/1DopXnUXE3zgD8g9IiMnhaOY6c_xdEfLG/view?usp=sharing\";\r\n    tierTokenURIs[2] = \"https://drive.google.com/file/d/1gNfZXQ1wXrPJ1tHa045eeilcNbyjPWCY/view?usp=sharing\";\r\n    tierTokenURIs[3] = \"https://drive.google.com/file/d/1qmZNQaCG3E7URiXh7egmJJk9293tYNsX/view?usp=sharing\";\r\n}\r\n\r\n    function mintTieredNFT(address recipient, uint8 tierId) external onlyOwner returns (uint256) {\r\n        require(tierId >= 1 && tierId <= 3, \"Invalid tier\");\r\n        tokenCounter += 1;\r\n        uint256 newTokenId = tokenCounter;\r\n        _safeMint(recipient, newTokenId);\r\n        tokenTiers[newTokenId] = tierId; // Assign tier to token\r\n        return newTokenId;\r\n    }\r\n\r\n   function tokenURI(uint256 tokenId) public view override returns (string memory) {\r\n    require(ownerOf(tokenId) != address(0), \"URI query for nonexistent token\");\r\n    uint8 tierId = tokenTiers[tokenId];\r\n    return tierTokenURIs[tierId];\r\n}\r\n\r\nfunction getTokenTier(uint256 tokenId) external view returns (uint8) {\r\n    require(ownerOf(tokenId) != address(0), \"Nonexistent token\");\r\n    return tokenTiers[tokenId];\r\n}\r\n\r\nfunction setTokenTier(uint256 tokenId, uint8 tierId) external onlyOwner {\r\n    require(ownerOf(tokenId) != address(0), \"Nonexistent token\");\r\n    require(tierId >= 1 && tierId <= 3, \"Invalid tier\");\r\n    tokenTiers[tokenId] = tierId;\r\n}\r\n}\r\n",
  "sourcePath": "D:\\adv blockchain project\\final term project\\decentralized-crowdfunding\\contracts\\DonorNFT.sol",
  "compiler": {
    "name": "solc",
    "version": "0.8.20+commit.a1b79de6.Emscripten.clang"
  },
  "schemaVersion": "3.4.16",
  "updatedAt": "2024-12-10T10:13:37.219Z",
  "devdoc": {
    "errors": {
      "ERC721IncorrectOwner(address,uint256,address)": [
        {
          "details": "Indicates an error related to the ownership over a particular token. Used in transfers.",
          "params": {
            "owner": "Address of the current owner of a token.",
            "sender": "Address whose tokens are being transferred.",
            "tokenId": "Identifier number of a token."
          }
        }
      ],
      "ERC721InsufficientApproval(address,uint256)": [
        {
          "details": "Indicates a failure with the `operator`s approval. Used in transfers.",
          "params": {
            "operator": "Address that may be allowed to operate on tokens without being their owner.",
            "tokenId": "Identifier number of a token."
          }
        }
      ],
      "ERC721InvalidApprover(address)": [
        {
          "details": "Indicates a failure with the `approver` of a token to be approved. Used in approvals.",
          "params": {
            "approver": "Address initiating an approval operation."
          }
        }
      ],
      "ERC721InvalidOperator(address)": [
        {
          "details": "Indicates a failure with the `operator` to be approved. Used in approvals.",
          "params": {
            "operator": "Address that may be allowed to operate on tokens without being their owner."
          }
        }
      ],
      "ERC721InvalidOwner(address)": [
        {
          "details": "Indicates that an address can't be an owner. For example, `address(0)` is a forbidden owner in ERC-20. Used in balance queries.",
          "params": {
            "owner": "Address of the current owner of a token."
          }
        }
      ],
      "ERC721InvalidReceiver(address)": [
        {
          "details": "Indicates a failure with the token `receiver`. Used in transfers.",
          "params": {
            "receiver": "Address to which tokens are being transferred."
          }
        }
      ],
      "ERC721InvalidSender(address)": [
        {
          "details": "Indicates a failure with the token `sender`. Used in transfers.",
          "params": {
            "sender": "Address whose tokens are being transferred."
          }
        }
      ],
      "ERC721NonexistentToken(uint256)": [
        {
          "details": "Indicates a `tokenId` whose `owner` is the zero address.",
          "params": {
            "tokenId": "Identifier number of a token."
          }
        }
      ],
      "OwnableInvalidOwner(address)": [
        {
          "details": "The owner is not a valid owner account. (eg. `address(0)`)"
        }
      ],
      "OwnableUnauthorizedAccount(address)": [
        {
          "details": "The caller account is not authorized to perform an operation."
        }
      ]
    },
    "events": {
      "Approval(address,address,uint256)": {
        "details": "Emitted when `owner` enables `approved` to manage the `tokenId` token."
      },
      "ApprovalForAll(address,address,bool)": {
        "details": "Emitted when `owner` enables or disables (`approved`) `operator` to manage all of its assets."
      },
      "Transfer(address,address,uint256)": {
        "details": "Emitted when `tokenId` token is transferred from `from` to `to`."
      }
    },
    "kind": "dev",
    "methods": {
      "approve(address,uint256)": {
        "details": "See {IERC721-approve}."
      },
      "balanceOf(address)": {
        "details": "See {IERC721-balanceOf}."
      },
      "getApproved(uint256)": {
        "details": "See {IERC721-getApproved}."
      },
      "isApprovedForAll(address,address)": {
        "details": "See {IERC721-isApprovedForAll}."
      },
      "name()": {
        "details": "See {IERC721Metadata-name}."
      },
      "owner()": {
        "details": "Returns the address of the current owner."
      },
      "ownerOf(uint256)": {
        "details": "See {IERC721-ownerOf}."
      },
      "renounceOwnership()": {
        "details": "Leaves the contract without owner. It will not be possible to call `onlyOwner` functions. Can only be called by the current owner. NOTE: Renouncing ownership will leave the contract without an owner, thereby disabling any functionality that is only available to the owner."
      },
      "safeTransferFrom(address,address,uint256)": {
        "details": "See {IERC721-safeTransferFrom}."
      },
      "safeTransferFrom(address,address,uint256,bytes)": {
        "details": "See {IERC721-safeTransferFrom}."
      },
      "setApprovalForAll(address,bool)": {
        "details": "See {IERC721-setApprovalForAll}."
      },
      "supportsInterface(bytes4)": {
        "details": "See {IERC165-supportsInterface}."
      },
      "symbol()": {
        "details": "See {IERC721Metadata-symbol}."
      },
      "tokenURI(uint256)": {
        "details": "See {IERC721Metadata-tokenURI}."
      },
      "transferFrom(address,address,uint256)": {
        "details": "See {IERC721-transferFrom}."
      },
      "transferOwnership(address)": {
        "details": "Transfers ownership of the contract to a new account (`newOwner`). Can only be called by the current owner."
      }
    },
    "version": 1
  },
  "userdoc": {
    "kind": "user",
    "methods": {},
    "version": 1
  }
}