{
  "contractName": "MicroPaymentChannel",
  "abi": [
    {
      "inputs": [
        {
          "internalType": "address",
          "name": "_receiver",
          "type": "address"
        },
        {
          "internalType": "uint256",
          "name": "duration",
          "type": "uint256"
        }
      ],
      "stateMutability": "payable",
      "type": "constructor"
    },
    {
      "inputs": [],
      "name": "expiration",
      "outputs": [
        {
          "internalType": "uint256",
          "name": "",
          "type": "uint256"
        }
      ],
      "stateMutability": "view",
      "type": "function"
    },
    {
      "inputs": [],
      "name": "receiver",
      "outputs": [
        {
          "internalType": "address",
          "name": "",
          "type": "address"
        }
      ],
      "stateMutability": "view",
      "type": "function"
    },
    {
      "inputs": [],
      "name": "sender",
      "outputs": [
        {
          "internalType": "address",
          "name": "",
          "type": "address"
        }
      ],
      "stateMutability": "view",
      "type": "function"
    },
    {
      "inputs": [],
      "name": "reclaim",
      "outputs": [],
      "stateMutability": "nonpayable",
      "type": "function"
    },
    {
      "inputs": [
        {
          "internalType": "uint256",
          "name": "amount",
          "type": "uint256"
        },
        {
          "internalType": "uint8",
          "name": "v",
          "type": "uint8"
        },
        {
          "internalType": "bytes32",
          "name": "r",
          "type": "bytes32"
        },
        {
          "internalType": "bytes32",
          "name": "s",
          "type": "bytes32"
        }
      ],
      "name": "claim",
      "outputs": [],
      "stateMutability": "nonpayable",
      "type": "function"
    }
  ],
  "bytecode": "0x608060405260405162000c7438038062000c748339818101604052810190620000299190620000f4565b336000806101000a81548173ffffffffffffffffffffffffffffffffffffffff021916908373ffffffffffffffffffffffffffffffffffffffff16021790555081600160006101000a81548173ffffffffffffffffffffffffffffffffffffffff021916908373ffffffffffffffffffffffffffffffffffffffff1602179055508042620000b8919062000135565b600281905550505062000233565b600081519050620000d781620001ff565b92915050565b600081519050620000ee8162000219565b92915050565b600080604083850312156200010857600080fd5b60006200011885828601620000c6565b92505060206200012b85828601620000dd565b9150509250929050565b60006200014282620001c6565b91506200014f83620001c6565b9250827fffffffffffffffffffffffffffffffffffffffffffffffffffffffffffffffff03821115620001875762000186620001d0565b5b828201905092915050565b60006200019f82620001a6565b9050919050565b600073ffffffffffffffffffffffffffffffffffffffff82169050919050565b6000819050919050565b7f4e487b7100000000000000000000000000000000000000000000000000000000600052601160045260246000fd5b6200020a8162000192565b81146200021657600080fd5b50565b6200022481620001c6565b81146200023057600080fd5b50565b610a3180620002436000396000f3fe608060405234801561001057600080fd5b50600436106100575760003560e01c80631278e00a1461005c5780634665096d1461007857806367e404ce1461009657806380e9071b146100b4578063f7260d3e146100be575b600080fd5b61007660048036038101906100719190610531565b6100dc565b005b610080610336565b60405161008d91906108e7565b60405180910390f35b61009e61033c565b6040516100ab91906107e7565b60405180910390f35b6100bc610360565b005b6100c661049c565b6040516100d391906107e7565b60405180910390f35b600160009054906101000a900473ffffffffffffffffffffffffffffffffffffffff1673ffffffffffffffffffffffffffffffffffffffff163373ffffffffffffffffffffffffffffffffffffffff161461016c576040517f08c379a000000000000000000000000000000000000000000000000000000000815260040161016390610887565b60405180910390fd5b600061019f3086604051602001610184929190610795565b604051602081830303815290604052805190602001206104c2565b90506000600182868686604051600081526020016040526040516101c69493929190610802565b6020604051602081039080840390855afa1580156101e8573d6000803e3d6000fd5b50505060206040510351905060008054906101000a900473ffffffffffffffffffffffffffffffffffffffff1673ffffffffffffffffffffffffffffffffffffffff168173ffffffffffffffffffffffffffffffffffffffff1614610282576040517f08c379a000000000000000000000000000000000000000000000000000000000815260040161027990610867565b60405180910390fd5b478611156102c5576040517f08c379a00000000000000000000000000000000000000000000000000000000081526004016102bc906108c7565b60405180910390fd5b600160009054906101000a900473ffffffffffffffffffffffffffffffffffffffff1673ffffffffffffffffffffffffffffffffffffffff166108fc879081150290604051600060405180830381858888f1935050505015801561032d573d6000803e3d6000fd5b50505050505050565b60025481565b60008054906101000a900473ffffffffffffffffffffffffffffffffffffffff1681565b60008054906101000a900473ffffffffffffffffffffffffffffffffffffffff1673ffffffffffffffffffffffffffffffffffffffff163373ffffffffffffffffffffffffffffffffffffffff16146103ee576040517f08c379a00000000000000000000000000000000000000000000000000000000081526004016103e5906108a7565b60405180910390fd5b600254421015610433576040517f08c379a000000000000000000000000000000000000000000000000000000000815260040161042a90610847565b60405180910390fd5b60008054906101000a900473ffffffffffffffffffffffffffffffffffffffff1673ffffffffffffffffffffffffffffffffffffffff166108fc479081150290604051600060405180830381858888f19350505050158015610499573d6000803e3d6000fd5b50565b600160009054906101000a900473ffffffffffffffffffffffffffffffffffffffff1681565b6000816040516020016104d591906107c1565b604051602081830303815290604052805190602001209050919050565b600081359050610501816109b6565b92915050565b600081359050610516816109cd565b92915050565b60008135905061052b816109e4565b92915050565b6000806000806080858703121561054757600080fd5b600061055587828801610507565b94505060206105668782880161051c565b9350506040610577878288016104f2565b9250506060610588878288016104f2565b91505092959194509250565b61059d8161091e565b82525050565b6105b46105af8261091e565b610971565b82525050565b6105c381610930565b82525050565b6105da6105d582610930565b610983565b82525050565b60006105ed601783610902565b91507f4368616e6e656c206e6f742065787069726564207965740000000000000000006000830152602082019050919050565b600061062d601c83610913565b91507f19457468657265756d205369676e6564204d6573736167653a0a3332000000006000830152601c82019050919050565b600061066d601183610902565b91507f496e76616c6964207369676e61747572650000000000000000000000000000006000830152602082019050919050565b60006106ad601383610902565b91507f43616c6c6572206e6f74207265636569766572000000000000000000000000006000830152602082019050919050565b60006106ed601783610902565b91507f4f6e6c792073656e6465722063616e207265636c61696d0000000000000000006000830152602082019050919050565b600061072d601f83610902565b91507f496e73756666696369656e742062616c616e636520696e206368616e6e656c006000830152602082019050919050565b6107698161095a565b82525050565b61078061077b8261095a565b61099f565b82525050565b61078f81610964565b82525050565b60006107a182856105a3565b6014820191506107b1828461076f565b6020820191508190509392505050565b60006107cc82610620565b91506107d882846105c9565b60208201915081905092915050565b60006020820190506107fc6000830184610594565b92915050565b600060808201905061081760008301876105ba565b6108246020830186610786565b61083160408301856105ba565b61083e60608301846105ba565b95945050505050565b60006020820190508181036000830152610860816105e0565b9050919050565b6000602082019050818103600083015261088081610660565b9050919050565b600060208201905081810360008301526108a0816106a0565b9050919050565b600060208201905081810360008301526108c0816106e0565b9050919050565b600060208201905081810360008301526108e081610720565b9050919050565b60006020820190506108fc6000830184610760565b92915050565b600082825260208201905092915050565b600081905092915050565b60006109298261093a565b9050919050565b6000819050919050565b600073ffffffffffffffffffffffffffffffffffffffff82169050919050565b6000819050919050565b600060ff82169050919050565b600061097c8261098d565b9050919050565b6000819050919050565b6000610998826109a9565b9050919050565b6000819050919050565b60008160601b9050919050565b6109bf81610930565b81146109ca57600080fd5b50565b6109d68161095a565b81146109e157600080fd5b50565b6109ed81610964565b81146109f857600080fd5b5056fea2646970667358221220bee3fa94db8c7bb2fb8b63bcebd07772d2d47dc53a1b039e122d5403803d222c64736f6c63430008000033",
  "immutableReferences": {},
  "source": "// SPDX-License-Identifier: MIT\r\npragma solidity ^0.8.0;\r\n\r\n/**\r\n * @title MicropaymentChannel\r\n * @notice A simple micropayment channel contract demonstrating off-chain signatures.\r\n *\r\n * Flow:\r\n * - Sender deploys contract with initial ETH, sets receiver and expiration.\r\n * - Off-chain: Sender signs messages of form (contract_address, amount).\r\n * - Receiver uses claim(...) with a valid signature to retrieve funds.\r\n * - If time expires, sender can reclaim the remaining funds.\r\n */\r\ncontract MicroPaymentChannel {\r\n    address public sender;\r\n    address public receiver;\r\n    uint256 public expiration;\r\n\r\n    constructor(address _receiver, uint256 duration) payable {\r\n        sender = msg.sender;\r\n        receiver = _receiver;\r\n        expiration = block.timestamp + duration; // channel valid until expiration\r\n    }\r\n\r\n    // Sender can reclaim after expiration\r\n    function reclaim() external {\r\n        require(msg.sender == sender, \"Only sender can reclaim\");\r\n        require(block.timestamp >= expiration, \"Channel not expired yet\");\r\n        payable(sender).transfer(address(this).balance);\r\n    }\r\n\r\n    /**\r\n     * @dev Receiver calls claim with amount and signed message from sender\r\n     * @param amount The amount that the sender agreed off-chain\r\n     * @param v,r,s Signature components from sender's signed message\r\n     */\r\n    function claim(uint256 amount, uint8 v, bytes32 r, bytes32 s) external {\r\n        require(msg.sender == receiver, \"Caller not receiver\");\r\n        bytes32 message = prefixed(keccak256(abi.encodePacked(address(this), amount)));\r\n        address signer = ecrecover(message, v, r, s);\r\n        require(signer == sender, \"Invalid signature\");\r\n        require(amount <= address(this).balance, \"Insufficient balance in channel\");\r\n\r\n        // Transfer the amount to receiver\r\n        payable(receiver).transfer(amount);\r\n    }\r\n\r\n    // Helper function to generate the prefixed hash for ecrecover\r\n    function prefixed(bytes32 hash) internal pure returns (bytes32) {\r\n        // Ethereum signed message prefix\r\n        return keccak256(abi.encodePacked(\"\\x19Ethereum Signed Message:\\n32\", hash));\r\n    }\r\n}\r\n",
  "sourcePath": "D:\\adv blockchain project\\final term project\\decentralized-crowdfunding\\contracts\\MicroPaymentChannel.sol",
  "compiler": {
    "name": "solc",
    "version": "0.8.0+commit.c7dfd78e.Emscripten.clang"
  },
  "schemaVersion": "3.4.16",
  "updatedAt": "2024-12-09T03:42:41.496Z",
  "devdoc": {
    "kind": "dev",
    "methods": {
      "claim(uint256,uint8,bytes32,bytes32)": {
        "details": "Receiver calls claim with amount and signed message from sender",
        "params": {
          "amount": "The amount that the sender agreed off-chain",
          "v": ",r,s Signature components from sender's signed message"
        }
      }
    },
    "title": "MicropaymentChannel",
    "version": 1
  },
  "userdoc": {
    "kind": "user",
    "methods": {},
    "notice": "A simple micropayment channel contract demonstrating off-chain signatures. Flow: - Sender deploys contract with initial ETH, sets receiver and expiration. - Off-chain: Sender signs messages of form (contract_address, amount). - Receiver uses claim(...) with a valid signature to retrieve funds. - If time expires, sender can reclaim the remaining funds.",
    "version": 1
  }
}