{
  "contractName": "NameRegistry",
  "abi": [
    {
      "inputs": [
        {
          "internalType": "string",
          "name": "name",
          "type": "string"
        }
      ],
      "name": "registerName",
      "outputs": [],
      "stateMutability": "nonpayable",
      "type": "function"
    },
    {
      "inputs": [
        {
          "internalType": "address",
          "name": "user",
          "type": "address"
        }
      ],
      "name": "getName",
      "outputs": [
        {
          "internalType": "string",
          "name": "",
          "type": "string"
        }
      ],
      "stateMutability": "view",
      "type": "function",
      "constant": true
    }
  ],
  "bytecode": "0x608060405234801561001057600080fd5b50610615806100206000396000f3fe608060405234801561001057600080fd5b50600436106100365760003560e01c80630830602b1461003b5780635fd4b08a14610057575b600080fd5b6100556004803603810190610050919061033a565b610087565b005b610071600480360381019061006c9190610311565b610121565b60405161007e91906103f4565b60405180910390f35b60008151116100cb576040517f08c379a00000000000000000000000000000000000000000000000000000000081526004016100c290610416565b60405180910390fd5b806000803373ffffffffffffffffffffffffffffffffffffffff1673ffffffffffffffffffffffffffffffffffffffff168152602001908152602001600020908051906020019061011d9291906101f1565b5050565b60606000808373ffffffffffffffffffffffffffffffffffffffff1673ffffffffffffffffffffffffffffffffffffffff168152602001908152602001600020805461016c90610527565b80601f016020809104026020016040519081016040528092919081815260200182805461019890610527565b80156101e55780601f106101ba576101008083540402835291602001916101e5565b820191906000526020600020905b8154815290600101906020018083116101c857829003601f168201915b50505050509050919050565b8280546101fd90610527565b90600052602060002090601f01602090048101928261021f5760008555610266565b82601f1061023857805160ff1916838001178555610266565b82800160010185558215610266579182015b8281111561026557825182559160200191906001019061024a565b5b5090506102739190610277565b5090565b5b80821115610290576000816000905550600101610278565b5090565b60006102a76102a284610467565b610436565b9050828152602081018484840111156102bf57600080fd5b6102ca8482856104e5565b509392505050565b6000813590506102e1816105c8565b92915050565b600082601f8301126102f857600080fd5b8135610308848260208601610294565b91505092915050565b60006020828403121561032357600080fd5b6000610331848285016102d2565b91505092915050565b60006020828403121561034c57600080fd5b600082013567ffffffffffffffff81111561036657600080fd5b610372848285016102e7565b91505092915050565b600061038682610497565b61039081856104a2565b93506103a08185602086016104f4565b6103a9816105b7565b840191505092915050565b60006103c16014836104a2565b91507f4e616d652063616e6e6f7420626520656d7074790000000000000000000000006000830152602082019050919050565b6000602082019050818103600083015261040e818461037b565b905092915050565b6000602082019050818103600083015261042f816103b4565b9050919050565b6000604051905081810181811067ffffffffffffffff8211171561045d5761045c610588565b5b8060405250919050565b600067ffffffffffffffff82111561048257610481610588565b5b601f19601f8301169050602081019050919050565b600081519050919050565b600082825260208201905092915050565b60006104be826104c5565b9050919050565b600073ffffffffffffffffffffffffffffffffffffffff82169050919050565b82818337600083830152505050565b60005b838110156105125780820151818401526020810190506104f7565b83811115610521576000848401525b50505050565b6000600282049050600182168061053f57607f821691505b6020821081141561055357610552610559565b5b50919050565b7f4e487b7100000000000000000000000000000000000000000000000000000000600052602260045260246000fd5b7f4e487b7100000000000000000000000000000000000000000000000000000000600052604160045260246000fd5b6000601f19601f8301169050919050565b6105d1816104b3565b81146105dc57600080fd5b5056fea2646970667358221220447a78a8afde1d4c7e67da4d7146892dab6e08171f77044f98285034720f09ce64736f6c63430008000033",
  "immutableReferences": {},
  "source": "// SPDX-License-Identifier: MIT\r\npragma solidity ^0.8.0;\r\n\r\ncontract NameRegistry {\r\n    mapping(address => string) private userNames;\r\n\r\n    // Register a name for the sender (Ethereum address)\r\n    function registerName(string memory name) public {\r\n        require(bytes(name).length > 0, \"Name cannot be empty\");\r\n        userNames[msg.sender] = name;\r\n    }\r\n\r\n    // Retrieve the name of a given address\r\n    function getName(address user) public view returns (string memory) {\r\n        return userNames[user];\r\n    }\r\n}\r\n",
  "sourcePath": "D:\\adv blockchain project\\final term project\\decentralized-crowdfunding\\contracts\\NameRegistry.sol",
  "compiler": {
    "name": "solc",
    "version": "0.8.0+commit.c7dfd78e.Emscripten.clang"
  },
  "schemaVersion": "3.4.16",
  "updatedAt": "2024-12-10T06:11:19.737Z",
  "networkType": "ethereum",
  "devdoc": {
    "kind": "dev",
    "methods": {},
    "version": 1
  },
  "userdoc": {
    "kind": "user",
    "methods": {},
    "version": 1
  }
}