{
  "contractName": "ReferralRewards",
  "abi": [
    {
      "anonymous": false,
      "inputs": [
        {
          "indexed": true,
          "internalType": "address",
          "name": "newUser",
          "type": "address"
        },
        {
          "indexed": true,
          "internalType": "address",
          "name": "referrer",
          "type": "address"
        }
      ],
      "name": "ReferralRecorded",
      "type": "event"
    },
    {
      "anonymous": false,
      "inputs": [
        {
          "indexed": true,
          "internalType": "address",
          "name": "user",
          "type": "address"
        },
        {
          "indexed": false,
          "internalType": "uint256",
          "name": "pointsClaimed",
          "type": "uint256"
        }
      ],
      "name": "RewardsClaimed",
      "type": "event"
    },
    {
      "inputs": [
        {
          "internalType": "address",
          "name": "newUser",
          "type": "address"
        },
        {
          "internalType": "address",
          "name": "referrer",
          "type": "address"
        }
      ],
      "name": "recordReferral",
      "outputs": [],
      "stateMutability": "nonpayable",
      "type": "function"
    },
    {
      "inputs": [
        {
          "internalType": "address",
          "name": "user",
          "type": "address"
        }
      ],
      "name": "getReferralCount",
      "outputs": [
        {
          "internalType": "uint256",
          "name": "",
          "type": "uint256"
        }
      ],
      "stateMutability": "view",
      "type": "function",
      "constant": true
    },
    {
      "inputs": [
        {
          "internalType": "address",
          "name": "user",
          "type": "address"
        }
      ],
      "name": "getReferralPoints",
      "outputs": [
        {
          "internalType": "uint256",
          "name": "",
          "type": "uint256"
        }
      ],
      "stateMutability": "view",
      "type": "function",
      "constant": true
    },
    {
      "inputs": [],
      "name": "claimRewards",
      "outputs": [],
      "stateMutability": "nonpayable",
      "type": "function"
    }
  ],
  "bytecode": "0x608060405234801561001057600080fd5b50610822806100206000396000f3fe608060405234801561001057600080fd5b506004361061004c5760003560e01c80630c7f7b6b1461005157806324acbd691461006d578063372500ab1461009d578063519247ac146100a7575b600080fd5b61006b6004803603810190610066919061051d565b6100d7565b005b610087600480360381019061008291906104f4565b610331565b60405161009491906106e8565b60405180910390f35b6100a5610379565b005b6100c160048036038101906100bc91906104f4565b610496565b6040516100ce91906106e8565b60405180910390f35b600073ffffffffffffffffffffffffffffffffffffffff168273ffffffffffffffffffffffffffffffffffffffff161415610147576040517f08c379a000000000000000000000000000000000000000000000000000000000815260040161013e90610668565b60405180910390fd5b600073ffffffffffffffffffffffffffffffffffffffff168173ffffffffffffffffffffffffffffffffffffffff1614156101b7576040517f08c379a00000000000000000000000000000000000000000000000000000000081526004016101ae90610688565b60405180910390fd5b8073ffffffffffffffffffffffffffffffffffffffff168273ffffffffffffffffffffffffffffffffffffffff161415610226576040517f08c379a000000000000000000000000000000000000000000000000000000000815260040161021d906106c8565b60405180910390fd5b60016000808373ffffffffffffffffffffffffffffffffffffffff1673ffffffffffffffffffffffffffffffffffffffff16815260200190815260200160002060008282546102759190610714565b92505081905550600a600160008373ffffffffffffffffffffffffffffffffffffffff1673ffffffffffffffffffffffffffffffffffffffff16815260200190815260200160002060008282546102cc9190610714565b925050819055508073ffffffffffffffffffffffffffffffffffffffff168273ffffffffffffffffffffffffffffffffffffffff167ff61ccbe316daff56654abed758191f9a4dcac526d43747a50a2d545c0ca64d8260405160405180910390a35050565b60008060008373ffffffffffffffffffffffffffffffffffffffff1673ffffffffffffffffffffffffffffffffffffffff168152602001908152602001600020549050919050565b6000600160003373ffffffffffffffffffffffffffffffffffffffff1673ffffffffffffffffffffffffffffffffffffffff16815260200190815260200160002054905060008111610400576040517f08c379a00000000000000000000000000000000000000000000000000000000081526004016103f7906106a8565b60405180910390fd5b6000600160003373ffffffffffffffffffffffffffffffffffffffff1673ffffffffffffffffffffffffffffffffffffffff168152602001908152602001600020819055503373ffffffffffffffffffffffffffffffffffffffff167ffc30cddea38e2bf4d6ea7d3f9ed3b6ad7f176419f4963bd81318067a4aee73fe8260405161048b91906106e8565b60405180910390a250565b6000600160008373ffffffffffffffffffffffffffffffffffffffff1673ffffffffffffffffffffffffffffffffffffffff168152602001908152602001600020549050919050565b6000813590506104ee816107d5565b92915050565b60006020828403121561050657600080fd5b6000610514848285016104df565b91505092915050565b6000806040838503121561053057600080fd5b600061053e858286016104df565b925050602061054f858286016104df565b9150509250929050565b6000610566600f83610703565b91507f496e76616c6964206e65775573657200000000000000000000000000000000006000830152602082019050919050565b60006105a6601083610703565b91507f496e76616c6964207265666572726572000000000000000000000000000000006000830152602082019050919050565b60006105e6601283610703565b91507f4e6f20706f696e747320746f20636c61696d00000000000000000000000000006000830152602082019050919050565b6000610626601083610703565b91507f43616e27742072656665722073656c66000000000000000000000000000000006000830152602082019050919050565b6106628161079c565b82525050565b6000602082019050818103600083015261068181610559565b9050919050565b600060208201905081810360008301526106a181610599565b9050919050565b600060208201905081810360008301526106c1816105d9565b9050919050565b600060208201905081810360008301526106e181610619565b9050919050565b60006020820190506106fd6000830184610659565b92915050565b600082825260208201905092915050565b600061071f8261079c565b915061072a8361079c565b9250827fffffffffffffffffffffffffffffffffffffffffffffffffffffffffffffffff0382111561075f5761075e6107a6565b5b828201905092915050565b60006107758261077c565b9050919050565b600073ffffffffffffffffffffffffffffffffffffffff82169050919050565b6000819050919050565b7f4e487b7100000000000000000000000000000000000000000000000000000000600052601160045260246000fd5b6107de8161076a565b81146107e957600080fd5b5056fea2646970667358221220b277e349504af7850c09b1bed2526a1e225fdf623cd6d5a18d16819871ae451864736f6c63430008000033",
  "immutableReferences": {},
  "source": "// SPDX-License-Identifier: MIT\r\npragma solidity ^0.8.0;\r\n\r\ncontract ReferralRewards {\r\n    mapping(address => uint256) private referralCounts;\r\n    mapping(address => uint256) private referralPoints;\r\n\r\n    event ReferralRecorded(address indexed newUser, address indexed referrer);\r\n    event RewardsClaimed(address indexed user, uint256 pointsClaimed);\r\n\r\n    // Record a referral when a new contributor (newUser) is referred by referrer\r\n    // In your funding logic after funding you call this if refParam is present\r\n    function recordReferral(address newUser, address referrer) external {\r\n        require(newUser != address(0), \"Invalid newUser\");\r\n        require(referrer != address(0), \"Invalid referrer\");\r\n        require(newUser != referrer, \"Can't refer self\");\r\n\r\n        referralCounts[referrer] += 1;\r\n        // Each referral = +10 points\r\n        referralPoints[referrer] += 10;\r\n\r\n        emit ReferralRecorded(newUser, referrer);\r\n    }\r\n\r\n    function getReferralCount(address user) external view returns (uint256) {\r\n        return referralCounts[user];\r\n    }\r\n\r\n    function getReferralPoints(address user) external view returns (uint256) {\r\n        return referralPoints[user];\r\n    }\r\n\r\n    function claimRewards() external {\r\n        uint256 points = referralPoints[msg.sender];\r\n        require(points > 0, \"No points to claim\");\r\n        // For demo, just reset points to 0 to simulate claiming\r\n        referralPoints[msg.sender] = 0;\r\n        emit RewardsClaimed(msg.sender, points);\r\n    }\r\n}\r\n",
  "sourcePath": "D:\\adv blockchain project\\final term project\\decentralized-crowdfunding\\contracts\\ReferralRewards.sol",
  "compiler": {
    "name": "solc",
    "version": "0.8.0+commit.c7dfd78e.Emscripten.clang"
  },
  "schemaVersion": "3.4.16",
  "updatedAt": "2024-12-09T03:42:44.983Z",
  "networkType": "ethereum",
  "devdoc": {
    "kind": "dev",
    "methods": {},
    "version": 1
  },
  "userdoc": {
    "kind": "user",
    "methods": {},
    "version": 1
  }
}