{
  "contractName": "ReferralRewards",
  "abi": [
    {
      "anonymous": false,
      "inputs": [
        {
          "indexed": true,
          "internalType": "address",
          "name": "referrer",
          "type": "address"
        },
        {
          "indexed": true,
          "internalType": "address",
          "name": "contributor",
          "type": "address"
        }
      ],
      "name": "ReferralRecorded",
      "type": "event"
    },
    {
      "inputs": [
        {
          "internalType": "address",
          "name": "",
          "type": "address"
        }
      ],
      "name": "referralCount",
      "outputs": [
        {
          "internalType": "uint256",
          "name": "",
          "type": "uint256"
        }
      ],
      "stateMutability": "view",
      "type": "function",
      "constant": true
    },
    {
      "inputs": [
        {
          "internalType": "address",
          "name": "contributor",
          "type": "address"
        },
        {
          "internalType": "address",
          "name": "referrer",
          "type": "address"
        }
      ],
      "name": "recordReferral",
      "outputs": [],
      "stateMutability": "nonpayable",
      "type": "function"
    },
    {
      "inputs": [
        {
          "internalType": "address",
          "name": "referrer",
          "type": "address"
        }
      ],
      "name": "getReferralCount",
      "outputs": [
        {
          "internalType": "uint256",
          "name": "",
          "type": "uint256"
        }
      ],
      "stateMutability": "view",
      "type": "function",
      "constant": true
    }
  ],
  "bytecode": "0x608060405234801561001057600080fd5b50610538806100206000396000f3fe608060405234801561001057600080fd5b50600436106100415760003560e01c80630c7f7b6b1461004657806324acbd6914610062578063db74559b14610092575b600080fd5b610060600480360381019061005b91906102f3565b6100c2565b005b61007c600480360381019061007791906102ca565b610255565b60405161008991906103fe565b60405180910390f35b6100ac60048036038101906100a791906102ca565b61029d565b6040516100b991906103fe565b60405180910390f35b600073ffffffffffffffffffffffffffffffffffffffff168173ffffffffffffffffffffffffffffffffffffffff161415610132576040517f08c379a0000000000000000000000000000000000000000000000000000000008152600401610129906103be565b60405180910390fd5b8173ffffffffffffffffffffffffffffffffffffffff168173ffffffffffffffffffffffffffffffffffffffff1614156101a1576040517f08c379a0000000000000000000000000000000000000000000000000000000008152600401610198906103de565b60405180910390fd5b60016000808373ffffffffffffffffffffffffffffffffffffffff1673ffffffffffffffffffffffffffffffffffffffff16815260200190815260200160002060008282546101f0919061042a565b925050819055508173ffffffffffffffffffffffffffffffffffffffff168173ffffffffffffffffffffffffffffffffffffffff167ff61ccbe316daff56654abed758191f9a4dcac526d43747a50a2d545c0ca64d8260405160405180910390a35050565b60008060008373ffffffffffffffffffffffffffffffffffffffff1673ffffffffffffffffffffffffffffffffffffffff168152602001908152602001600020549050919050565b60006020528060005260406000206000915090505481565b6000813590506102c4816104eb565b92915050565b6000602082840312156102dc57600080fd5b60006102ea848285016102b5565b91505092915050565b6000806040838503121561030657600080fd5b6000610314858286016102b5565b9250506020610325858286016102b5565b9150509250929050565b600061033c601083610419565b91507f496e76616c6964207265666572726572000000000000000000000000000000006000830152602082019050919050565b600061037c601183610419565b91507f43616e6e6f742072656665722073656c660000000000000000000000000000006000830152602082019050919050565b6103b8816104b2565b82525050565b600060208201905081810360008301526103d78161032f565b9050919050565b600060208201905081810360008301526103f78161036f565b9050919050565b600060208201905061041360008301846103af565b92915050565b600082825260208201905092915050565b6000610435826104b2565b9150610440836104b2565b9250827fffffffffffffffffffffffffffffffffffffffffffffffffffffffffffffffff03821115610475576104746104bc565b5b828201905092915050565b600061048b82610492565b9050919050565b600073ffffffffffffffffffffffffffffffffffffffff82169050919050565b6000819050919050565b7f4e487b7100000000000000000000000000000000000000000000000000000000600052601160045260246000fd5b6104f481610480565b81146104ff57600080fd5b5056fea2646970667358221220bee56fd9fbc7d08e15d96c74daade67ce7463958f75a97074127d18dafc0f1b364736f6c63430008000033",
  "immutableReferences": {},
  "source": "// SPDX-License-Identifier: MIT\r\npragma solidity ^0.8.0;\r\n\r\ncontract ReferralRewards {\r\n    mapping(address => uint256) public referralCount;\r\n\r\n    event ReferralRecorded(address indexed referrer, address indexed contributor);\r\n\r\n    // Record a referral after a successful contribution\r\n    // Only callable by the frontend after a user funds a project if a ref parameter was present\r\n    function recordReferral(address contributor, address referrer) external {\r\n        require(referrer != address(0), \"Invalid referrer\");\r\n        require(referrer != contributor, \"Cannot refer self\");\r\n        referralCount[referrer] += 1;\r\n        emit ReferralRecorded(referrer, contributor);\r\n    }\r\n\r\n    function getReferralCount(address referrer) external view returns (uint256) {\r\n        return referralCount[referrer];\r\n    }\r\n}\r\n",
  "sourcePath": "D:\\adv blockchain project\\final term project\\decentralized-crowdfunding\\contracts\\ReferralRewards.sol",
  "compiler": {
    "name": "solc",
    "version": "0.8.0+commit.c7dfd78e.Emscripten.clang"
  },
  "schemaVersion": "3.4.16",
  "updatedAt": "2024-12-09T01:03:48.534Z",
  "networkType": "ethereum",
  "devdoc": {
    "kind": "dev",
    "methods": {},
    "version": 1
  },
  "userdoc": {
    "kind": "user",
    "methods": {},
    "version": 1
  }
}